{
  "contractName": "BSTMinter",
  "abi": [
    {
      "inputs": [
        {
          "internalType": "address",
          "name": "_devaddr",
          "type": "address"
        },
        {
          "internalType": "uint256",
          "name": "_startBlock",
          "type": "uint256"
        },
        {
          "internalType": "address",
          "name": "ownerAddress",
          "type": "address"
        }
      ],
      "stateMutability": "nonpayable",
      "type": "constructor"
    },
    {
      "anonymous": false,
      "inputs": [
        {
          "indexed": false,
          "internalType": "address",
          "name": "proxy",
          "type": "address"
        },
        {
          "indexed": false,
          "internalType": "address",
          "name": "pool",
          "type": "address"
        },
        {
          "indexed": false,
          "internalType": "uint256",
          "name": "lastRewardBock",
          "type": "uint256"
        },
        {
          "indexed": false,
          "internalType": "uint256",
          "name": "blockNumber",
          "type": "uint256"
        },
        {
          "indexed": false,
          "internalType": "uint256",
          "name": "amount",
          "type": "uint256"
        }
      ],
      "name": "MintBST",
      "type": "event"
    },
    {
      "anonymous": false,
      "inputs": [
        {
          "indexed": true,
          "internalType": "address",
          "name": "previousOwner",
          "type": "address"
        },
        {
          "indexed": true,
          "internalType": "address",
          "name": "newOwner",
          "type": "address"
        }
      ],
      "name": "OwnershipTransferred",
      "type": "event"
    },
    {
      "anonymous": false,
      "inputs": [
        {
          "indexed": false,
          "internalType": "address",
          "name": "pool",
          "type": "address"
        },
        {
          "indexed": false,
          "internalType": "uint256",
          "name": "phase",
          "type": "uint256"
        },
        {
          "indexed": false,
          "internalType": "uint256",
          "name": "totalSupply",
          "type": "uint256"
        }
      ],
      "name": "PhaseChanged",
      "type": "event"
    },
    {
      "anonymous": false,
      "inputs": [
        {
          "indexed": false,
          "internalType": "address",
          "name": "_dev",
          "type": "address"
        }
      ],
      "name": "SetDevAddress",
      "type": "event"
    },
    {
      "anonymous": false,
      "inputs": [
        {
          "indexed": false,
          "internalType": "uint256",
          "name": "_block",
          "type": "uint256"
        }
      ],
      "name": "SetHalvingPeriod",
      "type": "event"
    },
    {
      "anonymous": false,
      "inputs": [
        {
          "indexed": false,
          "internalType": "address",
          "name": "_farmingProxy",
          "type": "address"
        },
        {
          "indexed": false,
          "internalType": "address",
          "name": "_pool",
          "type": "address"
        },
        {
          "indexed": false,
          "internalType": "uint256",
          "name": "_allocPoint",
          "type": "uint256"
        },
        {
          "indexed": false,
          "internalType": "uint256",
          "name": "_totalAllocPoint",
          "type": "uint256"
        }
      ],
      "name": "UpdateProxyInfo",
      "type": "event"
    },
    {
      "anonymous": false,
      "inputs": [
        {
          "indexed": false,
          "internalType": "address",
          "name": "_tokenAddress",
          "type": "address"
        }
      ],
      "name": "UpdateToken",
      "type": "event"
    },
    {
      "inputs": [],
      "name": "HALVING_COEFFICIENT",
      "outputs": [
        {
          "internalType": "uint256",
          "name": "",
          "type": "uint256"
        }
      ],
      "stateMutability": "view",
      "type": "function",
      "constant": true
    },
    {
      "inputs": [],
      "name": "bstToken",
      "outputs": [
        {
          "internalType": "contract IBSTToken",
          "name": "",
          "type": "address"
        }
      ],
      "stateMutability": "view",
      "type": "function",
      "constant": true
    },
    {
      "inputs": [],
      "name": "devaddr",
      "outputs": [
        {
          "internalType": "address",
          "name": "",
          "type": "address"
        }
      ],
      "stateMutability": "view",
      "type": "function",
      "constant": true
    },
    {
      "inputs": [],
      "name": "halvingPeriod",
      "outputs": [
        {
          "internalType": "uint256",
          "name": "",
          "type": "uint256"
        }
      ],
      "stateMutability": "view",
      "type": "function",
      "constant": true
    },
    {
      "inputs": [],
      "name": "owner",
      "outputs": [
        {
          "internalType": "address",
          "name": "",
          "type": "address"
        }
      ],
      "stateMutability": "view",
      "type": "function",
      "constant": true
    },
    {
      "inputs": [
        {
          "internalType": "address",
          "name": "",
          "type": "address"
        },
        {
          "internalType": "address",
          "name": "",
          "type": "address"
        }
      ],
      "name": "poolInfo",
      "outputs": [
        {
          "internalType": "address",
          "name": "pool",
          "type": "address"
        },
        {
          "internalType": "uint256",
          "name": "allocPoint",
          "type": "uint256"
        },
        {
          "internalType": "uint256",
          "name": "lastRewardBlock",
          "type": "uint256"
        }
      ],
      "stateMutability": "view",
      "type": "function",
      "constant": true
    },
    {
      "inputs": [
        {
          "internalType": "uint256",
          "name": "",
          "type": "uint256"
        }
      ],
      "name": "proxyAddresses",
      "outputs": [
        {
          "internalType": "address",
          "name": "",
          "type": "address"
        }
      ],
      "stateMutability": "view",
      "type": "function",
      "constant": true
    },
    {
      "inputs": [
        {
          "internalType": "address",
          "name": "",
          "type": "address"
        },
        {
          "internalType": "address",
          "name": "",
          "type": "address"
        }
      ],
      "name": "proxyTokens",
      "outputs": [
        {
          "internalType": "bool",
          "name": "",
          "type": "bool"
        }
      ],
      "stateMutability": "view",
      "type": "function",
      "constant": true
    },
    {
      "inputs": [],
      "name": "renounceOwnership",
      "outputs": [],
      "stateMutability": "nonpayable",
      "type": "function"
    },
    {
      "inputs": [],
      "name": "startBlock",
      "outputs": [
        {
          "internalType": "uint256",
          "name": "",
          "type": "uint256"
        }
      ],
      "stateMutability": "view",
      "type": "function",
      "constant": true
    },
    {
      "inputs": [],
      "name": "tokenPerBlock",
      "outputs": [
        {
          "internalType": "uint256",
          "name": "",
          "type": "uint256"
        }
      ],
      "stateMutability": "view",
      "type": "function",
      "constant": true
    },
    {
      "inputs": [],
      "name": "totalAllocPoint",
      "outputs": [
        {
          "internalType": "uint256",
          "name": "",
          "type": "uint256"
        }
      ],
      "stateMutability": "view",
      "type": "function",
      "constant": true
    },
    {
      "inputs": [
        {
          "internalType": "address",
          "name": "newOwner",
          "type": "address"
        }
      ],
      "name": "transferOwnership",
      "outputs": [],
      "stateMutability": "nonpayable",
      "type": "function"
    },
    {
      "inputs": [
        {
          "internalType": "contract IBSTToken",
          "name": "_token",
          "type": "address"
        }
      ],
      "name": "setToken",
      "outputs": [],
      "stateMutability": "nonpayable",
      "type": "function"
    },
    {
      "inputs": [
        {
          "internalType": "uint256",
          "name": "_block",
          "type": "uint256"
        }
      ],
      "name": "setHalvingPeriod",
      "outputs": [],
      "stateMutability": "nonpayable",
      "type": "function"
    },
    {
      "inputs": [
        {
          "internalType": "uint256",
          "name": "_allocPoint",
          "type": "uint256"
        },
        {
          "internalType": "address",
          "name": "_farmingProxy",
          "type": "address"
        },
        {
          "internalType": "address",
          "name": "_poolAddress",
          "type": "address"
        },
        {
          "internalType": "bool",
          "name": "_withUpdate",
          "type": "bool"
        }
      ],
      "name": "add",
      "outputs": [],
      "stateMutability": "nonpayable",
      "type": "function"
    },
    {
      "inputs": [
        {
          "internalType": "address",
          "name": "_proxyAddress",
          "type": "address"
        },
        {
          "internalType": "address",
          "name": "_poolAddress",
          "type": "address"
        },
        {
          "internalType": "uint256",
          "name": "_allocPoint",
          "type": "uint256"
        },
        {
          "internalType": "bool",
          "name": "_withUpdate",
          "type": "bool"
        }
      ],
      "name": "set",
      "outputs": [],
      "stateMutability": "nonpayable",
      "type": "function"
    },
    {
      "inputs": [],
      "name": "phase",
      "outputs": [
        {
          "internalType": "uint256",
          "name": "",
          "type": "uint256"
        }
      ],
      "stateMutability": "view",
      "type": "function",
      "constant": true
    },
    {
      "inputs": [
        {
          "internalType": "address",
          "name": "_proxyAddress",
          "type": "address"
        },
        {
          "internalType": "address",
          "name": "_poolAddress",
          "type": "address"
        }
      ],
      "name": "getReward",
      "outputs": [
        {
          "internalType": "uint256",
          "name": "",
          "type": "uint256"
        }
      ],
      "stateMutability": "view",
      "type": "function",
      "constant": true
    },
    {
      "inputs": [],
      "name": "massMint",
      "outputs": [],
      "stateMutability": "nonpayable",
      "type": "function"
    },
    {
      "inputs": [
        {
          "internalType": "address",
          "name": "pool",
          "type": "address"
        }
      ],
      "name": "updateLastRewardBlock",
      "outputs": [],
      "stateMutability": "nonpayable",
      "type": "function"
    },
    {
      "inputs": [
        {
          "internalType": "address",
          "name": "pool",
          "type": "address"
        }
      ],
      "name": "mint",
      "outputs": [
        {
          "internalType": "uint256",
          "name": "",
          "type": "uint256"
        }
      ],
      "stateMutability": "nonpayable",
      "type": "function"
    },
    {
      "inputs": [
        {
          "internalType": "address",
          "name": "_devaddr",
          "type": "address"
        }
      ],
      "name": "dev",
      "outputs": [],
      "stateMutability": "nonpayable",
      "type": "function"
    },
    {
      "inputs": [],
      "name": "getTokenAddress",
      "outputs": [
        {
          "internalType": "address",
          "name": "",
          "type": "address"
        }
      ],
      "stateMutability": "view",
      "type": "function",
      "constant": true
    },
    {
      "inputs": [],
      "name": "getStartBlock",
      "outputs": [
        {
          "internalType": "uint256",
          "name": "",
          "type": "uint256"
        }
      ],
      "stateMutability": "view",
      "type": "function",
      "constant": true
    },
    {
      "inputs": [
        {
          "internalType": "address",
          "name": "_proxy",
          "type": "address"
        },
        {
          "internalType": "address",
          "name": "_pool",
          "type": "address"
        }
      ],
      "name": "getPoolInfo",
      "outputs": [
        {
          "internalType": "uint256",
          "name": "_allocPoint",
          "type": "uint256"
        },
        {
          "internalType": "uint256",
          "name": "_lastRewardBlock",
          "type": "uint256"
        }
      ],
      "stateMutability": "view",
      "type": "function",
      "constant": true
    }
  ],
  "bytecode": "0x6080604052675a34a38fc00a00006003556000600955612710600b55671080e992061ab300600c553480156200003457600080fd5b5060405162001cdf38038062001cdf833981810160405260608110156200005a57600080fd5b50805160208201516040909201519091906000620000806001600160e01b036200013416565b600080546001600160a01b0319166001600160a01b03831690811782556040519293509160008051602062001cbf833981519152908290a3506001600160a01b038316620001005760405162461bcd60e51b815260040180806020018281038252602981526020018062001c966029913960400191505060405180910390fd5b600280546001600160a01b0319166001600160a01b038516179055600a8290556200012b8162000138565b50505062000263565b3390565b6200014b6001600160e01b036200013416565b6001600160a01b0316620001676001600160e01b036200025416565b6001600160a01b031614620001c3576040805162461bcd60e51b815260206004820181905260248201527f4f776e61626c653a2063616c6c6572206973206e6f7420746865206f776e6572604482015290519081900360640190fd5b6001600160a01b0381166200020a5760405162461bcd60e51b815260040180806020018281038252602681526020018062001c706026913960400191505060405180910390fd5b600080546040516001600160a01b038085169392169160008051602062001cbf83398151915291a3600080546001600160a01b0319166001600160a01b0392909216919091179055565b6000546001600160a01b031690565b6119fd80620002736000396000f3fe608060405234801561001057600080fd5b506004361061018e5760003560e01c80636b091695116100de578063b1c9fe6e11610097578063d49e77cd11610071578063d49e77cd14610420578063d870fadd14610428578063e1b7cebd14610430578063f2fde38b146104865761018e565b8063b1c9fe6e146103bd578063b5ec5c99146103c5578063c71b4b43146103e25761018e565b80636b09169514610313578063715018a6146103415780638d88a90e146103495780638da5cb5b1461036f578063a074449014610377578063a5f18c01146103b55761018e565b80632670e39c1161014b57806348cd4cb11161012557806348cd4cb1146102b75780635a3e251f146102bf57806363238b21146102c75780636a627842146102ed5761018e565b80632670e39c146102265780634198709a14610268578063486e51f4146102705761018e565b8063036725d81461019357806310fe9ae8146101cc578063144fa6d7146101d457806317caf6f1146101fc5780631848856f14610216578063206b8b6e1461021e575b600080fd5b6101b0600480360360208110156101a957600080fd5b50356104ac565b604080516001600160a01b039092168252519081900360200190f35b6101b06104d3565b6101fa600480360360208110156101ea57600080fd5b50356001600160a01b03166104e2565b005b6102046105ed565b60408051918252519081900360200190f35b6101fa6105f3565b610204610742565b6102546004803603604081101561023c57600080fd5b506001600160a01b0381358116916020013516610748565b604080519115158252519081900360200190f35b610204610768565b61029e6004803603604081101561028657600080fd5b506001600160a01b038135811691602001351661076e565b6040805192835260208301919091528051918290030190f35b6102046107a4565b6102046107aa565b6101fa600480360360208110156102dd57600080fd5b50356001600160a01b03166107b0565b6102046004803603602081101561030357600080fd5b50356001600160a01b031661096b565b6102046004803603604081101561032957600080fd5b506001600160a01b03813581169160200135166109f5565b6101fa610b80565b6101fa6004803603602081101561035f57600080fd5b50356001600160a01b0316610c2c565b6101b0610d27565b6101fa6004803603608081101561038d57600080fd5b506001600160a01b038135811691602081013590911690604081013590606001351515610d36565b610204610f12565b610204610f18565b6101fa600480360360208110156103db57600080fd5b5035610f28565b6101fa600480360360808110156103f857600080fd5b508035906001600160a01b036020820135811691604081013590911690606001351515610fc5565b6101b061130e565b6101b061131d565b61045e6004803603604081101561044657600080fd5b506001600160a01b038135811691602001351661132c565b604080516001600160a01b039094168452602084019290925282820152519081900360600190f35b6101fa6004803603602081101561049c57600080fd5b50356001600160a01b0316611362565b600681815481106104b957fe5b6000918252602090912001546001600160a01b0316905081565b6001546001600160a01b031690565b6104ea611464565b6001600160a01b03166104fb610d27565b6001600160a01b031614610544576040805162461bcd60e51b81526020600482018190526024820152600080516020611979833981519152604482015290519081900360640190fd5b6001600160a01b038116610599576040805162461bcd60e51b81526020600482015260176024820152764253544d696e7465723a206e6f2030206164647265737360481b604482015290519081900360640190fd5b600180546001600160a01b0383166001600160a01b0319909116811790915560408051918252517fc94c224579611362c1287bb3e82a13fbd4a04dd97c05e9fc3acf9a8c62194adb9181900360200190a150565b60095481565b6105fb611464565b6001600160a01b031661060c610d27565b6001600160a01b031614610655576040805162461bcd60e51b81526020600482018190526024820152600080516020611979833981519152604482015290519081900360640190fd5b60065460005b8181101561073e5760005b600760006006848154811061067757fe5b60009182526020808320909101546001600160a01b031683528201929092526040019020548110156107355761072c600683815481106106b357fe5b9060005260206000200160009054906101000a90046001600160a01b031660076000600686815481106106e257fe5b60009182526020808320909101546001600160a01b03168352820192909252604001902080548490811061071257fe5b6000918252602090912001546001600160a01b0316611468565b50600101610666565b5060010161065b565b5050565b600c5481565b600560209081526000928352604080842090915290825290205460ff1681565b60035481565b6001600160a01b039182166000908152600460209081526040808320939094168252919091522060018101546002909101549091565b600a5481565b600b5481565b3360009081526005602090815260408083206001600160a01b038516845290915290205460ff16610828576040805162461bcd60e51b815260206004820152601c60248201527f4253544d696e7465723a206f6e6c79206661726d696e6750726f787900000000604482015290519081900360640190fd5b3360009081526004602090815260408083206001600160a01b038516845290915281206002810154909161085b82611706565b9050600061086843611706565b905081811115610937577fb545e03e7c97cbab287b0da6d423a267b59c9f995c3643cabcac101c3ef240018582600160009054906101000a90046001600160a01b03166001600160a01b03166318160ddd6040518163ffffffff1660e01b815260040160206040518083038186803b1580156108e357600080fd5b505afa1580156108f7573d6000803e3d6000fd5b505050506040513d602081101561090d57600080fd5b5051604080516001600160a01b039094168452602084019290925282820152519081900360600190a15b50503360009081526004602090815260408083206001600160a01b0396909616835294905292909220436002909101555050565b3360009081526005602090815260408083206001600160a01b038516845290915281205460ff166109e3576040805162461bcd60e51b815260206004820152601c60248201527f4253544d696e7465723a206f6e6c79206661726d696e6750726f787900000000604482015290519081900360640190fd5b6109ed3383611468565b90505b919050565b6001600160a01b038083166000908152600460209081526040808320938516835292905290812060028101544311610a31576000915050610b7a565b6002810154600080610a4283611706565b90506000610a4f43611706565b60035490915060015b838111610a9457600c54610a8a90610a7e84670de0b6b3a764000063ffffffff61176016565b9063ffffffff6117c016565b9150600101610a58565b82841015610b3b57600a54600b54600190950194600091610acc91610ac090889063ffffffff61176016565b9063ffffffff61182716565b9050610b0f610b02600954610a7e8b60010154610af688610af68e8961188190919063ffffffff16565b9063ffffffff61176016565b879063ffffffff61182716565b600c54909650610b3190610a7e85670de0b6b3a764000063ffffffff61176016565b9096509150610a94565b610b70610b63600954610a7e8a60010154610af687610af68d4361188190919063ffffffff16565b869063ffffffff61182716565b9750505050505050505b92915050565b610b88611464565b6001600160a01b0316610b99610d27565b6001600160a01b031614610be2576040805162461bcd60e51b81526020600482018190526024820152600080516020611979833981519152604482015290519081900360640190fd5b600080546040516001600160a01b03909116907f8be0079c531659141344cd1fd0a4f28419497f9722a3daafe3b4186f6b6457e0908390a3600080546001600160a01b0319169055565b610c34611464565b6001600160a01b0316610c45610d27565b6001600160a01b031614610c8e576040805162461bcd60e51b81526020600482018190526024820152600080516020611979833981519152604482015290519081900360640190fd5b6001600160a01b038116610cd35760405162461bcd60e51b815260040180806020018281038252602981526020018061192f6029913960400191505060405180910390fd5b600280546001600160a01b0383166001600160a01b0319909116811790915560408051918252517ff5721dfa6ddbf8e4a2cd38b2152fff4008050b9b37de59ae1e022dde4bd5df739181900360200190a150565b6000546001600160a01b031690565b610d3e611464565b6001600160a01b0316610d4f610d27565b6001600160a01b031614610d98576040805162461bcd60e51b81526020600482018190526024820152600080516020611979833981519152604482015290519081900360640190fd5b6001600160a01b038416610ded576040805162461bcd60e51b81526020600482015260176024820152764253544d696e7465723a206e6f2030206164647265737360481b604482015290519081900360640190fd5b6001600160a01b038316610e42576040805162461bcd60e51b81526020600482015260176024820152764253544d696e7465723a206e6f2030206164647265737360481b604482015290519081900360640190fd5b8015610e5057610e506105f3565b6001600160a01b03808516600090815260046020908152604080832093871683529290522060010154600954610e91918491610ac09163ffffffff61188116565b60099081556001600160a01b0380861660008181526004602090815260408083209489168084529482529182902060010187905593548151928352938201929092528082018590526060810192909252517f126d7aa7b49e00d079095d0ec1a490ed23bb2c9c9e9343a00dd07aa1a5543cb09181900360800190a150505050565b600a5490565b6000610f2343611706565b905090565b610f30611464565b6001600160a01b0316610f41610d27565b6001600160a01b031614610f8a576040805162461bcd60e51b81526020600482018190526024820152600080516020611979833981519152604482015290519081900360640190fd5b600b8190556040805182815290517fdb8133c1736203fccafd8f3ae73892ac1d758c62a986ff6c4b5f5a5221798f279181900360200190a150565b610fcd611464565b6001600160a01b0316610fde610d27565b6001600160a01b031614611027576040805162461bcd60e51b81526020600482018190526024820152600080516020611979833981519152604482015290519081900360640190fd5b6001600160a01b03831661107c576040805162461bcd60e51b81526020600482015260176024820152764253544d696e7465723a206e6f2030206164647265737360481b604482015290519081900360640190fd5b6001600160a01b0382166110d1576040805162461bcd60e51b81526020600482015260176024820152764253544d696e7465723a206e6f2030206164647265737360481b604482015290519081900360640190fd5b6001600160a01b0380841660009081526005602090815260408083209386168352929052205460ff16156111365760405162461bcd60e51b815260040180806020018281038252602f815260200180611999602f913960400191505060405180910390fd5b6001600160a01b038084166000908152600560209081526040808320938616835292905220805460ff191660011790558015611174576111746105f3565b6000600a54431161118757600a54611189565b435b60095490915061119f908663ffffffff61182716565b6009556111aa6118de565b506001600160a01b038085166000818152600460209081526040808320888616808552818452828520835160608101855281548382528187018f81528287018c8152858a529588528251909a166001600160a01b0319918216178355985160018084019190915593516002909201919091558686526007855283862080549384018155865284862090920180549097161790955592825260089052205460ff166112b2576006805460018082019092557ff652222313e28459528d920b65115c16c04f3efc82aaedc97be59f3f377c0d3f0180546001600160a01b0319166001600160a01b0388169081179091556000908152600860205260409020805460ff191690911790555b600954604080516001600160a01b038089168252871660208201528082018990526060810192909252517f126d7aa7b49e00d079095d0ec1a490ed23bb2c9c9e9343a00dd07aa1a5543cb09181900360800190a1505050505050565b6002546001600160a01b031681565b6001546001600160a01b031681565b60046020908152600092835260408084209091529082529020805460018201546002909201546001600160a01b03909116919083565b61136a611464565b6001600160a01b031661137b610d27565b6001600160a01b0316146113c4576040805162461bcd60e51b81526020600482018190526024820152600080516020611979833981519152604482015290519081900360640190fd5b6001600160a01b0381166114095760405162461bcd60e51b81526004018080602001828103825260268152602001806119096026913960400191505060405180910390fd5b600080546040516001600160a01b03808516939216917f8be0079c531659141344cd1fd0a4f28419497f9722a3daafe3b4186f6b6457e091a3600080546001600160a01b0319166001600160a01b0392909216919091179055565b3390565b6001600160a01b038083166000908152600460209081526040808320938516835292905290812060028101544381106114a657600092505050610b7a565b60006114b182611706565b905060006114be43611706565b90508181111561158d577fb545e03e7c97cbab287b0da6d423a267b59c9f995c3643cabcac101c3ef240018682600160009054906101000a90046001600160a01b03166001600160a01b03166318160ddd6040518163ffffffff1660e01b815260040160206040518083038186803b15801561153957600080fd5b505afa15801561154d573d6000803e3d6000fd5b505050506040513d602081101561156357600080fd5b5051604080516001600160a01b039094168452602084019290925282820152519081900360600190a15b600061159988886109f5565b6001546002549192506001600160a01b03908116916340c10f1991166115c684600a63ffffffff6117c016565b6040518363ffffffff1660e01b815260040180836001600160a01b03166001600160a01b0316815260200182815260200192505050600060405180830381600087803b15801561161557600080fd5b505af1158015611629573d6000803e3d6000fd5b5050600154604080516340c10f1960e01b81526001600160a01b038d811660048301526024820187905291519190921693506340c10f199250604480830192600092919082900301818387803b15801561168257600080fd5b505af1158015611696573d6000803e3d6000fd5b50504360028801819055604080516001600160a01b03808e1682528c166020820152808201899052606081019290925260808201859052517f518937d251e4a2bac304859e09a0694a6fdd251c208ccf30bbb5613e0820d90693509081900360a0019150a1979650505050505050565b6000600b546000141561171b575060006109f0565b600a5482111561175857611751600b54610a7e6001611745600a548761188190919063ffffffff16565b9063ffffffff61188116565b90506109f0565b506000919050565b60008261176f57506000610b7a565b8282028284828161177c57fe5b04146117b95760405162461bcd60e51b81526004018080602001828103825260218152602001806119586021913960400191505060405180910390fd5b9392505050565b6000808211611816576040805162461bcd60e51b815260206004820152601a60248201527f536166654d6174683a206469766973696f6e206279207a65726f000000000000604482015290519081900360640190fd5b81838161181f57fe5b049392505050565b6000828201838110156117b9576040805162461bcd60e51b815260206004820152601b60248201527f536166654d6174683a206164646974696f6e206f766572666c6f770000000000604482015290519081900360640190fd5b6000828211156118d8576040805162461bcd60e51b815260206004820152601e60248201527f536166654d6174683a207375627472616374696f6e206f766572666c6f770000604482015290519081900360640190fd5b50900390565b604051806060016040528060006001600160a01b031681526020016000815260200160008152509056fe4f776e61626c653a206e6577206f776e657220697320746865207a65726f20616464726573734253544d696e7465723a2064657620616464726573732063616e277420626520302061646472657373536166654d6174683a206d756c7469706c69636174696f6e206f766572666c6f774f776e61626c653a2063616c6c6572206973206e6f7420746865206f776e65724253544d696e7465723a205f6661726d696e6750726f787920616e6420706f6f6c20616c7265616479206578697374a26469706673582212208c555261e6e765a4f59c5458c927a5147c39211b39d963c33513ec77670f128364736f6c634300060600334f776e61626c653a206e6577206f776e657220697320746865207a65726f20616464726573734253544d696e7465723a2064657620616464726573732063616e2774206265203020616464726573738be0079c531659141344cd1fd0a4f28419497f9722a3daafe3b4186f6b6457e0",
  "immutableReferences": {},
  "source": "// SPDX-License-Identifier: MIT\n\npragma solidity ^0.6.0;\n\nimport \"./lib/SafeBEP20.sol\";\nimport \"./interfaces/IBEP20.sol\";\nimport \"./interfaces/IBSTToken.sol\";\nimport \"@openzeppelin/contracts/math/SafeMath.sol\";\nimport \"@openzeppelin/contracts/access/Ownable.sol\";\n\n/// @title Implement BST's distrubution plan.\ncontract BSTMinter is Ownable {\n    using SafeMath for uint256;\n    using SafeBEP20 for IBEP20;\n\n    /// @notice Info of each pool of proxy.\n    struct PoolInfo {\n        address pool; /// @dev Address of farming contract.\n        uint256 allocPoint; /// @dev How many allocation points assigned to this proxy. BSTs to distribute per block.\n        uint256 lastRewardBlock; /// @dev Last block number that BSTs distribution occurs.\n    }\n    IBSTToken public bstToken;\n    /// @notice Dev address.\n    address public devaddr;\n    /// @notice BST tokens created per block.\n    uint256 public tokenPerBlock = 6_500_000_000_000_000_000; // 6.5 bst/block\n    /// @notice Info of each pool of proxy.\n    mapping(address => mapping(address => PoolInfo)) public poolInfo;\n    /// @notice Save proxy address whether exists.\n    mapping(address => mapping(address => bool)) public proxyTokens;\n    /// @notice Save proxy's address in array.\n    address[] public proxyAddresses;\n    /// @notice Save pool's address in array.\n    mapping(address => address[]) poolsAddress;\n    /// @notice Save proxy whether exists.\n    mapping(address => bool) proxyExists;\n    /// @notice Total allocation poitns. Must be the sum of all allocation points in all proxys.\n    uint256 public totalAllocPoint = 0;\n    /// @notice The block number when BST mining starts.\n    uint256 public startBlock;\n    /// @notice Halving Period in blocks.\n    uint256 public halvingPeriod = 10_000;\n    /// @notice Halving coefficient.\n    uint256 public HALVING_COEFFICIENT = 1_189_207_115_002_721_024;\n\n    event UpdateProxyInfo(\n        address _farmingProxy,\n        address _pool,\n        uint256 _allocPoint,\n        uint256 _totalAllocPoint\n    );\n    event UpdateToken(address _tokenAddress);\n    event SetHalvingPeriod(uint256 _block);\n    event SetDevAddress(address _dev);\n    event MintBST(\n        address proxy,\n        address pool,\n        uint256 lastRewardBock,\n        uint256 blockNumber,\n        uint256 amount\n    );\n    event PhaseChanged(address pool, uint256 phase, uint256 totalSupply);\n\n    constructor(\n        address _devaddr,\n        uint256 _startBlock,\n        address ownerAddress\n    ) public {\n        require(\n            _devaddr != address(0),\n            \"BSTMinter: dev address can't be 0 address\"\n        );\n        devaddr = _devaddr;\n        startBlock = _startBlock;\n        transferOwnership(ownerAddress);\n    }\n\n    function setToken(IBSTToken _token) public onlyOwner {\n        require(address(_token) != address(0), \"BSTMinter: no 0 address\");\n        bstToken = _token;\n        emit UpdateToken(address(_token));\n    }\n\n    function setHalvingPeriod(uint256 _block) public onlyOwner {\n        halvingPeriod = _block;\n        emit SetHalvingPeriod(_block);\n    }\n\n    /// @notice Add a new proxy. Can only be called by the owner.\n    /// @param _allocPoint Proxy's allocation's weight.\n    /// @param _farmingProxy Proxy contract's address.\n    /// @param _poolAddress A pool of the proxy.\n    /// @param _withUpdate Need mint BST\n    function add(\n        uint256 _allocPoint,\n        address _farmingProxy,\n        address _poolAddress,\n        bool _withUpdate\n    ) public onlyOwner {\n        require(_farmingProxy != address(0), \"BSTMinter: no 0 address\");\n        require(_poolAddress != address(0), \"BSTMinter: no 0 address\");\n        require(\n            !proxyTokens[_farmingProxy][_poolAddress],\n            \"BSTMinter: _farmingProxy and pool already exist\"\n        );\n        proxyTokens[_farmingProxy][_poolAddress] = true;\n        if (_withUpdate) {\n            massMint();\n        }\n        uint256 lastRewardBlock =\n            block.number > startBlock ? block.number : startBlock;\n        totalAllocPoint = totalAllocPoint.add(_allocPoint);\n        PoolInfo memory pInfo = poolInfo[_farmingProxy][_poolAddress];\n        pInfo.pool = _poolAddress;\n        pInfo.allocPoint = _allocPoint;\n        pInfo.lastRewardBlock = lastRewardBlock;\n        poolInfo[_farmingProxy][_poolAddress] = pInfo;\n        poolsAddress[_farmingProxy].push(_poolAddress);\n        if (!proxyExists[_farmingProxy]) {\n            proxyAddresses.push(_farmingProxy);\n            proxyExists[_farmingProxy] = true;\n        }\n        emit UpdateProxyInfo(\n            _farmingProxy,\n            _poolAddress,\n            _allocPoint,\n            totalAllocPoint\n        );\n    }\n\n    /// @notice Update the given proxy's BST allocation point. Can only be called by the owner.\n    /// @param _proxyAddress Proxy contract's address.\n    /// @param _poolAddress A pool of the proxy.\n    /// @param _allocPoint Proxy's allocation's weight.\n    /// @param _withUpdate Need mint BST\n    function set(\n        address _proxyAddress,\n        address _poolAddress,\n        uint256 _allocPoint,\n        bool _withUpdate\n    ) public onlyOwner {\n        require(_proxyAddress != address(0), \"BSTMinter: no 0 address\");\n        require(_poolAddress != address(0), \"BSTMinter: no 0 address\");\n        if (_withUpdate) {\n            massMint();\n        }\n        totalAllocPoint = totalAllocPoint\n            .sub(poolInfo[_proxyAddress][_poolAddress].allocPoint)\n            .add(_allocPoint);\n        poolInfo[_proxyAddress][_poolAddress].allocPoint = _allocPoint;\n        emit UpdateProxyInfo(\n            _proxyAddress,\n            _poolAddress,\n            _allocPoint,\n            totalAllocPoint\n        );\n    }\n\n    function _phase(uint256 blockNumber) internal view returns (uint256) {\n        if (halvingPeriod == 0) {\n            return 0;\n        }\n        if (blockNumber > startBlock) {\n            return (blockNumber.sub(startBlock).sub(1)).div(halvingPeriod);\n        }\n        return 0;\n    }\n\n    /// @notice At what phase\n    function phase() public view returns (uint256) {\n        return _phase(block.number);\n    }\n\n    /// @notice Get proxy's amount of total reward\n    /// @param _proxyAddress the proxy's address.\n    /// @param _poolAddress A pool of the proxy.\n    /// @return return the amount of bst should be mint.\n    function getReward(address _proxyAddress, address _poolAddress)\n        public\n        view\n        returns (uint256)\n    {\n        PoolInfo storage pool = poolInfo[_proxyAddress][_poolAddress];\n        if (block.number <= pool.lastRewardBlock) {\n            return 0;\n        }\n        uint256 _lastRewardBlock = pool.lastRewardBlock;\n        uint256 blockReward = 0;\n        uint256 _lastPhase = _phase(_lastRewardBlock);\n        uint256 _currPhase = _phase(block.number);\n        uint256 _bstPerBlock = tokenPerBlock;\n        uint256 i = 1;\n        while (i <= _lastPhase) {\n            // calculate out lastPhase _bstPerBlock\n            _bstPerBlock = _bstPerBlock.mul(10**18).div(HALVING_COEFFICIENT);\n            i++;\n        }\n        // If it crosses the cycle\n        while (_lastPhase < _currPhase) {\n            _lastPhase++;\n            // Get the last block of the previous cycle\n            uint256 r = _lastPhase.mul(halvingPeriod).add(startBlock);\n            // Get rewards from previous periods\n            blockReward = blockReward.add(\n                r\n                    .sub(_lastRewardBlock)\n                    .mul(_bstPerBlock)\n                    .mul(pool.allocPoint)\n                    .div(totalAllocPoint)\n            );\n            _bstPerBlock = _bstPerBlock.mul(10**18).div(HALVING_COEFFICIENT);\n            _lastRewardBlock = r;\n        }\n        blockReward = blockReward.add(\n            (block.number.sub(_lastRewardBlock))\n                .mul(_bstPerBlock)\n                .mul(pool.allocPoint)\n                .div(totalAllocPoint)\n        );\n        return blockReward;\n    }\n\n    /// @notice Update reward vairables for all proxys. Be careful of gas spending!\n    function massMint() public onlyOwner {\n        uint256 length = proxyAddresses.length;\n        for (uint256 pid = 0; pid < length; pid++) {\n            for (\n                uint256 i = 0;\n                i < poolsAddress[proxyAddresses[pid]].length;\n                i++\n            ) {\n                mint_(\n                    proxyAddresses[pid],\n                    poolsAddress[proxyAddresses[pid]][i]\n                );\n            }\n        }\n    }\n\n    /// @notice mint bst according options\n    /// @param _pid proxy's address\n    /// @param _pool pool's address.\n    function mint_(address _pid, address _pool) internal returns (uint256) {\n        PoolInfo storage pInfo = poolInfo[_pid][_pool];\n        uint256 _lastRewardBlock = pInfo.lastRewardBlock;\n        if (block.number <= pInfo.lastRewardBlock) {\n            return 0;\n        }\n        uint256 _lastPhase = _phase(_lastRewardBlock);\n        uint256 _currPhase = _phase(block.number);\n        if (_currPhase > _lastPhase) {\n            emit PhaseChanged(_pool, _currPhase, bstToken.totalSupply());\n        }\n        uint256 tokenReward = getReward(_pid, _pool);\n        bstToken.mint(devaddr, tokenReward.div(10));\n        bstToken.mint(_pid, tokenReward);\n        pInfo.lastRewardBlock = block.number;\n        emit MintBST(_pid, _pool, _lastRewardBlock, block.number, tokenReward);\n        return tokenReward;\n    }\n\n    /// @dev Update pool's lastRewardBlock to block.number\n    /// @param pool Pool's address\n    function updateLastRewardBlock(address pool) public {\n        require(proxyTokens[msg.sender][pool], \"BSTMinter: only farmingProxy\");\n        PoolInfo storage pInfo = poolInfo[msg.sender][pool];\n        uint256 _lastRewardBlock = pInfo.lastRewardBlock;\n        uint256 _lastPhase = _phase(_lastRewardBlock);\n        uint256 _currPhase = _phase(block.number);\n        if (_currPhase > _lastPhase) {\n            emit PhaseChanged(pool, _currPhase, bstToken.totalSupply());\n        }\n        poolInfo[msg.sender][pool].lastRewardBlock = block.number;\n    }\n\n    /// @notice mint bst according options\n    /// @param pool pool's address.\n    function mint(address pool) external returns (uint256) {\n        require(proxyTokens[msg.sender][pool], \"BSTMinter: only farmingProxy\");\n        return mint_(msg.sender, pool);\n    }\n\n    /// @notice Update dev address by the previous dev.\n    function dev(address _devaddr) public onlyOwner {\n        require(\n            _devaddr != address(0),\n            \"BSTMinter: dev address can't be 0 address\"\n        );\n        devaddr = _devaddr;\n        emit SetDevAddress(_devaddr);\n    }\n\n    function getTokenAddress() external view returns (address) {\n        return address(bstToken);\n    }\n\n    function getStartBlock() external view returns (uint256) {\n        return startBlock;\n    }\n\n    function getPoolInfo(address _proxy, address _pool)\n        external\n        view\n        returns (uint256 _allocPoint, uint256 _lastRewardBlock)\n    {\n        _allocPoint = poolInfo[_proxy][_pool].allocPoint;\n        _lastRewardBlock = poolInfo[_proxy][_pool].lastRewardBlock;\n    }\n}\n",
  "sourcePath": "/Users/zhangleping/github.com/0xa8c81519/contracts-210510/contracts/BSTMinter.sol",
  "compiler": {
    "name": "solc",
    "version": "0.6.6+commit.6c089d02.Emscripten.clang"
  },
  "schemaVersion": "3.4.1",
  "updatedAt": "2021-06-12T09:01:58.766Z",
  "networkType": "ethereum",
  "devdoc": {
    "methods": {
      "add(uint256,address,address,bool)": {
        "params": {
          "_allocPoint": "Proxy's allocation's weight.",
          "_farmingProxy": "Proxy contract's address.",
          "_poolAddress": "A pool of the proxy.",
          "_withUpdate": "Need mint BST"
        }
      },
      "getReward(address,address)": {
        "params": {
          "_poolAddress": "A pool of the proxy.",
          "_proxyAddress": "the proxy's address."
        },
        "returns": {
          "_0": "return the amount of bst should be mint."
        }
      },
      "mint(address)": {
        "params": {
          "pool": "pool's address."
        }
      },
      "owner()": {
        "details": "Returns the address of the current owner."
      },
      "renounceOwnership()": {
        "details": "Leaves the contract without owner. It will not be possible to call `onlyOwner` functions anymore. Can only be called by the current owner.     * NOTE: Renouncing ownership will leave the contract without an owner, thereby removing any functionality that is only available to the owner."
      },
      "set(address,address,uint256,bool)": {
        "params": {
          "_allocPoint": "Proxy's allocation's weight.",
          "_poolAddress": "A pool of the proxy.",
          "_proxyAddress": "Proxy contract's address.",
          "_withUpdate": "Need mint BST"
        }
      },
      "transferOwnership(address)": {
        "details": "Transfers ownership of the contract to a new account (`newOwner`). Can only be called by the current owner."
      },
      "updateLastRewardBlock(address)": {
        "details": "Update pool's lastRewardBlock to block.number",
        "params": {
          "pool": "Pool's address"
        }
      }
    },
    "title": "Implement BST's distrubution plan."
  },
  "userdoc": {
    "methods": {
      "add(uint256,address,address,bool)": {
        "notice": "Add a new proxy. Can only be called by the owner."
      },
      "dev(address)": {
        "notice": "Update dev address by the previous dev."
      },
      "getReward(address,address)": {
        "notice": "Get proxy's amount of total reward"
      },
      "massMint()": {
        "notice": "Update reward vairables for all proxys. Be careful of gas spending!"
      },
      "mint(address)": {
        "notice": "mint bst according options"
      },
      "phase()": {
        "notice": "At what phase"
      },
      "set(address,address,uint256,bool)": {
        "notice": "Update the given proxy's BST allocation point. Can only be called by the owner."
      }
    }
  }
}