{
  "contractName": "BSTMinter",
  "abi": [
    {
      "inputs": [
        {
          "internalType": "address",
          "name": "_devaddr",
          "type": "address"
        },
        {
          "internalType": "uint256",
          "name": "_startBlock",
          "type": "uint256"
        },
        {
          "internalType": "address",
          "name": "ownerAddress",
          "type": "address"
        }
      ],
      "stateMutability": "nonpayable",
      "type": "constructor"
    },
    {
      "anonymous": false,
      "inputs": [
        {
          "indexed": false,
          "internalType": "address",
          "name": "proxy",
          "type": "address"
        },
        {
          "indexed": false,
          "internalType": "address",
          "name": "pool",
          "type": "address"
        },
        {
          "indexed": false,
          "internalType": "uint256",
          "name": "lastRewardBock",
          "type": "uint256"
        },
        {
          "indexed": false,
          "internalType": "uint256",
          "name": "blockNumber",
          "type": "uint256"
        },
        {
          "indexed": false,
          "internalType": "uint256",
          "name": "amount",
          "type": "uint256"
        }
      ],
      "name": "MintBST",
      "type": "event"
    },
    {
      "anonymous": false,
      "inputs": [
        {
          "indexed": true,
          "internalType": "address",
          "name": "previousOwner",
          "type": "address"
        },
        {
          "indexed": true,
          "internalType": "address",
          "name": "newOwner",
          "type": "address"
        }
      ],
      "name": "OwnershipTransferred",
      "type": "event"
    },
    {
      "anonymous": false,
      "inputs": [
        {
          "indexed": false,
          "internalType": "address",
          "name": "pool",
          "type": "address"
        },
        {
          "indexed": false,
          "internalType": "uint256",
          "name": "phase",
          "type": "uint256"
        },
        {
          "indexed": false,
          "internalType": "uint256",
          "name": "totalSupply",
          "type": "uint256"
        }
      ],
      "name": "PhaseChanged",
      "type": "event"
    },
    {
      "anonymous": false,
      "inputs": [
        {
          "indexed": false,
          "internalType": "address",
          "name": "_dev",
          "type": "address"
        }
      ],
      "name": "SetDevAddress",
      "type": "event"
    },
    {
      "anonymous": false,
      "inputs": [
        {
          "indexed": false,
          "internalType": "uint256",
          "name": "_block",
          "type": "uint256"
        }
      ],
      "name": "SetHalvingPeriod",
      "type": "event"
    },
    {
      "anonymous": false,
      "inputs": [
        {
          "indexed": false,
          "internalType": "address",
          "name": "_farmingProxy",
          "type": "address"
        },
        {
          "indexed": false,
          "internalType": "address",
          "name": "_pool",
          "type": "address"
        },
        {
          "indexed": false,
          "internalType": "uint256",
          "name": "_allocPoint",
          "type": "uint256"
        },
        {
          "indexed": false,
          "internalType": "uint256",
          "name": "_totalAllocPoint",
          "type": "uint256"
        }
      ],
      "name": "UpdateProxyInfo",
      "type": "event"
    },
    {
      "anonymous": false,
      "inputs": [
        {
          "indexed": false,
          "internalType": "address",
          "name": "_tokenAddress",
          "type": "address"
        }
      ],
      "name": "UpdateToken",
      "type": "event"
    },
    {
      "inputs": [],
      "name": "HALVING_COEFFICIENT",
      "outputs": [
        {
          "internalType": "uint256",
          "name": "",
          "type": "uint256"
        }
      ],
      "stateMutability": "view",
      "type": "function",
      "constant": true
    },
    {
      "inputs": [],
      "name": "bstToken",
      "outputs": [
        {
          "internalType": "contract IBSTToken",
          "name": "",
          "type": "address"
        }
      ],
      "stateMutability": "view",
      "type": "function",
      "constant": true
    },
    {
      "inputs": [],
      "name": "devaddr",
      "outputs": [
        {
          "internalType": "address",
          "name": "",
          "type": "address"
        }
      ],
      "stateMutability": "view",
      "type": "function",
      "constant": true
    },
    {
      "inputs": [],
      "name": "halvingPeriod",
      "outputs": [
        {
          "internalType": "uint256",
          "name": "",
          "type": "uint256"
        }
      ],
      "stateMutability": "view",
      "type": "function",
      "constant": true
    },
    {
      "inputs": [],
      "name": "owner",
      "outputs": [
        {
          "internalType": "address",
          "name": "",
          "type": "address"
        }
      ],
      "stateMutability": "view",
      "type": "function",
      "constant": true
    },
    {
      "inputs": [
        {
          "internalType": "address",
          "name": "",
          "type": "address"
        },
        {
          "internalType": "address",
          "name": "",
          "type": "address"
        }
      ],
      "name": "poolInfo",
      "outputs": [
        {
          "internalType": "address",
          "name": "pool",
          "type": "address"
        },
        {
          "internalType": "uint256",
          "name": "allocPoint",
          "type": "uint256"
        },
        {
          "internalType": "uint256",
          "name": "lastRewardBlock",
          "type": "uint256"
        }
      ],
      "stateMutability": "view",
      "type": "function",
      "constant": true
    },
    {
      "inputs": [
        {
          "internalType": "uint256",
          "name": "",
          "type": "uint256"
        }
      ],
      "name": "proxyAddresses",
      "outputs": [
        {
          "internalType": "address",
          "name": "",
          "type": "address"
        }
      ],
      "stateMutability": "view",
      "type": "function",
      "constant": true
    },
    {
      "inputs": [
        {
          "internalType": "address",
          "name": "",
          "type": "address"
        },
        {
          "internalType": "address",
          "name": "",
          "type": "address"
        }
      ],
      "name": "proxyTokens",
      "outputs": [
        {
          "internalType": "bool",
          "name": "",
          "type": "bool"
        }
      ],
      "stateMutability": "view",
      "type": "function",
      "constant": true
    },
    {
      "inputs": [],
      "name": "renounceOwnership",
      "outputs": [],
      "stateMutability": "nonpayable",
      "type": "function"
    },
    {
      "inputs": [],
      "name": "startBlock",
      "outputs": [
        {
          "internalType": "uint256",
          "name": "",
          "type": "uint256"
        }
      ],
      "stateMutability": "view",
      "type": "function",
      "constant": true
    },
    {
      "inputs": [],
      "name": "tokenPerBlock",
      "outputs": [
        {
          "internalType": "uint256",
          "name": "",
          "type": "uint256"
        }
      ],
      "stateMutability": "view",
      "type": "function",
      "constant": true
    },
    {
      "inputs": [],
      "name": "totalAllocPoint",
      "outputs": [
        {
          "internalType": "uint256",
          "name": "",
          "type": "uint256"
        }
      ],
      "stateMutability": "view",
      "type": "function",
      "constant": true
    },
    {
      "inputs": [
        {
          "internalType": "address",
          "name": "newOwner",
          "type": "address"
        }
      ],
      "name": "transferOwnership",
      "outputs": [],
      "stateMutability": "nonpayable",
      "type": "function"
    },
    {
      "inputs": [
        {
          "internalType": "contract IBSTToken",
          "name": "_token",
          "type": "address"
        }
      ],
      "name": "setToken",
      "outputs": [],
      "stateMutability": "nonpayable",
      "type": "function"
    },
    {
      "inputs": [
        {
          "internalType": "uint256",
          "name": "_block",
          "type": "uint256"
        }
      ],
      "name": "setHalvingPeriod",
      "outputs": [],
      "stateMutability": "nonpayable",
      "type": "function"
    },
    {
      "inputs": [
        {
          "internalType": "address",
          "name": "_farmingProxy",
          "type": "address"
        }
      ],
      "name": "addProxy",
      "outputs": [],
      "stateMutability": "nonpayable",
      "type": "function"
    },
    {
      "inputs": [
        {
          "internalType": "uint256",
          "name": "_allocPoint",
          "type": "uint256"
        },
        {
          "internalType": "address",
          "name": "_poolAddress",
          "type": "address"
        }
      ],
      "name": "add",
      "outputs": [],
      "stateMutability": "nonpayable",
      "type": "function"
    },
    {
      "inputs": [
        {
          "internalType": "address",
          "name": "_poolAddress",
          "type": "address"
        },
        {
          "internalType": "uint256",
          "name": "_allocPoint",
          "type": "uint256"
        }
      ],
      "name": "set",
      "outputs": [],
      "stateMutability": "nonpayable",
      "type": "function"
    },
    {
      "inputs": [],
      "name": "phase",
      "outputs": [
        {
          "internalType": "uint256",
          "name": "",
          "type": "uint256"
        }
      ],
      "stateMutability": "view",
      "type": "function",
      "constant": true
    },
    {
      "inputs": [
        {
          "internalType": "address",
          "name": "_proxyAddress",
          "type": "address"
        },
        {
          "internalType": "address",
          "name": "_poolAddress",
          "type": "address"
        }
      ],
      "name": "getReward",
      "outputs": [
        {
          "internalType": "uint256",
          "name": "",
          "type": "uint256"
        }
      ],
      "stateMutability": "view",
      "type": "function",
      "constant": true
    },
    {
      "inputs": [
        {
          "internalType": "address",
          "name": "pool",
          "type": "address"
        }
      ],
      "name": "updateLastRewardBlock",
      "outputs": [],
      "stateMutability": "nonpayable",
      "type": "function"
    },
    {
      "inputs": [
        {
          "internalType": "address",
          "name": "pool",
          "type": "address"
        }
      ],
      "name": "mint",
      "outputs": [
        {
          "internalType": "uint256",
          "name": "",
          "type": "uint256"
        }
      ],
      "stateMutability": "nonpayable",
      "type": "function"
    },
    {
      "inputs": [
        {
          "internalType": "address",
          "name": "_devaddr",
          "type": "address"
        }
      ],
      "name": "dev",
      "outputs": [],
      "stateMutability": "nonpayable",
      "type": "function"
    },
    {
      "inputs": [],
      "name": "getTokenAddress",
      "outputs": [
        {
          "internalType": "address",
          "name": "",
          "type": "address"
        }
      ],
      "stateMutability": "view",
      "type": "function",
      "constant": true
    },
    {
      "inputs": [],
      "name": "getStartBlock",
      "outputs": [
        {
          "internalType": "uint256",
          "name": "",
          "type": "uint256"
        }
      ],
      "stateMutability": "view",
      "type": "function",
      "constant": true
    },
    {
      "inputs": [
        {
          "internalType": "address",
          "name": "_proxy",
          "type": "address"
        },
        {
          "internalType": "address",
          "name": "_pool",
          "type": "address"
        }
      ],
      "name": "getPoolInfo",
      "outputs": [
        {
          "internalType": "uint256",
          "name": "_allocPoint",
          "type": "uint256"
        },
        {
          "internalType": "uint256",
          "name": "_lastRewardBlock",
          "type": "uint256"
        }
      ],
      "stateMutability": "view",
      "type": "function",
      "constant": true
    }
  ],
  "bytecode": "0x6080604052675a34a38fc00a00006003556000600955622819a0600b55671080e992061ab300600c553480156200003557600080fd5b5060405162001c4238038062001c42833981810160405260608110156200005b57600080fd5b50805160208201516040909201519091906000620000816001600160e01b036200013516565b600080546001600160a01b0319166001600160a01b03831690811782556040519293509160008051602062001c22833981519152908290a3506001600160a01b038316620001015760405162461bcd60e51b815260040180806020018281038252602981526020018062001bf96029913960400191505060405180910390fd5b600280546001600160a01b0319166001600160a01b038516179055600a8290556200012c8162000139565b50505062000264565b3390565b6200014c6001600160e01b036200013516565b6001600160a01b0316620001686001600160e01b036200025516565b6001600160a01b031614620001c4576040805162461bcd60e51b815260206004820181905260248201527f4f776e61626c653a2063616c6c6572206973206e6f7420746865206f776e6572604482015290519081900360640190fd5b6001600160a01b0381166200020b5760405162461bcd60e51b815260040180806020018281038252602681526020018062001bd36026913960400191505060405180910390fd5b600080546040516001600160a01b038085169392169160008051602062001c2283398151915291a3600080546001600160a01b0319166001600160a01b0392909216919091179055565b6000546001600160a01b031690565b61195f80620002746000396000f3fe608060405234801561001057600080fd5b506004361061018e5760003560e01c806363238b21116100de578063a5f18c0111610097578063d49e77cd11610071578063d49e77cd1461041a578063d870fadd14610422578063e1b7cebd1461042a578063f2fde38b146104805761018e565b8063a5f18c01146103ed578063b1c9fe6e146103f5578063b5ec5c99146103fd5761018e565b806363238b211461033d5780636a627842146103635780636b09169514610389578063715018a6146103b75780638d88a90e146103bf5780638da5cb5b146103e55761018e565b80632670e39c1161014b5780634198709a116101255780634198709a146102de578063486e51f4146102e657806348cd4cb11461032d5780635a3e251f146103355761018e565b80632670e39c146102445780632b8bbbe8146102865780633825d828146102b25761018e565b8063036725d81461019357806310fe9ae8146101cc578063144fa6d7146101d457806317caf6f1146101fc578063206b8b6e1461021657806323b11d8d1461021e575b600080fd5b6101b0600480360360208110156101a957600080fd5b50356104a6565b604080516001600160a01b039092168252519081900360200190f35b6101b06104cd565b6101fa600480360360208110156101ea57600080fd5b50356001600160a01b03166104dc565b005b6102046105e7565b60408051918252519081900360200190f35b6102046105ed565b6101fa6004803603602081101561023457600080fd5b50356001600160a01b03166105f3565b6102726004803603604081101561025a57600080fd5b506001600160a01b0381358116916020013516610769565b604080519115158252519081900360200190f35b6101fa6004803603604081101561029c57600080fd5b50803590602001356001600160a01b0316610789565b6101fa600480360360408110156102c857600080fd5b506001600160a01b0381351690602001356109e8565b610204610b66565b610314600480360360408110156102fc57600080fd5b506001600160a01b0381358116916020013516610b6c565b6040805192835260208301919091528051918290030190f35b610204610ba2565b610204610ba8565b6101fa6004803603602081101561035357600080fd5b50356001600160a01b0316610bae565b6102046004803603602081101561037957600080fd5b50356001600160a01b0316610d69565b6102046004803603604081101561039f57600080fd5b506001600160a01b0381358116916020013516610e41565b6101fa610fc0565b6101fa600480360360208110156103d557600080fd5b50356001600160a01b031661106c565b6101b0611167565b610204611176565b61020461117c565b6101fa6004803603602081101561041357600080fd5b503561118c565b6101b0611229565b6101b0611238565b6104586004803603604081101561044057600080fd5b506001600160a01b0381358116916020013516611247565b604080516001600160a01b039094168452602084019290925282820152519081900360600190f35b6101fa6004803603602081101561049657600080fd5b50356001600160a01b031661127d565b600681815481106104b357fe5b6000918252602090912001546001600160a01b0316905081565b6001546001600160a01b031690565b6104e461137f565b6001600160a01b03166104f5611167565b6001600160a01b03161461053e576040805162461bcd60e51b815260206004820181905260248201526000805160206118db833981519152604482015290519081900360640190fd5b6001600160a01b038116610593576040805162461bcd60e51b81526020600482015260176024820152764253544d696e7465723a206e6f2030206164647265737360481b604482015290519081900360640190fd5b600180546001600160a01b0383166001600160a01b0319909116811790915560408051918252517fc94c224579611362c1287bb3e82a13fbd4a04dd97c05e9fc3acf9a8c62194adb9181900360200190a150565b60095481565b600c5481565b6105fb61137f565b6001600160a01b031661060c611167565b6001600160a01b031614610655576040805162461bcd60e51b815260206004820181905260248201526000805160206118db833981519152604482015290519081900360640190fd5b6001600160a01b0381166106aa576040805162461bcd60e51b81526020600482015260176024820152764253544d696e7465723a206e6f2030206164647265737360481b604482015290519081900360640190fd5b6001600160a01b03811660009081526008602052604090205460ff16156107025760405162461bcd60e51b81526004018080602001828103825260238152602001806118976023913960400191505060405180910390fd5b6006805460018181019092557ff652222313e28459528d920b65115c16c04f3efc82aaedc97be59f3f377c0d3f0180546001600160a01b039093166001600160a01b031990931683179055600091825260086020526040909120805460ff19169091179055565b600560209081526000928352604080842090915290825290205460ff1681565b3360009081526008602052604090205460ff166107ed576040805162461bcd60e51b815260206004820152601e60248201527f4253544d696e7465723a206f6e6c792070726f787920636f6e74726163740000604482015290519081900360640190fd5b6001600160a01b038116610842576040805162461bcd60e51b81526020600482015260176024820152764253544d696e7465723a206e6f2030206164647265737360481b604482015290519081900360640190fd5b3360009081526005602090815260408083206001600160a01b038516845290915290205460ff16156108a55760405162461bcd60e51b815260040180806020018281038252602f8152602001806118fb602f913960400191505060405180910390fd5b3360009081526005602090815260408083206001600160a01b03851684529091528120805460ff19166001179055600a5443116108e457600a546108e6565b435b6009549091506108fc908463ffffffff61138316565b6009556109076117f9565b503360008181526004602090815260408083206001600160a01b0387811680865282855283862084516060808201875282548483528289018e81528389018d8152868c52978a5283519096166001600160a01b0319918216178455945160018085019190915595516002909301929092558888526007875285882080549586018155885296869020909301805490921681179091556009548351968752938601528482018890528401919091525190917f126d7aa7b49e00d079095d0ec1a490ed23bb2c9c9e9343a00dd07aa1a5543cb0919081900360800190a150505050565b3360009081526008602052604090205460ff16610a4c576040805162461bcd60e51b815260206004820152601e60248201527f4253544d696e7465723a206f6e6c792070726f787920636f6e74726163740000604482015290519081900360640190fd5b6001600160a01b038216610aa1576040805162461bcd60e51b81526020600482015260176024820152764253544d696e7465723a206e6f2030206164647265737360481b604482015290519081900360640190fd5b3360009081526004602090815260408083206001600160a01b0386168452909152902060010154600954610aec918391610ae09163ffffffff6113e416565b9063ffffffff61138316565b60099081553360008181526004602090815260408083206001600160a01b038816808552908352928190206001018690559354845193845290830191909152818301849052606082015290517f126d7aa7b49e00d079095d0ec1a490ed23bb2c9c9e9343a00dd07aa1a5543cb09181900360800190a15050565b60035481565b6001600160a01b039182166000908152600460209081526040808320939094168252919091522060018101546002909101549091565b600a5481565b600b5481565b3360009081526005602090815260408083206001600160a01b038516845290915290205460ff16610c26576040805162461bcd60e51b815260206004820152601c60248201527f4253544d696e7465723a206f6e6c79206661726d696e6750726f787900000000604482015290519081900360640190fd5b3360009081526004602090815260408083206001600160a01b0385168452909152812060028101549091610c5982611441565b90506000610c6643611441565b905081811115610d35577fb545e03e7c97cbab287b0da6d423a267b59c9f995c3643cabcac101c3ef240018582600160009054906101000a90046001600160a01b03166001600160a01b03166318160ddd6040518163ffffffff1660e01b815260040160206040518083038186803b158015610ce157600080fd5b505afa158015610cf5573d6000803e3d6000fd5b505050506040513d6020811015610d0b57600080fd5b5051604080516001600160a01b039094168452602084019290925282820152519081900360600190a15b50503360009081526004602090815260408083206001600160a01b0396909616835294905292909220436002909101555050565b3360009081526008602052604081205460ff16610dcd576040805162461bcd60e51b815260206004820152601e60248201527f4253544d696e7465723a206f6e6c792070726f787920636f6e74726163740000604482015290519081900360640190fd5b3360009081526005602090815260408083206001600160a01b038616845290915290205460ff16610e2f5760405162461bcd60e51b81526004018080602001828103825260248152602001806118736024913960400191505060405180910390fd5b610e39338361149b565b90505b919050565b6001600160a01b038083166000908152600460209081526040808320938516835292905290812060028101544311610e7d576000915050610fba565b6002810154600080610e8e83611441565b90506000610e9b43611441565b60035490915060015b838111610ee057600c54610ed690610eca84670de0b6b3a764000063ffffffff61173916565b9063ffffffff61179216565b9150600101610ea4565b82841015610f7b57600a54600b54600190950194600091610f0c91610ae090889063ffffffff61173916565b9050610f4f610f42600954610eca8b60010154610f3688610f368e896113e490919063ffffffff16565b9063ffffffff61173916565b879063ffffffff61138316565b600c54909650610f7190610eca85670de0b6b3a764000063ffffffff61173916565b9096509150610ee0565b610fb0610fa3600954610eca8a60010154610f3687610f368d436113e490919063ffffffff16565b869063ffffffff61138316565b9750505050505050505b92915050565b610fc861137f565b6001600160a01b0316610fd9611167565b6001600160a01b031614611022576040805162461bcd60e51b815260206004820181905260248201526000805160206118db833981519152604482015290519081900360640190fd5b600080546040516001600160a01b03909116907f8be0079c531659141344cd1fd0a4f28419497f9722a3daafe3b4186f6b6457e0908390a3600080546001600160a01b0319169055565b61107461137f565b6001600160a01b0316611085611167565b6001600160a01b0316146110ce576040805162461bcd60e51b815260206004820181905260248201526000805160206118db833981519152604482015290519081900360640190fd5b6001600160a01b0381166111135760405162461bcd60e51b815260040180806020018281038252602981526020018061184a6029913960400191505060405180910390fd5b600280546001600160a01b0383166001600160a01b0319909116811790915560408051918252517ff5721dfa6ddbf8e4a2cd38b2152fff4008050b9b37de59ae1e022dde4bd5df739181900360200190a150565b6000546001600160a01b031690565b600a5490565b600061118743611441565b905090565b61119461137f565b6001600160a01b03166111a5611167565b6001600160a01b0316146111ee576040805162461bcd60e51b815260206004820181905260248201526000805160206118db833981519152604482015290519081900360640190fd5b600b8190556040805182815290517fdb8133c1736203fccafd8f3ae73892ac1d758c62a986ff6c4b5f5a5221798f279181900360200190a150565b6002546001600160a01b031681565b6001546001600160a01b031681565b60046020908152600092835260408084209091529082529020805460018201546002909201546001600160a01b03909116919083565b61128561137f565b6001600160a01b0316611296611167565b6001600160a01b0316146112df576040805162461bcd60e51b815260206004820181905260248201526000805160206118db833981519152604482015290519081900360640190fd5b6001600160a01b0381166113245760405162461bcd60e51b81526004018080602001828103825260268152602001806118246026913960400191505060405180910390fd5b600080546040516001600160a01b03808516939216917f8be0079c531659141344cd1fd0a4f28419497f9722a3daafe3b4186f6b6457e091a3600080546001600160a01b0319166001600160a01b0392909216919091179055565b3390565b6000828201838110156113dd576040805162461bcd60e51b815260206004820152601b60248201527f536166654d6174683a206164646974696f6e206f766572666c6f770000000000604482015290519081900360640190fd5b9392505050565b60008282111561143b576040805162461bcd60e51b815260206004820152601e60248201527f536166654d6174683a207375627472616374696f6e206f766572666c6f770000604482015290519081900360640190fd5b50900390565b6000600b546000141561145657506000610e3c565b600a548211156114935761148c600b54610eca6001611480600a54876113e490919063ffffffff16565b9063ffffffff6113e416565b9050610e3c565b506000919050565b6001600160a01b038083166000908152600460209081526040808320938516835292905290812060028101544381106114d957600092505050610fba565b60006114e482611441565b905060006114f143611441565b9050818111156115c0577fb545e03e7c97cbab287b0da6d423a267b59c9f995c3643cabcac101c3ef240018682600160009054906101000a90046001600160a01b03166001600160a01b03166318160ddd6040518163ffffffff1660e01b815260040160206040518083038186803b15801561156c57600080fd5b505afa158015611580573d6000803e3d6000fd5b505050506040513d602081101561159657600080fd5b5051604080516001600160a01b039094168452602084019290925282820152519081900360600190a15b60006115cc8888610e41565b6001546002549192506001600160a01b03908116916340c10f1991166115f984600a63ffffffff61179216565b6040518363ffffffff1660e01b815260040180836001600160a01b03166001600160a01b0316815260200182815260200192505050600060405180830381600087803b15801561164857600080fd5b505af115801561165c573d6000803e3d6000fd5b5050600154604080516340c10f1960e01b81526001600160a01b038d811660048301526024820187905291519190921693506340c10f199250604480830192600092919082900301818387803b1580156116b557600080fd5b505af11580156116c9573d6000803e3d6000fd5b50504360028801819055604080516001600160a01b03808e1682528c166020820152808201899052606081019290925260808201859052517f518937d251e4a2bac304859e09a0694a6fdd251c208ccf30bbb5613e0820d90693509081900360a0019150a1979650505050505050565b60008261174857506000610fba565b8282028284828161175557fe5b04146113dd5760405162461bcd60e51b81526004018080602001828103825260218152602001806118ba6021913960400191505060405180910390fd5b60008082116117e8576040805162461bcd60e51b815260206004820152601a60248201527f536166654d6174683a206469766973696f6e206279207a65726f000000000000604482015290519081900360640190fd5b8183816117f157fe5b049392505050565b604051806060016040528060006001600160a01b031681526020016000815260200160008152509056fe4f776e61626c653a206e6577206f776e657220697320746865207a65726f20616464726573734253544d696e7465723a2064657620616464726573732063616e2774206265203020616464726573734253544d696e7465723a2070726f787920616e6420706f6f6c206e6f206578697374732e4253544d696e7465723a205f6661726d696e6750726f7879206973206578697374732e536166654d6174683a206d756c7469706c69636174696f6e206f766572666c6f774f776e61626c653a2063616c6c6572206973206e6f7420746865206f776e65724253544d696e7465723a205f6661726d696e6750726f787920616e6420706f6f6c20616c7265616479206578697374a2646970667358221220c1429633d7846acfdbde7f780e56d60537a5ad8f27b0578b6becdf3ef216a06764736f6c634300060600334f776e61626c653a206e6577206f776e657220697320746865207a65726f20616464726573734253544d696e7465723a2064657620616464726573732063616e2774206265203020616464726573738be0079c531659141344cd1fd0a4f28419497f9722a3daafe3b4186f6b6457e0",
  "immutableReferences": {},
  "source": "// SPDX-License-Identifier: MIT\n\npragma solidity ^0.6.0;\n\nimport \"./lib/SafeBEP20.sol\";\nimport \"./interfaces/IBEP20.sol\";\nimport \"./interfaces/IBSTToken.sol\";\nimport \"@openzeppelin/contracts/math/SafeMath.sol\";\nimport \"@openzeppelin/contracts/access/Ownable.sol\";\n\n/// @title Implement BST's distrubution plan.\ncontract BSTMinter is Ownable {\n    using SafeMath for uint256;\n    using SafeBEP20 for IBEP20;\n\n    /// @notice Info of each pool of proxy.\n    struct PoolInfo {\n        address pool; /// @dev Address of farming contract.\n        uint256 allocPoint; /// @dev How many allocation points assigned to this proxy. BSTs to distribute per block.\n        uint256 lastRewardBlock; /// @dev Last block number that BSTs distribution occurs.\n    }\n    IBSTToken public bstToken;\n    /// @notice Dev address.\n    address public devaddr;\n    /// @notice BST tokens created per block.\n    uint256 public tokenPerBlock = 6_500_000_000_000_000_000; // 6.5 bst/block\n    /// @notice Info of each pool of proxy.\n    mapping(address => mapping(address => PoolInfo)) public poolInfo;\n    /// @notice Save proxy address whether exists.\n    mapping(address => mapping(address => bool)) public proxyTokens;\n    /// @notice Save proxy's address in array.\n    address[] public proxyAddresses;\n    /// @notice Save pool's address in array.\n    mapping(address => address[]) poolsAddress;\n    /// @notice Save proxy whether exists.\n    mapping(address => bool) proxyExists;\n    /// @notice Total allocation poitns. Must be the sum of all allocation points in all proxys.\n    uint256 public totalAllocPoint = 0;\n    /// @notice The block number when BST mining starts.\n    uint256 public startBlock;\n    /// @notice Halving Period in blocks.\n    uint256 public halvingPeriod = 2_628_000;\n    /// @notice Halving coefficient.\n    uint256 public HALVING_COEFFICIENT = 1_189_207_115_002_721_024;\n\n    event UpdateProxyInfo(\n        address _farmingProxy,\n        address _pool,\n        uint256 _allocPoint,\n        uint256 _totalAllocPoint\n    );\n    event UpdateToken(address _tokenAddress);\n    event SetHalvingPeriod(uint256 _block);\n    event SetDevAddress(address _dev);\n    event MintBST(\n        address proxy,\n        address pool,\n        uint256 lastRewardBock,\n        uint256 blockNumber,\n        uint256 amount\n    );\n    event PhaseChanged(address pool, uint256 phase, uint256 totalSupply);\n\n    constructor(\n        address _devaddr,\n        uint256 _startBlock,\n        address ownerAddress\n    ) public {\n        require(\n            _devaddr != address(0),\n            \"BSTMinter: dev address can't be 0 address\"\n        );\n        devaddr = _devaddr;\n        startBlock = _startBlock;\n        transferOwnership(ownerAddress);\n    }\n\n    function setToken(IBSTToken _token) public onlyOwner {\n        require(address(_token) != address(0), \"BSTMinter: no 0 address\");\n        bstToken = _token;\n        emit UpdateToken(address(_token));\n    }\n\n    function setHalvingPeriod(uint256 _block) public onlyOwner {\n        halvingPeriod = _block;\n        emit SetHalvingPeriod(_block);\n    }\n\n    /// @notice Owner should add proxy first, then proxy can add its pools.\n    /// @param _farmingProxy Proxy's address\n    function addProxy(address _farmingProxy) public onlyOwner {\n        require(_farmingProxy != address(0), \"BSTMinter: no 0 address\");\n        require(\n            !proxyExists[_farmingProxy],\n            \"BSTMinter: _farmingProxy is exists.\"\n        );\n        proxyAddresses.push(_farmingProxy);\n        proxyExists[_farmingProxy] = true;\n    }\n\n    /// @notice Add a new proxy. Can only be called by the owner.\n    /// @param _allocPoint Proxy's allocation's weight.\n    /// @param _poolAddress A pool of the proxy.\n    function add(uint256 _allocPoint, address _poolAddress) public {\n        require(proxyExists[msg.sender], \"BSTMinter: only proxy contract\");\n        require(_poolAddress != address(0), \"BSTMinter: no 0 address\");\n        require(\n            !proxyTokens[msg.sender][_poolAddress],\n            \"BSTMinter: _farmingProxy and pool already exist\"\n        );\n        proxyTokens[msg.sender][_poolAddress] = true;\n        uint256 lastRewardBlock =\n            block.number > startBlock ? block.number : startBlock;\n        totalAllocPoint = totalAllocPoint.add(_allocPoint);\n        PoolInfo memory pInfo = poolInfo[msg.sender][_poolAddress];\n        pInfo.pool = _poolAddress;\n        pInfo.allocPoint = _allocPoint;\n        pInfo.lastRewardBlock = lastRewardBlock;\n        poolInfo[msg.sender][_poolAddress] = pInfo;\n        poolsAddress[msg.sender].push(_poolAddress);\n        emit UpdateProxyInfo(\n            msg.sender,\n            _poolAddress,\n            _allocPoint,\n            totalAllocPoint\n        );\n    }\n\n    /// @notice Update the given proxy's BST allocation point. Can only be called by the owner.\n    /// @param _poolAddress A pool of the proxy.\n    /// @param _allocPoint Proxy's allocation's weight.\n    function set(address _poolAddress, uint256 _allocPoint) public {\n        require(proxyExists[msg.sender], \"BSTMinter: only proxy contract\");\n        require(_poolAddress != address(0), \"BSTMinter: no 0 address\");\n        totalAllocPoint = totalAllocPoint\n            .sub(poolInfo[msg.sender][_poolAddress].allocPoint)\n            .add(_allocPoint);\n        poolInfo[msg.sender][_poolAddress].allocPoint = _allocPoint;\n        emit UpdateProxyInfo(\n            msg.sender,\n            _poolAddress,\n            _allocPoint,\n            totalAllocPoint\n        );\n    }\n\n    function _phase(uint256 blockNumber) internal view returns (uint256) {\n        if (halvingPeriod == 0) {\n            return 0;\n        }\n        if (blockNumber > startBlock) {\n            return (blockNumber.sub(startBlock).sub(1)).div(halvingPeriod);\n        }\n        return 0;\n    }\n\n    /// @notice At what phase\n    function phase() public view returns (uint256) {\n        return _phase(block.number);\n    }\n\n    /// @notice Get proxy's amount of total reward\n    /// @param _proxyAddress the proxy's address.\n    /// @param _poolAddress A pool of the proxy.\n    /// @return return the amount of bst should be mint.\n    function getReward(address _proxyAddress, address _poolAddress)\n        public\n        view\n        returns (uint256)\n    {\n        PoolInfo storage pool = poolInfo[_proxyAddress][_poolAddress];\n        if (block.number <= pool.lastRewardBlock) {\n            return 0;\n        }\n        uint256 _lastRewardBlock = pool.lastRewardBlock;\n        uint256 blockReward = 0;\n        uint256 _lastPhase = _phase(_lastRewardBlock);\n        uint256 _currPhase = _phase(block.number);\n        uint256 _bstPerBlock = tokenPerBlock;\n        uint256 i = 1;\n        while (i <= _lastPhase) {\n            // calculate out lastPhase _bstPerBlock\n            _bstPerBlock = _bstPerBlock.mul(10**18).div(HALVING_COEFFICIENT);\n            i++;\n        }\n        // If it crosses the cycle\n        while (_lastPhase < _currPhase) {\n            _lastPhase++;\n            // Get the last block of the previous cycle\n            uint256 r = _lastPhase.mul(halvingPeriod).add(startBlock);\n            // Get rewards from previous periods\n            blockReward = blockReward.add(\n                r\n                    .sub(_lastRewardBlock)\n                    .mul(_bstPerBlock)\n                    .mul(pool.allocPoint)\n                    .div(totalAllocPoint)\n            );\n            _bstPerBlock = _bstPerBlock.mul(10**18).div(HALVING_COEFFICIENT);\n            _lastRewardBlock = r;\n        }\n        blockReward = blockReward.add(\n            (block.number.sub(_lastRewardBlock))\n                .mul(_bstPerBlock)\n                .mul(pool.allocPoint)\n                .div(totalAllocPoint)\n        );\n        return blockReward;\n    }\n\n    /// @notice mint bst according options\n    /// @param _pid proxy's address\n    /// @param _pool pool's address.\n    function mint_(address _pid, address _pool) internal returns (uint256) {\n        PoolInfo storage pInfo = poolInfo[_pid][_pool];\n        uint256 _lastRewardBlock = pInfo.lastRewardBlock;\n        if (block.number <= pInfo.lastRewardBlock) {\n            return 0;\n        }\n        uint256 _lastPhase = _phase(_lastRewardBlock);\n        uint256 _currPhase = _phase(block.number);\n        if (_currPhase > _lastPhase) {\n            emit PhaseChanged(_pool, _currPhase, bstToken.totalSupply());\n        }\n        uint256 tokenReward = getReward(_pid, _pool);\n        bstToken.mint(devaddr, tokenReward.div(10));\n        bstToken.mint(_pid, tokenReward);\n        pInfo.lastRewardBlock = block.number;\n        emit MintBST(_pid, _pool, _lastRewardBlock, block.number, tokenReward);\n        return tokenReward;\n    }\n\n    /// @dev Update pool's lastRewardBlock to block.number\n    /// @param pool Pool's address\n    function updateLastRewardBlock(address pool) public {\n        require(proxyTokens[msg.sender][pool], \"BSTMinter: only farmingProxy\");\n        PoolInfo storage pInfo = poolInfo[msg.sender][pool];\n        uint256 _lastRewardBlock = pInfo.lastRewardBlock;\n        uint256 _lastPhase = _phase(_lastRewardBlock);\n        uint256 _currPhase = _phase(block.number);\n        if (_currPhase > _lastPhase) {\n            emit PhaseChanged(pool, _currPhase, bstToken.totalSupply());\n        }\n        poolInfo[msg.sender][pool].lastRewardBlock = block.number;\n    }\n\n    /// @notice mint bst according options\n    /// @param pool pool's address.\n    function mint(address pool) external returns (uint256) {\n        require(proxyExists[msg.sender], \"BSTMinter: only proxy contract\");\n        require(\n            proxyTokens[msg.sender][pool],\n            \"BSTMinter: proxy and pool no exists.\"\n        );\n        return mint_(msg.sender, pool);\n    }\n\n    /// @notice Update dev address by the previous dev.\n    function dev(address _devaddr) public onlyOwner {\n        require(\n            _devaddr != address(0),\n            \"BSTMinter: dev address can't be 0 address\"\n        );\n        devaddr = _devaddr;\n        emit SetDevAddress(_devaddr);\n    }\n\n    function getTokenAddress() external view returns (address) {\n        return address(bstToken);\n    }\n\n    function getStartBlock() external view returns (uint256) {\n        return startBlock;\n    }\n\n    function getPoolInfo(address _proxy, address _pool)\n        external\n        view\n        returns (uint256 _allocPoint, uint256 _lastRewardBlock)\n    {\n        _allocPoint = poolInfo[_proxy][_pool].allocPoint;\n        _lastRewardBlock = poolInfo[_proxy][_pool].lastRewardBlock;\n    }\n}\n",
  "sourcePath": "/Users/zhangleping/github.com/0xa8c81519/contracts-210510/contracts/BSTMinter.sol",
  "compiler": {
    "name": "solc",
    "version": "0.6.6+commit.6c089d02.Emscripten.clang"
  },
  "schemaVersion": "3.4.1",
  "updatedAt": "2021-06-15T07:06:31.162Z",
  "networkType": "ethereum",
  "devdoc": {
    "methods": {
      "add(uint256,address)": {
        "params": {
          "_allocPoint": "Proxy's allocation's weight.",
          "_poolAddress": "A pool of the proxy."
        }
      },
      "addProxy(address)": {
        "params": {
          "_farmingProxy": "Proxy's address"
        }
      },
      "getReward(address,address)": {
        "params": {
          "_poolAddress": "A pool of the proxy.",
          "_proxyAddress": "the proxy's address."
        },
        "returns": {
          "_0": "return the amount of bst should be mint."
        }
      },
      "mint(address)": {
        "params": {
          "pool": "pool's address."
        }
      },
      "owner()": {
        "details": "Returns the address of the current owner."
      },
      "renounceOwnership()": {
        "details": "Leaves the contract without owner. It will not be possible to call `onlyOwner` functions anymore. Can only be called by the current owner.     * NOTE: Renouncing ownership will leave the contract without an owner, thereby removing any functionality that is only available to the owner."
      },
      "set(address,uint256)": {
        "params": {
          "_allocPoint": "Proxy's allocation's weight.",
          "_poolAddress": "A pool of the proxy."
        }
      },
      "transferOwnership(address)": {
        "details": "Transfers ownership of the contract to a new account (`newOwner`). Can only be called by the current owner."
      },
      "updateLastRewardBlock(address)": {
        "details": "Update pool's lastRewardBlock to block.number",
        "params": {
          "pool": "Pool's address"
        }
      }
    },
    "title": "Implement BST's distrubution plan."
  },
  "userdoc": {
    "methods": {
      "add(uint256,address)": {
        "notice": "Add a new proxy. Can only be called by the owner."
      },
      "addProxy(address)": {
        "notice": "Owner should add proxy first, then proxy can add its pools."
      },
      "dev(address)": {
        "notice": "Update dev address by the previous dev."
      },
      "getReward(address,address)": {
        "notice": "Get proxy's amount of total reward"
      },
      "mint(address)": {
        "notice": "mint bst according options"
      },
      "phase()": {
        "notice": "At what phase"
      },
      "set(address,uint256)": {
        "notice": "Update the given proxy's BST allocation point. Can only be called by the owner."
      }
    }
  }
}