{
  "contractName": "BSTToken",
  "abi": [
    {
      "inputs": [
        {
          "internalType": "address",
          "name": "owner_",
          "type": "address"
        },
        {
          "internalType": "address",
          "name": "minter_",
          "type": "address"
        },
        {
          "internalType": "address[]",
          "name": "investors",
          "type": "address[]"
        }
      ],
      "stateMutability": "nonpayable",
      "type": "constructor"
    },
    {
      "anonymous": false,
      "inputs": [
        {
          "indexed": true,
          "internalType": "address",
          "name": "owner",
          "type": "address"
        },
        {
          "indexed": true,
          "internalType": "address",
          "name": "spender",
          "type": "address"
        },
        {
          "indexed": false,
          "internalType": "uint256",
          "name": "value",
          "type": "uint256"
        }
      ],
      "name": "Approval",
      "type": "event"
    },
    {
      "anonymous": false,
      "inputs": [
        {
          "indexed": true,
          "internalType": "address",
          "name": "delegator",
          "type": "address"
        },
        {
          "indexed": true,
          "internalType": "address",
          "name": "fromDelegate",
          "type": "address"
        },
        {
          "indexed": true,
          "internalType": "address",
          "name": "toDelegate",
          "type": "address"
        }
      ],
      "name": "DelegateChanged",
      "type": "event"
    },
    {
      "anonymous": false,
      "inputs": [
        {
          "indexed": true,
          "internalType": "address",
          "name": "delegate",
          "type": "address"
        },
        {
          "indexed": false,
          "internalType": "uint256",
          "name": "previousBalance",
          "type": "uint256"
        },
        {
          "indexed": false,
          "internalType": "uint256",
          "name": "newBalance",
          "type": "uint256"
        }
      ],
      "name": "DelegateVotesChanged",
      "type": "event"
    },
    {
      "anonymous": false,
      "inputs": [
        {
          "indexed": true,
          "internalType": "address",
          "name": "previousOwner",
          "type": "address"
        },
        {
          "indexed": true,
          "internalType": "address",
          "name": "newOwner",
          "type": "address"
        }
      ],
      "name": "OwnershipTransferred",
      "type": "event"
    },
    {
      "anonymous": false,
      "inputs": [
        {
          "indexed": true,
          "internalType": "address",
          "name": "from",
          "type": "address"
        },
        {
          "indexed": true,
          "internalType": "address",
          "name": "to",
          "type": "address"
        },
        {
          "indexed": false,
          "internalType": "uint256",
          "name": "value",
          "type": "uint256"
        }
      ],
      "name": "Transfer",
      "type": "event"
    },
    {
      "inputs": [],
      "name": "DELEGATION_TYPEHASH",
      "outputs": [
        {
          "internalType": "bytes32",
          "name": "",
          "type": "bytes32"
        }
      ],
      "stateMutability": "view",
      "type": "function",
      "constant": true
    },
    {
      "inputs": [],
      "name": "DOMAIN_TYPEHASH",
      "outputs": [
        {
          "internalType": "bytes32",
          "name": "",
          "type": "bytes32"
        }
      ],
      "stateMutability": "view",
      "type": "function",
      "constant": true
    },
    {
      "inputs": [],
      "name": "TOKENS_PER_INVESTOR",
      "outputs": [
        {
          "internalType": "uint256",
          "name": "",
          "type": "uint256"
        }
      ],
      "stateMutability": "view",
      "type": "function",
      "constant": true
    },
    {
      "inputs": [
        {
          "internalType": "address",
          "name": "owner",
          "type": "address"
        },
        {
          "internalType": "address",
          "name": "spender",
          "type": "address"
        }
      ],
      "name": "allowance",
      "outputs": [
        {
          "internalType": "uint256",
          "name": "",
          "type": "uint256"
        }
      ],
      "stateMutability": "view",
      "type": "function",
      "constant": true
    },
    {
      "inputs": [
        {
          "internalType": "address",
          "name": "spender",
          "type": "address"
        },
        {
          "internalType": "uint256",
          "name": "amount",
          "type": "uint256"
        }
      ],
      "name": "approve",
      "outputs": [
        {
          "internalType": "bool",
          "name": "",
          "type": "bool"
        }
      ],
      "stateMutability": "nonpayable",
      "type": "function"
    },
    {
      "inputs": [
        {
          "internalType": "address",
          "name": "account",
          "type": "address"
        }
      ],
      "name": "balanceOf",
      "outputs": [
        {
          "internalType": "uint256",
          "name": "",
          "type": "uint256"
        }
      ],
      "stateMutability": "view",
      "type": "function",
      "constant": true
    },
    {
      "inputs": [
        {
          "internalType": "uint256",
          "name": "amount",
          "type": "uint256"
        }
      ],
      "name": "burn",
      "outputs": [],
      "stateMutability": "nonpayable",
      "type": "function"
    },
    {
      "inputs": [
        {
          "internalType": "address",
          "name": "account",
          "type": "address"
        },
        {
          "internalType": "uint256",
          "name": "amount",
          "type": "uint256"
        }
      ],
      "name": "burnFrom",
      "outputs": [],
      "stateMutability": "nonpayable",
      "type": "function"
    },
    {
      "inputs": [
        {
          "internalType": "address",
          "name": "",
          "type": "address"
        },
        {
          "internalType": "uint32",
          "name": "",
          "type": "uint32"
        }
      ],
      "name": "checkpoints",
      "outputs": [
        {
          "internalType": "uint32",
          "name": "fromBlock",
          "type": "uint32"
        },
        {
          "internalType": "uint256",
          "name": "votes",
          "type": "uint256"
        }
      ],
      "stateMutability": "view",
      "type": "function",
      "constant": true
    },
    {
      "inputs": [],
      "name": "decimals",
      "outputs": [
        {
          "internalType": "uint8",
          "name": "",
          "type": "uint8"
        }
      ],
      "stateMutability": "view",
      "type": "function",
      "constant": true
    },
    {
      "inputs": [
        {
          "internalType": "address",
          "name": "spender",
          "type": "address"
        },
        {
          "internalType": "uint256",
          "name": "subtractedValue",
          "type": "uint256"
        }
      ],
      "name": "decreaseAllowance",
      "outputs": [
        {
          "internalType": "bool",
          "name": "",
          "type": "bool"
        }
      ],
      "stateMutability": "nonpayable",
      "type": "function"
    },
    {
      "inputs": [
        {
          "internalType": "address",
          "name": "delegatee",
          "type": "address"
        }
      ],
      "name": "delegate",
      "outputs": [],
      "stateMutability": "nonpayable",
      "type": "function"
    },
    {
      "inputs": [
        {
          "internalType": "address",
          "name": "delegatee",
          "type": "address"
        },
        {
          "internalType": "uint256",
          "name": "nonce",
          "type": "uint256"
        },
        {
          "internalType": "uint256",
          "name": "expiry",
          "type": "uint256"
        },
        {
          "internalType": "uint8",
          "name": "v",
          "type": "uint8"
        },
        {
          "internalType": "bytes32",
          "name": "r",
          "type": "bytes32"
        },
        {
          "internalType": "bytes32",
          "name": "s",
          "type": "bytes32"
        }
      ],
      "name": "delegateBySig",
      "outputs": [],
      "stateMutability": "nonpayable",
      "type": "function"
    },
    {
      "inputs": [
        {
          "internalType": "address",
          "name": "account",
          "type": "address"
        }
      ],
      "name": "getCurrentVotes",
      "outputs": [
        {
          "internalType": "uint256",
          "name": "",
          "type": "uint256"
        }
      ],
      "stateMutability": "view",
      "type": "function",
      "constant": true
    },
    {
      "inputs": [
        {
          "internalType": "address",
          "name": "account",
          "type": "address"
        },
        {
          "internalType": "uint256",
          "name": "blockNumber",
          "type": "uint256"
        }
      ],
      "name": "getPriorVotes",
      "outputs": [
        {
          "internalType": "uint256",
          "name": "",
          "type": "uint256"
        }
      ],
      "stateMutability": "view",
      "type": "function",
      "constant": true
    },
    {
      "inputs": [
        {
          "internalType": "address",
          "name": "spender",
          "type": "address"
        },
        {
          "internalType": "uint256",
          "name": "addedValue",
          "type": "uint256"
        }
      ],
      "name": "increaseAllowance",
      "outputs": [
        {
          "internalType": "bool",
          "name": "",
          "type": "bool"
        }
      ],
      "stateMutability": "nonpayable",
      "type": "function"
    },
    {
      "inputs": [],
      "name": "minter",
      "outputs": [
        {
          "internalType": "address",
          "name": "",
          "type": "address"
        }
      ],
      "stateMutability": "view",
      "type": "function",
      "constant": true
    },
    {
      "inputs": [],
      "name": "name",
      "outputs": [
        {
          "internalType": "string",
          "name": "",
          "type": "string"
        }
      ],
      "stateMutability": "view",
      "type": "function",
      "constant": true
    },
    {
      "inputs": [
        {
          "internalType": "address",
          "name": "",
          "type": "address"
        }
      ],
      "name": "nonces",
      "outputs": [
        {
          "internalType": "uint256",
          "name": "",
          "type": "uint256"
        }
      ],
      "stateMutability": "view",
      "type": "function",
      "constant": true
    },
    {
      "inputs": [
        {
          "internalType": "address",
          "name": "",
          "type": "address"
        }
      ],
      "name": "numCheckpoints",
      "outputs": [
        {
          "internalType": "uint32",
          "name": "",
          "type": "uint32"
        }
      ],
      "stateMutability": "view",
      "type": "function",
      "constant": true
    },
    {
      "inputs": [],
      "name": "owner",
      "outputs": [
        {
          "internalType": "address",
          "name": "",
          "type": "address"
        }
      ],
      "stateMutability": "view",
      "type": "function",
      "constant": true
    },
    {
      "inputs": [],
      "name": "renounceOwnership",
      "outputs": [],
      "stateMutability": "nonpayable",
      "type": "function"
    },
    {
      "inputs": [],
      "name": "symbol",
      "outputs": [
        {
          "internalType": "string",
          "name": "",
          "type": "string"
        }
      ],
      "stateMutability": "view",
      "type": "function",
      "constant": true
    },
    {
      "inputs": [],
      "name": "totalSupply",
      "outputs": [
        {
          "internalType": "uint256",
          "name": "",
          "type": "uint256"
        }
      ],
      "stateMutability": "view",
      "type": "function",
      "constant": true
    },
    {
      "inputs": [
        {
          "internalType": "address",
          "name": "recipient",
          "type": "address"
        },
        {
          "internalType": "uint256",
          "name": "amount",
          "type": "uint256"
        }
      ],
      "name": "transfer",
      "outputs": [
        {
          "internalType": "bool",
          "name": "",
          "type": "bool"
        }
      ],
      "stateMutability": "nonpayable",
      "type": "function"
    },
    {
      "inputs": [
        {
          "internalType": "address",
          "name": "sender",
          "type": "address"
        },
        {
          "internalType": "address",
          "name": "recipient",
          "type": "address"
        },
        {
          "internalType": "uint256",
          "name": "amount",
          "type": "uint256"
        }
      ],
      "name": "transferFrom",
      "outputs": [
        {
          "internalType": "bool",
          "name": "",
          "type": "bool"
        }
      ],
      "stateMutability": "nonpayable",
      "type": "function"
    },
    {
      "inputs": [
        {
          "internalType": "address",
          "name": "newOwner",
          "type": "address"
        }
      ],
      "name": "transferOwnership",
      "outputs": [],
      "stateMutability": "nonpayable",
      "type": "function"
    },
    {
      "inputs": [
        {
          "internalType": "address",
          "name": "_to",
          "type": "address"
        },
        {
          "internalType": "uint256",
          "name": "_amount",
          "type": "uint256"
        }
      ],
      "name": "mint",
      "outputs": [],
      "stateMutability": "nonpayable",
      "type": "function"
    }
  ],
  "bytecode": "0x608060405269d3c21bcecceda1000000600c553480156200001f57600080fd5b5060405162002a3638038062002a36833981810160405260608110156200004557600080fd5b815160208301516040808501805191519395929483019291846401000000008211156200007157600080fd5b9083019060208201858111156200008757600080fd5b8251866020820283011164010000000082111715620000a557600080fd5b82525081516020918201928201910280838360005b83811015620000d4578181015183820152602001620000ba565b505050509050016040525050506040518060400160405280600d81526020016c2129ba30b13632902a37b5b2b760991b815250604051806040016040528060038152602001621094d560ea1b81525081600390805190602001906200013b92919062000a1b565b5080516200015190600490602084019062000a1b565b50506005805460ff19166012179055506000620001766001600160e01b036200033016565b600a80546001600160a01b0319166001600160a01b0383169081179091556040519192509060009060008051602062002a16833981519152908290a3508051600a146200020a576040805162461bcd60e51b815260206004820152601d60248201527f6f6e6c79206861766520313020696e766573746f722061646472657373000000604482015290519081900360640190fd5b816001600160a01b0316836001600160a01b0316141562000272576040805162461bcd60e51b815260206004820181905260248201527f425354546f6b656e3a206f776e65722063616e2774206265206d696e7465722e604482015290519081900360640190fd5b6001600160a01b038216620002b95760405162461bcd60e51b8152600401808060200182810382526024815260200180620029b56024913960400191505060405180910390fd5b620002cd836001600160e01b036200033516565b600b80546001600160a01b0319166001600160a01b03841617905560005b600a81101562000326576200031d8282815181106200030657fe5b6020026020010151600c546200045260201b60201c565b600101620002eb565b5050505062000abd565b335b90565b620003486001600160e01b036200033016565b6001600160a01b0316620003646001600160e01b036200049d16565b6001600160a01b031614620003c0576040805162461bcd60e51b815260206004820181905260248201527f4f776e61626c653a2063616c6c6572206973206e6f7420746865206f776e6572604482015290519081900360640190fd5b6001600160a01b038116620004075760405162461bcd60e51b81526004018080602001828103825260268152602001806200298f6026913960400191505060405180910390fd5b600a546040516001600160a01b0380841692169060008051602062002a1683398151915290600090a3600a80546001600160a01b0319166001600160a01b0392909216919091179055565b620004698282620004ac60201b620018581760201c565b6001600160a01b03808316600090815260066020526040812054620004999216836001600160e01b03620005c416565b5050565b600a546001600160a01b031690565b6001600160a01b03821662000508576040805162461bcd60e51b815260206004820152601f60248201527f42455032303a206d696e7420746f20746865207a65726f206164647265737300604482015290519081900360640190fd5b6200051f600083836001600160e01b036200074316565b6200053b816002546200074860201b620013611790919060201c565b6002556001600160a01b038216600090815260208181526040909120546200056e9183906200136162000748821b17901c565b6001600160a01b0383166000818152602081815260408083209490945583518581529351929391927fddf252ad1be2c89b69c2b068fc378daa952ba7f163c4a11628f55a4df523b3ef9281900390910190a35050565b816001600160a01b0316836001600160a01b031614158015620005e75750600081115b1562000743576001600160a01b0383161562000698576001600160a01b03831660009081526008602052604081205463ffffffff1690816200062b5760006200065d565b6001600160a01b038516600090815260076020908152604080832063ffffffff60001987011684529091529020600101545b905060006200067b8483620007aa60201b620019541790919060201c565b905062000694868484846001600160e01b036200080816565b5050505b6001600160a01b0382161562000743576001600160a01b03821660009081526008602052604081205463ffffffff169081620006d657600062000708565b6001600160a01b038416600090815260076020908152604080832063ffffffff60001987011684529091529020600101545b905060006200072684836200074860201b620013611790919060201c565b90506200073f858484846001600160e01b036200080816565b5050505b505050565b600082820183811015620007a3576040805162461bcd60e51b815260206004820152601b60248201527f536166654d6174683a206164646974696f6e206f766572666c6f770000000000604482015290519081900360640190fd5b9392505050565b60008282111562000802576040805162461bcd60e51b815260206004820152601e60248201527f536166654d6174683a207375627472616374696f6e206f766572666c6f770000604482015290519081900360640190fd5b50900390565b600062000838436040518060600160405280603d8152602001620029d9603d91396001600160e01b036200097c16565b905060008463ffffffff161180156200088257506001600160a01b038516600090815260076020908152604080832063ffffffff6000198901811685529252909120548282169116145b15620008c1576001600160a01b038516600090815260076020908152604080832063ffffffff6000198901168452909152902060010182905562000932565b60408051808201825263ffffffff808416825260208083018681526001600160a01b038a166000818152600784528681208b8616825284528681209551865490861663ffffffff19918216178755925160019687015590815260089092529390208054928801909116919092161790555b604080518481526020810184905281516001600160a01b038816927fdec2bacdd2f05b59de34da9b523dff8be42e5e38e818c82fdb0bae774387a724928290030190a25050505050565b600081640100000000841062000a135760405162461bcd60e51b81526004018080602001828103825283818151815260200191508051906020019080838360005b83811015620009d7578181015183820152602001620009bd565b50505050905090810190601f16801562000a055780820380516001836020036101000a031916815260200191505b509250505060405180910390fd5b509192915050565b828054600181600116156101000203166002900490600052602060002090601f016020900481019282601f1062000a5e57805160ff191683800117855562000a8e565b8280016001018555821562000a8e579182015b8281111562000a8e57825182559160200191906001019062000a71565b5062000a9c92915062000aa0565b5090565b6200033291905b8082111562000a9c576000815560010162000aa7565b611ec28062000acd6000396000f3fe608060405234801561001057600080fd5b50600436106101c45760003560e01c8063782d6fe1116100f9578063b4b5ea5711610097578063dd62ed3e11610071578063dd62ed3e14610585578063e7a324dc146105b3578063f1127ed8146105bb578063f2fde38b1461060d576101c4565b8063b4b5ea5714610510578063c3cda52014610536578063d6b9a5971461057d576101c4565b80638da5cb5b116100d35780638da5cb5b146104a857806395d89b41146104b0578063a457c2d7146104b8578063a9059cbb146104e4576101c4565b8063782d6fe11461042a57806379cc6790146104565780637ecebe0014610482576101c4565b806339509351116101665780635c19a95c116101405780635c19a95c146103975780636fcfff45146103bd57806370a08231146103fc578063715018a614610422576101c4565b8063395093511461032057806340c10f191461034c57806342966c681461037a576101c4565b806318160ddd116101a257806318160ddd146102aa57806320606b70146102c457806323b872dd146102cc578063313ce56714610302576101c4565b806306fdde03146101c95780630754617214610246578063095ea7b31461026a575b600080fd5b6101d1610633565b6040805160208082528351818301528351919283929083019185019080838360005b8381101561020b5781810151838201526020016101f3565b50505050905090810190601f1680156102385780820380516001836020036101000a031916815260200191505b509250505060405180910390f35b61024e6106c9565b604080516001600160a01b039092168252519081900360200190f35b6102966004803603604081101561028057600080fd5b506001600160a01b0381351690602001356106d8565b604080519115158252519081900360200190f35b6102b26106f6565b60408051918252519081900360200190f35b6102b26106fc565b610296600480360360608110156102e257600080fd5b506001600160a01b03813581169160208101359091169060400135610717565b61030a6107a4565b6040805160ff9092168252519081900360200190f35b6102966004803603604081101561033657600080fd5b506001600160a01b0381351690602001356107ad565b6103786004803603604081101561036257600080fd5b506001600160a01b038135169060200135610801565b005b6103786004803603602081101561039057600080fd5b50356108ba565b610378600480360360208110156103ad57600080fd5b50356001600160a01b03166108ce565b6103e3600480360360208110156103d357600080fd5b50356001600160a01b03166108d8565b6040805163ffffffff9092168252519081900360200190f35b6102b26004803603602081101561041257600080fd5b50356001600160a01b03166108f0565b61037861090b565b6102b26004803603604081101561044057600080fd5b506001600160a01b0381351690602001356109c9565b6103786004803603604081101561046c57600080fd5b506001600160a01b038135169060200135610bd1565b6102b26004803603602081101561049857600080fd5b50356001600160a01b0316610c31565b61024e610c43565b6101d1610c52565b610296600480360360408110156104ce57600080fd5b506001600160a01b038135169060200135610cb3565b610296600480360360408110156104fa57600080fd5b506001600160a01b038135169060200135610d21565b6102b26004803603602081101561052657600080fd5b50356001600160a01b0316610d35565b610378600480360360c081101561054c57600080fd5b506001600160a01b038135169060208101359060408101359060ff6060820135169060808101359060a00135610d99565b6102b261100f565b6102b26004803603604081101561059b57600080fd5b506001600160a01b0381358116916020013516611015565b6102b2611040565b6105ed600480360360408110156105d157600080fd5b5080356001600160a01b0316906020013563ffffffff1661105b565b6040805163ffffffff909316835260208301919091528051918290030190f35b6103786004803603602081101561062357600080fd5b50356001600160a01b0316611088565b60038054604080516020601f60026000196101006001881615020190951694909404938401819004810282018101909252828152606093909290918301828280156106bf5780601f10610694576101008083540402835291602001916106bf565b820191906000526020600020905b8154815290600101906020018083116106a257829003601f168201915b5050505050905090565b600b546001600160a01b031681565b60006106ec6106e561119d565b84846111a1565b5060015b92915050565b60025490565b604051806043611d1982396043019050604051809103902081565b600061072484848461128d565b61079a8461073061119d565b61079585604051806060016040528060288152602001611c5a602891396001600160a01b038a1660009081526001602052604081209061076e61119d565b6001600160a01b03168152602081019190915260400160002054919063ffffffff6112ca16565b6111a1565b5060019392505050565b60055460ff1690565b60006106ec6107ba61119d565b8461079585600160006107cb61119d565b6001600160a01b03908116825260208083019390935260409182016000908120918c16815292529020549063ffffffff61136116565b600b546001600160a01b03163314610858576040805162461bcd60e51b81526020600482015260156024820152742129aa2a37b5b2b71d37b7363c9036b4b73a32b91760591b604482015290519081900360640190fd5b6001600160a01b0382166108ac576040805162461bcd60e51b8152602060048201526016602482015275425354546f6b656e3a206e6f2030206164647265737360501b604482015290519081900360640190fd5b6108b682826113bb565b5050565b6108cb6108c561119d565b826113ea565b50565b6108cb33826114f2565b60086020526000908152604090205463ffffffff1681565b6001600160a01b031660009081526020819052604090205490565b61091361119d565b6001600160a01b0316610924610c43565b6001600160a01b03161461097f576040805162461bcd60e51b815260206004820181905260248201527f4f776e61626c653a2063616c6c6572206973206e6f7420746865206f776e6572604482015290519081900360640190fd5b600a546040516000916001600160a01b0316907f8be0079c531659141344cd1fd0a4f28419497f9722a3daafe3b4186f6b6457e0908390a3600a80546001600160a01b0319169055565b6000438210610a095760405162461bcd60e51b8152600401808060200182810382526030815260200180611c2a6030913960400191505060405180910390fd5b6001600160a01b03831660009081526008602052604090205463ffffffff1680610a375760009150506106f0565b6001600160a01b038416600090815260076020908152604080832063ffffffff600019860181168552925290912054168310610aa6576001600160a01b03841660009081526007602090815260408083206000199490940163ffffffff168352929052206001015490506106f0565b6001600160a01b038416600090815260076020908152604080832083805290915290205463ffffffff16831015610ae15760009150506106f0565b600060001982015b8163ffffffff168163ffffffff161115610b9a57600282820363ffffffff16048103610b13611b74565b506001600160a01b038716600090815260076020908152604080832063ffffffff808616855290835292819020815180830190925280549093168082526001909301549181019190915290871415610b75576020015194506106f09350505050565b805163ffffffff16871115610b8c57819350610b93565b6001820392505b5050610ae9565b506001600160a01b038516600090815260076020908152604080832063ffffffff9094168352929052206001015491505092915050565b6000610c0e82604051806060016040528060248152602001611e4760249139610c0186610bfc61119d565b611015565b919063ffffffff6112ca16565b9050610c2283610c1c61119d565b836111a1565b610c2c83836113ea565b505050565b60096020526000908152604090205481565b600a546001600160a01b031690565b60048054604080516020601f60026000196101006001881615020190951694909404938401819004810282018101909252828152606093909290918301828280156106bf5780601f10610694576101008083540402835291602001916106bf565b60006106ec610cc061119d565b8461079585604051806060016040528060258152602001611da56025913960016000610cea61119d565b6001600160a01b03908116825260208083019390935260409182016000908120918d1681529252902054919063ffffffff6112ca16565b60006106ec610d2e61119d565b848461128d565b6001600160a01b03811660009081526008602052604081205463ffffffff1680610d60576000610d92565b6001600160a01b038316600090815260076020908152604080832063ffffffff60001986011684529091529020600101545b9392505050565b60006040518080611d196043913960430190506040518091039020610dbc610633565b80519060200120610dcb6115a4565b3060405160200180858152602001848152602001838152602001826001600160a01b03166001600160a01b0316815260200194505050505060405160208183030381529060405280519060200120905060006040518080611e0d603a91396040805191829003603a0182206020808401919091526001600160a01b038c1683830152606083018b905260808084018b90528251808503909101815260a08401835280519082012061190160f01b60c085015260c2840187905260e2808501829052835180860390910181526101028501808552815191840191909120600091829052610122860180865281905260ff8c1661014287015261016286018b905261018286018a9052935191965092945091926001926101a28083019392601f198301929081900390910190855afa158015610f09573d6000803e3d6000fd5b5050604051601f1901519150506001600160a01b038116610f5b5760405162461bcd60e51b815260040180806020018281038252602f815260200180611bfb602f913960400191505060405180910390fd5b6001600160a01b03811660009081526009602052604090208054600181019091558914610fb95760405162461bcd60e51b815260040180806020018281038252602b815260200180611cee602b913960400191505060405180910390fd5b87421115610ff85760405162461bcd60e51b815260040180806020018281038252602f815260200180611c82602f913960400191505060405180910390fd5b611002818b6114f2565b505050505b505050505050565b600c5481565b6001600160a01b03918216600090815260016020908152604080832093909416825291909152205490565b60405180603a611e0d8239603a019050604051809103902081565b60076020908152600092835260408084209091529082529020805460019091015463ffffffff9091169082565b61109061119d565b6001600160a01b03166110a1610c43565b6001600160a01b0316146110fc576040805162461bcd60e51b815260206004820181905260248201527f4f776e61626c653a2063616c6c6572206973206e6f7420746865206f776e6572604482015290519081900360640190fd5b6001600160a01b0381166111415760405162461bcd60e51b8152600401808060200182810382526026815260200180611bd56026913960400191505060405180910390fd5b600a546040516001600160a01b038084169216907f8be0079c531659141344cd1fd0a4f28419497f9722a3daafe3b4186f6b6457e090600090a3600a80546001600160a01b0319166001600160a01b0392909216919091179055565b3390565b6001600160a01b0383166111e65760405162461bcd60e51b8152600401808060200182810382526024815260200180611bb16024913960400191505060405180910390fd5b6001600160a01b03821661122b5760405162461bcd60e51b8152600401808060200182810382526022815260200180611e6b6022913960400191505060405180910390fd5b6001600160a01b03808416600081815260016020908152604080832094871680845294825291829020859055815185815291517f8c5be1e5ebec7d5bd14f71427d1e84f3dd0314c0f7b2291e5b200ac8c7c3b9259281900390910190a3505050565b6112988383836115a8565b6001600160a01b03808416600090815260066020526040808220548584168352912054610c2c9291821691168361170f565b600081848411156113595760405162461bcd60e51b81526004018080602001828103825283818151815260200191508051906020019080838360005b8381101561131e578181015183820152602001611306565b50505050905090810190601f16801561134b5780820380516001836020036101000a031916815260200191505b509250505060405180910390fd5b505050900390565b600082820183811015610d92576040805162461bcd60e51b815260206004820152601b60248201527f536166654d6174683a206164646974696f6e206f766572666c6f770000000000604482015290519081900360640190fd5b6113c58282611858565b6001600160a01b038083166000908152600660205260408120546108b692168361170f565b6001600160a01b03821661142f5760405162461bcd60e51b8152600401808060200182810382526021815260200180611dca6021913960400191505060405180910390fd5b61143b82600083610c2c565b61147e81604051806060016040528060228152602001611deb602291396001600160a01b038516600090815260208190526040902054919063ffffffff6112ca16565b6001600160a01b0383166000908152602081905260409020556002546114aa908263ffffffff61195416565b6002556040805182815290516000916001600160a01b038516917fddf252ad1be2c89b69c2b068fc378daa952ba7f163c4a11628f55a4df523b3ef9181900360200190a35050565b6001600160a01b0380831660009081526006602052604081205490911690611519846108f0565b6001600160a01b03858116600090815260066020526040902080546001600160a01b031916918616919091179055905061155482848361170f565b826001600160a01b0316826001600160a01b0316856001600160a01b03167f3134e8a2e6d97e929a7e54011ea5485d7d196dd5f0ba4d4ef95803e8e3fc257f60405160405180910390a450505050565b4690565b6001600160a01b0383166115ed5760405162461bcd60e51b8152600401808060200182810382526025815260200180611b8c6025913960400191505060405180910390fd5b6001600160a01b0382166116325760405162461bcd60e51b8152600401808060200182810382526023815260200180611d826023913960400191505060405180910390fd5b61163d838383610c2c565b61168081604051806060016040528060268152602001611d5c602691396001600160a01b038616600090815260208190526040902054919063ffffffff6112ca16565b6001600160a01b0380851660009081526020819052604080822093909355908416815220546116b5908263ffffffff61136116565b6001600160a01b038084166000818152602081815260409182902094909455805185815290519193928716927fddf252ad1be2c89b69c2b068fc378daa952ba7f163c4a11628f55a4df523b3ef92918290030190a3505050565b816001600160a01b0316836001600160a01b0316141580156117315750600081115b15610c2c576001600160a01b038316156117c9576001600160a01b03831660009081526008602052604081205463ffffffff1690816117715760006117a3565b6001600160a01b038516600090815260076020908152604080832063ffffffff60001987011684529091529020600101545b905060006117b7828563ffffffff61195416565b90506117c5868484846119b1565b5050505b6001600160a01b03821615610c2c576001600160a01b03821660009081526008602052604081205463ffffffff169081611804576000611836565b6001600160a01b038416600090815260076020908152604080832063ffffffff60001987011684529091529020600101545b9050600061184a828563ffffffff61136116565b9050611007858484846119b1565b6001600160a01b0382166118b3576040805162461bcd60e51b815260206004820152601f60248201527f42455032303a206d696e7420746f20746865207a65726f206164647265737300604482015290519081900360640190fd5b6118bf60008383610c2c565b6002546118d2908263ffffffff61136116565b6002556001600160a01b0382166000908152602081905260409020546118fe908263ffffffff61136116565b6001600160a01b0383166000818152602081815260408083209490945583518581529351929391927fddf252ad1be2c89b69c2b068fc378daa952ba7f163c4a11628f55a4df523b3ef9281900390910190a35050565b6000828211156119ab576040805162461bcd60e51b815260206004820152601e60248201527f536166654d6174683a207375627472616374696f6e206f766572666c6f770000604482015290519081900360640190fd5b50900390565b60006119d5436040518060600160405280603d8152602001611cb1603d9139611b16565b905060008463ffffffff16118015611a1e57506001600160a01b038516600090815260076020908152604080832063ffffffff6000198901811685529252909120548282169116145b15611a5b576001600160a01b038516600090815260076020908152604080832063ffffffff60001989011684529091529020600101829055611acc565b60408051808201825263ffffffff808416825260208083018681526001600160a01b038a166000818152600784528681208b8616825284528681209551865490861663ffffffff19918216178755925160019687015590815260089092529390208054928801909116919092161790555b604080518481526020810184905281516001600160a01b038816927fdec2bacdd2f05b59de34da9b523dff8be42e5e38e818c82fdb0bae774387a724928290030190a25050505050565b6000816401000000008410611b6c5760405162461bcd60e51b815260206004820181815283516024840152835190928392604490910191908501908083836000831561131e578181015183820152602001611306565b509192915050565b60408051808201909152600080825260208201529056fe42455032303a207472616e736665722066726f6d20746865207a65726f206164647265737342455032303a20617070726f76652066726f6d20746865207a65726f20616464726573734f776e61626c653a206e6577206f776e657220697320746865207a65726f206164647265737344656c6567617465546f6b656e3a3a64656c656761746542795369673a20696e76616c6964207369676e617475726544656c6567617465546f6b656e3a3a6765745072696f72566f7465733a206e6f74207965742064657465726d696e656442455032303a207472616e7366657220616d6f756e74206578636565647320616c6c6f77616e636544656c6567617465546f6b656e3a3a64656c656761746542795369673a207369676e6174757265206578706972656444656c6567617465546f6b656e3a3a5f7772697465436865636b706f696e743a20626c6f636b206e756d6265722065786365656473203332206269747344656c6567617465546f6b656e3a3a64656c656761746542795369673a20696e76616c6964206e6f6e6365454950373132446f6d61696e28737472696e67206e616d652c75696e7432353620636861696e49642c6164647265737320766572696679696e67436f6e74726163742942455032303a207472616e7366657220616d6f756e7420657863656564732062616c616e636542455032303a207472616e7366657220746f20746865207a65726f206164647265737342455032303a2064656372656173656420616c6c6f77616e63652062656c6f77207a65726f42455032303a206275726e2066726f6d20746865207a65726f206164647265737342455032303a206275726e20616d6f756e7420657863656564732062616c616e636544656c65676174696f6e28616464726573732064656c6567617465652c75696e74323536206e6f6e63652c75696e74323536206578706972792942455032303a206275726e20616d6f756e74206578636565647320616c6c6f77616e636542455032303a20617070726f766520746f20746865207a65726f2061646472657373a2646970667358221220688a399b3100a7aeda5a4f1684062c5ff05e11eace8ab72db47d9d166742894864736f6c634300060600334f776e61626c653a206e6577206f776e657220697320746865207a65726f2061646472657373425354546f6b656e3a206d696e7465725f2063616e27742062652030206164647265737344656c6567617465546f6b656e3a3a5f7772697465436865636b706f696e743a20626c6f636b206e756d626572206578636565647320333220626974738be0079c531659141344cd1fd0a4f28419497f9722a3daafe3b4186f6b6457e0",
  "immutableReferences": {},
  "source": "// SPDX-License-Identifier: MIT\n\npragma solidity ^0.6.0;\n\nimport \"./DelegateBEP20.sol\";\nimport \"@openzeppelin/contracts/access/Ownable.sol\";\n\n/// @title BSTToken with Governance.\ncontract BSTToken is DelegateBEP20, Ownable {\n    address public minter;\n\n    uint256 public TOKENS_PER_INVESTOR = 1_000_000 ether;\n\n    constructor(\n        address owner_,\n        address minter_,\n        address[] memory investors\n    ) public BEP20(\"BStable Token\", \"BST\") {\n        require(investors.length == 10, \"only have 10 investor address\");\n        require(owner_ != minter_, \"BSTToken: owner can't be minter.\");\n        require(minter_ != address(0), \"BSTToken: minter_ can't be 0 address\");\n        transferOwnership(owner_);\n        minter = minter_;\n        for (uint256 i = 0; i < 10; i++) {\n            _mint(investors[i], TOKENS_PER_INVESTOR);\n        }\n    }\n\n    /// @notice Creates `_amount` token to `_to`.\n    function mint(address _to, uint256 _amount) public {\n        require(msg.sender == minter, \"BSTToken:only minter.\");\n        require(_to != address(0), \"BSTToken: no 0 address\");\n        _mint(_to, _amount);\n    }\n}\n",
  "sourcePath": "/Users/zhangleping/github.com/0xa8c81519/contracts-210510/contracts/BSTToken.sol",
  "compiler": {
    "name": "solc",
    "version": "0.6.6+commit.6c089d02.Emscripten.clang"
  },
  "schemaVersion": "3.4.1",
  "updatedAt": "2021-06-12T09:01:57.181Z",
  "networkType": "ethereum",
  "devdoc": {
    "methods": {
      "allowance(address,address)": {
        "details": "See {IBEP20-allowance}."
      },
      "approve(address,uint256)": {
        "details": "See {IBEP20-approve}.     * Requirements:     * - `spender` cannot be the zero address."
      },
      "balanceOf(address)": {
        "details": "See {IBEP20-balanceOf}."
      },
      "burn(uint256)": {
        "details": "Destroys `amount` tokens from the caller.     * See {BEP20-_burn}."
      },
      "burnFrom(address,uint256)": {
        "details": "Destroys `amount` tokens from `account`, deducting from the caller's allowance.     * See {BEP20-_burn} and {BEP20-allowance}.     * Requirements:     * - the caller must have allowance for ``accounts``'s tokens of at least `amount`."
      },
      "decimals()": {
        "details": "Returns the number of decimals used to get its user representation. For example, if `decimals` equals `2`, a balance of `505` tokens should be displayed to a user as `5,05` (`505 / 10 ** 2`).     * Tokens usually opt for a value of 18, imitating the relationship between Ether and Wei. This is the value {BEP20} uses, unless {_setupDecimals} is called.     * NOTE: This information is only used for _display_ purposes: it in no way affects any of the arithmetic of the contract, including {IBEP20-balanceOf} and {IBEP20-transfer}."
      },
      "decreaseAllowance(address,uint256)": {
        "details": "Atomically decreases the allowance granted to `spender` by the caller.     * This is an alternative to {approve} that can be used as a mitigation for problems described in {IBEP20-approve}.     * Emits an {Approval} event indicating the updated allowance.     * Requirements:     * - `spender` cannot be the zero address. - `spender` must have allowance for the caller of at least `subtractedValue`."
      },
      "delegate(address)": {
        "params": {
          "delegatee": "The address to delegate votes to"
        }
      },
      "delegateBySig(address,uint256,uint256,uint8,bytes32,bytes32)": {
        "params": {
          "delegatee": "The address to delegate votes to",
          "expiry": "The time at which to expire the signature",
          "nonce": "The contract state required to match the signature",
          "r": "Half of the ECDSA signature pair",
          "s": "Half of the ECDSA signature pair",
          "v": "The recovery byte of the signature"
        }
      },
      "getCurrentVotes(address)": {
        "params": {
          "account": "The address to get votes balance"
        },
        "returns": {
          "_0": "The number of current votes for `account`"
        }
      },
      "getPriorVotes(address,uint256)": {
        "details": "Block number must be a finalized block or else this function will revert to prevent misinformation.",
        "params": {
          "account": "The address of the account to check",
          "blockNumber": "The block number to get the vote balance at"
        },
        "returns": {
          "_0": "The number of votes the account had as of the given block"
        }
      },
      "increaseAllowance(address,uint256)": {
        "details": "Atomically increases the allowance granted to `spender` by the caller.     * This is an alternative to {approve} that can be used as a mitigation for problems described in {IBEP20-approve}.     * Emits an {Approval} event indicating the updated allowance.     * Requirements:     * - `spender` cannot be the zero address."
      },
      "name()": {
        "details": "Returns the name of the token."
      },
      "owner()": {
        "details": "Returns the address of the current owner."
      },
      "renounceOwnership()": {
        "details": "Leaves the contract without owner. It will not be possible to call `onlyOwner` functions anymore. Can only be called by the current owner.     * NOTE: Renouncing ownership will leave the contract without an owner, thereby removing any functionality that is only available to the owner."
      },
      "symbol()": {
        "details": "Returns the symbol of the token, usually a shorter version of the name."
      },
      "totalSupply()": {
        "details": "See {IBEP20-totalSupply}."
      },
      "transfer(address,uint256)": {
        "details": "See {IBEP20-transfer}.     * Requirements:     * - `recipient` cannot be the zero address. - the caller must have a balance of at least `amount`."
      },
      "transferFrom(address,address,uint256)": {
        "details": "See {IBEP20-transferFrom}.     * Emits an {Approval} event indicating the updated allowance. This is not required by the EIP. See the note at the beginning of {BEP20};     * Requirements: - `sender` and `recipient` cannot be the zero address. - `sender` must have a balance of at least `amount`. - the caller must have allowance for ``sender``'s tokens of at least `amount`."
      },
      "transferOwnership(address)": {
        "details": "Transfers ownership of the contract to a new account (`newOwner`). Can only be called by the current owner."
      }
    },
    "title": "BSTToken with Governance."
  },
  "userdoc": {
    "methods": {
      "delegate(address)": {
        "notice": "Delegate votes from `msg.sender` to `delegatee`"
      },
      "delegateBySig(address,uint256,uint256,uint8,bytes32,bytes32)": {
        "notice": "Delegates votes from signatory to `delegatee`"
      },
      "getCurrentVotes(address)": {
        "notice": "Gets the current votes balance for `account`"
      },
      "getPriorVotes(address,uint256)": {
        "notice": "Determine the prior number of votes for an account as of a block number"
      },
      "mint(address,uint256)": {
        "notice": "Creates `_amount` token to `_to`."
      }
    }
  }
}