{
  "contractName": "LiquidityFarmingProxy",
  "abi": [
    {
      "inputs": [
        {
          "internalType": "address",
          "name": "ownerAddress",
          "type": "address"
        }
      ],
      "stateMutability": "nonpayable",
      "type": "constructor"
    },
    {
      "anonymous": false,
      "inputs": [
        {
          "indexed": false,
          "internalType": "address",
          "name": "_poolAddress",
          "type": "address"
        }
      ],
      "name": "AddPool",
      "type": "event"
    },
    {
      "anonymous": false,
      "inputs": [
        {
          "indexed": false,
          "internalType": "uint256",
          "name": "_pid",
          "type": "uint256"
        },
        {
          "indexed": false,
          "internalType": "uint256",
          "name": "_amount",
          "type": "uint256"
        },
        {
          "indexed": false,
          "internalType": "uint256",
          "name": "rewardDebt",
          "type": "uint256"
        },
        {
          "indexed": false,
          "internalType": "uint256",
          "name": "accTokenPerShare",
          "type": "uint256"
        },
        {
          "indexed": false,
          "internalType": "uint256",
          "name": "pending",
          "type": "uint256"
        }
      ],
      "name": "CalculatePending",
      "type": "event"
    },
    {
      "anonymous": false,
      "inputs": [
        {
          "indexed": true,
          "internalType": "address",
          "name": "user",
          "type": "address"
        },
        {
          "indexed": true,
          "internalType": "uint256",
          "name": "pid",
          "type": "uint256"
        },
        {
          "indexed": false,
          "internalType": "uint256",
          "name": "amount",
          "type": "uint256"
        }
      ],
      "name": "Deposit",
      "type": "event"
    },
    {
      "anonymous": false,
      "inputs": [
        {
          "indexed": true,
          "internalType": "address",
          "name": "user",
          "type": "address"
        },
        {
          "indexed": true,
          "internalType": "uint256",
          "name": "pid",
          "type": "uint256"
        },
        {
          "indexed": false,
          "internalType": "uint256",
          "name": "amount",
          "type": "uint256"
        }
      ],
      "name": "EmergencyWithdraw",
      "type": "event"
    },
    {
      "anonymous": false,
      "inputs": [
        {
          "indexed": true,
          "internalType": "address",
          "name": "previousOwner",
          "type": "address"
        },
        {
          "indexed": true,
          "internalType": "address",
          "name": "newOwner",
          "type": "address"
        }
      ],
      "name": "OwnershipTransferred",
      "type": "event"
    },
    {
      "anonymous": false,
      "inputs": [
        {
          "indexed": false,
          "internalType": "address",
          "name": "_minter",
          "type": "address"
        }
      ],
      "name": "SetMinter",
      "type": "event"
    },
    {
      "anonymous": false,
      "inputs": [
        {
          "indexed": false,
          "internalType": "uint256",
          "name": "_pid",
          "type": "uint256"
        }
      ],
      "name": "SetPool",
      "type": "event"
    },
    {
      "anonymous": false,
      "inputs": [
        {
          "indexed": false,
          "internalType": "address",
          "name": "_token",
          "type": "address"
        }
      ],
      "name": "SetToken",
      "type": "event"
    },
    {
      "anonymous": false,
      "inputs": [
        {
          "indexed": false,
          "internalType": "uint256",
          "name": "_pid",
          "type": "uint256"
        },
        {
          "indexed": false,
          "internalType": "uint256",
          "name": "accTokenPerShare",
          "type": "uint256"
        },
        {
          "indexed": false,
          "internalType": "uint256",
          "name": "_tokenReward",
          "type": "uint256"
        }
      ],
      "name": "UpdatePool",
      "type": "event"
    },
    {
      "anonymous": false,
      "inputs": [
        {
          "indexed": true,
          "internalType": "address",
          "name": "user",
          "type": "address"
        },
        {
          "indexed": true,
          "internalType": "uint256",
          "name": "pid",
          "type": "uint256"
        },
        {
          "indexed": false,
          "internalType": "uint256",
          "name": "amount",
          "type": "uint256"
        }
      ],
      "name": "Withdraw",
      "type": "event"
    },
    {
      "anonymous": false,
      "inputs": [
        {
          "indexed": false,
          "internalType": "uint256",
          "name": "_pid",
          "type": "uint256"
        },
        {
          "indexed": false,
          "internalType": "uint256",
          "name": "_lastRewardBlock",
          "type": "uint256"
        },
        {
          "indexed": false,
          "internalType": "uint256",
          "name": "blockNumber",
          "type": "uint256"
        }
      ],
      "name": "ZeroLPStaking",
      "type": "event"
    },
    {
      "inputs": [],
      "name": "bstMinter",
      "outputs": [
        {
          "internalType": "contract IBSTMinter",
          "name": "",
          "type": "address"
        }
      ],
      "stateMutability": "view",
      "type": "function",
      "constant": true
    },
    {
      "inputs": [
        {
          "internalType": "address",
          "name": "",
          "type": "address"
        }
      ],
      "name": "lpTokens",
      "outputs": [
        {
          "internalType": "bool",
          "name": "",
          "type": "bool"
        }
      ],
      "stateMutability": "view",
      "type": "function",
      "constant": true
    },
    {
      "inputs": [],
      "name": "name",
      "outputs": [
        {
          "internalType": "string",
          "name": "",
          "type": "string"
        }
      ],
      "stateMutability": "view",
      "type": "function",
      "constant": true
    },
    {
      "inputs": [],
      "name": "owner",
      "outputs": [
        {
          "internalType": "address",
          "name": "",
          "type": "address"
        }
      ],
      "stateMutability": "view",
      "type": "function",
      "constant": true
    },
    {
      "inputs": [
        {
          "internalType": "uint256",
          "name": "",
          "type": "uint256"
        }
      ],
      "name": "poolInfo",
      "outputs": [
        {
          "internalType": "contract IBEP20",
          "name": "lpToken",
          "type": "address"
        },
        {
          "internalType": "uint256",
          "name": "accTokenPerShare",
          "type": "uint256"
        }
      ],
      "stateMutability": "view",
      "type": "function",
      "constant": true
    },
    {
      "inputs": [],
      "name": "renounceOwnership",
      "outputs": [],
      "stateMutability": "nonpayable",
      "type": "function"
    },
    {
      "inputs": [],
      "name": "symbol",
      "outputs": [
        {
          "internalType": "string",
          "name": "",
          "type": "string"
        }
      ],
      "stateMutability": "view",
      "type": "function",
      "constant": true
    },
    {
      "inputs": [],
      "name": "token",
      "outputs": [
        {
          "internalType": "contract IBSTToken",
          "name": "",
          "type": "address"
        }
      ],
      "stateMutability": "view",
      "type": "function",
      "constant": true
    },
    {
      "inputs": [
        {
          "internalType": "address",
          "name": "newOwner",
          "type": "address"
        }
      ],
      "name": "transferOwnership",
      "outputs": [],
      "stateMutability": "nonpayable",
      "type": "function"
    },
    {
      "inputs": [
        {
          "internalType": "uint256",
          "name": "",
          "type": "uint256"
        },
        {
          "internalType": "address",
          "name": "",
          "type": "address"
        }
      ],
      "name": "userInfo",
      "outputs": [
        {
          "internalType": "uint256",
          "name": "amount",
          "type": "uint256"
        },
        {
          "internalType": "uint256",
          "name": "rewardDebt",
          "type": "uint256"
        }
      ],
      "stateMutability": "view",
      "type": "function",
      "constant": true
    },
    {
      "inputs": [
        {
          "internalType": "contract IBSTMinter",
          "name": "_minter",
          "type": "address"
        }
      ],
      "name": "setMinter",
      "outputs": [],
      "stateMutability": "nonpayable",
      "type": "function"
    },
    {
      "inputs": [],
      "name": "poolLength",
      "outputs": [
        {
          "internalType": "uint256",
          "name": "",
          "type": "uint256"
        }
      ],
      "stateMutability": "view",
      "type": "function",
      "constant": true
    },
    {
      "inputs": [
        {
          "internalType": "contract IBEP20",
          "name": "_lpToken",
          "type": "address"
        },
        {
          "internalType": "uint256",
          "name": "_allocPoint",
          "type": "uint256"
        },
        {
          "internalType": "bool",
          "name": "_withUpdate",
          "type": "bool"
        }
      ],
      "name": "add",
      "outputs": [],
      "stateMutability": "nonpayable",
      "type": "function"
    },
    {
      "inputs": [
        {
          "internalType": "uint256",
          "name": "_pid",
          "type": "uint256"
        },
        {
          "internalType": "uint256",
          "name": "_allocPoint",
          "type": "uint256"
        },
        {
          "internalType": "bool",
          "name": "_withUpdate",
          "type": "bool"
        }
      ],
      "name": "set",
      "outputs": [],
      "stateMutability": "nonpayable",
      "type": "function"
    },
    {
      "inputs": [
        {
          "internalType": "uint256",
          "name": "_pid",
          "type": "uint256"
        },
        {
          "internalType": "address",
          "name": "_user",
          "type": "address"
        }
      ],
      "name": "pendingReward",
      "outputs": [
        {
          "internalType": "uint256",
          "name": "",
          "type": "uint256"
        }
      ],
      "stateMutability": "view",
      "type": "function",
      "constant": true
    },
    {
      "inputs": [],
      "name": "massUpdate",
      "outputs": [],
      "stateMutability": "nonpayable",
      "type": "function"
    },
    {
      "inputs": [
        {
          "internalType": "uint256",
          "name": "_pid",
          "type": "uint256"
        },
        {
          "internalType": "uint256",
          "name": "_amount",
          "type": "uint256"
        }
      ],
      "name": "deposit",
      "outputs": [],
      "stateMutability": "nonpayable",
      "type": "function"
    },
    {
      "inputs": [
        {
          "internalType": "uint256",
          "name": "_pid",
          "type": "uint256"
        },
        {
          "internalType": "uint256",
          "name": "_amount",
          "type": "uint256"
        }
      ],
      "name": "withdraw",
      "outputs": [],
      "stateMutability": "nonpayable",
      "type": "function"
    },
    {
      "inputs": [
        {
          "internalType": "uint256",
          "name": "_pid",
          "type": "uint256"
        }
      ],
      "name": "emergencyWithdraw",
      "outputs": [],
      "stateMutability": "nonpayable",
      "type": "function"
    },
    {
      "inputs": [
        {
          "internalType": "contract IBSTToken",
          "name": "_token",
          "type": "address"
        }
      ],
      "name": "setToken",
      "outputs": [],
      "stateMutability": "nonpayable",
      "type": "function"
    },
    {
      "inputs": [],
      "name": "getTokenAddress",
      "outputs": [
        {
          "internalType": "address",
          "name": "",
          "type": "address"
        }
      ],
      "stateMutability": "view",
      "type": "function",
      "constant": true
    }
  ],
  "bytecode": "0x60c0604052601f60808190527f42537461626c65204c6971756964697479204661726d696e672050726f78790060a090815262000040916001919062000287565b5060408051808201909152600780825266424c46502d563160c81b6020909201918252620000719160029162000287565b503480156200007f57600080fd5b50604051620024ca380380620024ca83398181016040526020811015620000a557600080fd5b50516000620000bc6001600160e01b036200015716565b600080546001600160a01b0319166001600160a01b038316908117825560405192935091600080516020620024aa833981519152908290a3506001600160a01b0381166200013c5760405162461bcd60e51b8152600401808060200182810382526023815260200180620024876023913960400191505060405180910390fd5b62000150816001600160e01b036200015c16565b5062000329565b335b90565b6200016f6001600160e01b036200015716565b6001600160a01b03166200018b6001600160e01b036200027816565b6001600160a01b031614620001e7576040805162461bcd60e51b815260206004820181905260248201527f4f776e61626c653a2063616c6c6572206973206e6f7420746865206f776e6572604482015290519081900360640190fd5b6001600160a01b0381166200022e5760405162461bcd60e51b8152600401808060200182810382526026815260200180620024616026913960400191505060405180910390fd5b600080546040516001600160a01b0380851693921691600080516020620024aa83398151915291a3600080546001600160a01b0319166001600160a01b0392909216919091179055565b6000546001600160a01b031690565b828054600181600116156101000203166002900490600052602060002090601f016020900481019282601f10620002ca57805160ff1916838001178555620002fa565b82800160010185558215620002fa579182015b82811115620002fa578251825591602001919060010190620002dd565b50620003089291506200030c565b5090565b6200015991905b8082111562000308576000815560010162000313565b61212880620003396000396000f3fe608060405234801561001057600080fd5b50600436106101375760003560e01c80638da5cb5b116100b8578063b17b658d1161007c578063b17b658d1461038f578063e2bbb158146103c9578063e51b390a146103ec578063f2fde38b146103f4578063fc0c546a1461041a578063fca3b5aa1461042257610137565b80638da5cb5b146103065780639254803a1461030e57806393f1a40b1461031657806395d89b411461035b57806398969e821461036357610137565b80631526fe27116100ff5780631526fe2714610253578063441a3e70146102935780635312ea8e146102b657806364482f79146102d3578063715018a6146102fe57610137565b806306fdde031461013c578063081e3eda146101b95780630dec2312146101d357806310fe9ae814610209578063144fa6d71461022d575b600080fd5b610144610448565b6040805160208082528351818301528351919283929083019185019080838360005b8381101561017e578181015183820152602001610166565b50505050905090810190601f1680156101ab5780820380516001836020036101000a031916815260200191505b509250505060405180910390f35b6101c16104d5565b60408051918252519081900360200190f35b610207600480360360608110156101e957600080fd5b506001600160a01b03813516906020810135906040013515156104db565b005b6102116107a6565b604080516001600160a01b039092168252519081900360200190f35b6102076004803603602081101561024357600080fd5b50356001600160a01b03166107b5565b6102706004803603602081101561026957600080fd5b50356108b0565b604080516001600160a01b03909316835260208301919091528051918290030190f35b610207600480360360408110156102a957600080fd5b50803590602001356108e5565b610207600480360360208110156102cc57600080fd5b5035610afd565b610207600480360360608110156102e957600080fd5b50803590602081013590604001351515610bdf565b610207610dbe565b610211610e6a565b610207610e79565b6103426004803603604081101561032c57600080fd5b50803590602001356001600160a01b0316610ecc565b6040805192835260208301919091528051918290030190f35b610144610ef0565b6101c16004803603604081101561037957600080fd5b50803590602001356001600160a01b0316610f48565b6103b5600480360360208110156103a557600080fd5b50356001600160a01b0316611196565b604080519115158252519081900360200190f35b610207600480360360408110156103df57600080fd5b50803590602001356111ab565b610211611363565b6102076004803603602081101561040a57600080fd5b50356001600160a01b0316611372565b610211611474565b6102076004803603602081101561043857600080fd5b50356001600160a01b0316611483565b60018054604080516020600284861615610100026000190190941693909304601f810184900484028201840190925281815292918301828280156104cd5780601f106104a2576101008083540402835291602001916104cd565b820191906000526020600020905b8154815290600101906020018083116104b057829003601f168201915b505050505081565b60045490565b6104e361157e565b6001600160a01b03166104f4610e6a565b6001600160a01b03161461053d576040805162461bcd60e51b815260206004820181905260248201526000805160206120d3833981519152604482015290519081900360640190fd5b6001600160a01b0383166105825760405162461bcd60e51b81526004018080602001828103825260238152602001806120b06023913960400191505060405180910390fd5b6001600160a01b03831660009081526005602052604090205460ff16156105da5760405162461bcd60e51b815260040180806020018281038252602c815260200180612084602c913960400191505060405180910390fd5b6001600160a01b0383166000908152600560205260409020805460ff19166001179055801561066c57600760009054906101000a90046001600160a01b03166001600160a01b0316635f386b906040518163ffffffff1660e01b8152600401600060405180830381600087803b15801561065357600080fd5b505af1158015610667573d6000803e3d6000fd5b505050505b60075460408051630571777d60e31b8152600481018590526001600160a01b03868116602483015291519190921691632b8bbbe891604480830192600092919082900301818387803b1580156106c157600080fd5b505af11580156106d5573d6000803e3d6000fd5b50506040805180820182526001600160a01b038781168083526000602080850182815260048054600181018255935294517f8a35acfbc15ff81a39ae7d344fd709f28e8600b4aa8c65c6b64bfe7fe36bd19b600290930292830180546001600160a01b031916919095161790935592517f8a35acfbc15ff81a39ae7d344fd709f28e8600b4aa8c65c6b64bfe7fe36bd19c90930192909255825191825291517f8c82d670bc9247c2cfb6964089bc9cff0255f9caade6fbc74a13368083e554669450908190039091019150a1505050565b6003546001600160a01b031690565b6107bd61157e565b6001600160a01b03166107ce610e6a565b6001600160a01b031614610817576040805162461bcd60e51b815260206004820181905260248201526000805160206120d3833981519152604482015290519081900360640190fd5b6001600160a01b03811661085c5760405162461bcd60e51b81526004018080602001828103825260238152602001806120b06023913960400191505060405180910390fd5b600380546001600160a01b0383166001600160a01b0319909116811790915560408051918252517fefc1fd16ea80a922086ee4e995739d59b025c1bcea6d1f67855747480c83214b9181900360200190a150565b600481815481106108bd57fe5b6000918252602090912060029091020180546001909101546001600160a01b03909116915082565b60045482106109255760405162461bcd60e51b8152600401808060200182810382526027815260200180611f956027913960400191505060405180910390fd5b60006004838154811061093457fe5b6000918252602080832086845260068252604080852033865290925292208054600290920290920192508311156109a7576040805162461bcd60e51b81526020600482015260126024820152711dda5d1a191c985dce881b9bdd0819dbdbd960721b604482015290519081900360640190fd5b6109b084611582565b60006109f682600101546109ea64e8d4a510006109de8760010154876000015461189d90919063ffffffff16565b9063ffffffff6118fd16565b9063ffffffff61196416565b825460018085015490860154604080518a8152602081019490945283810192909252606083015260808201839052519192507fa090a78bd52431eff8976d43dbaf5ca89cc10077de4ff104d3669cccb2dfc6b6919081900360a00190a18015610a6357610a6333826119c1565b8154610a75908563ffffffff61196416565b8083556001840154610a989164e8d4a51000916109de919063ffffffff61189d16565b60018301558315610abf578254610abf906001600160a01b0316338663ffffffff611b9716565b604080518581529051869133917ff279e6a1f5e320cca91135676d9cb6e44ca8a08c0b88342bcdb1144f6511b5689181900360200190a35050505050565b6004548110610b3d5760405162461bcd60e51b8152600401808060200182810382526027815260200180611f956027913960400191505060405180910390fd5b600060048281548110610b4c57fe5b600091825260208083208584526006825260408085203380875293528420805485825560018201959095556002909302018054909450919291610ba2916001600160a01b0391909116908363ffffffff611b9716565b604080518281529051859133917fbb757047c2b5f3974fe26b7c10f732e7bce710b0952a71082702781e62ae05959181900360200190a350505050565b610be761157e565b6001600160a01b0316610bf8610e6a565b6001600160a01b031614610c41576040805162461bcd60e51b815260206004820181905260248201526000805160206120d3833981519152604482015290519081900360640190fd5b6004548310610c815760405162461bcd60e51b8152600401808060200182810382526027815260200180611f956027913960400191505060405180910390fd5b8015610cf057600760009054906101000a90046001600160a01b03166001600160a01b0316635f386b906040518163ffffffff1660e01b8152600401600060405180830381600087803b158015610cd757600080fd5b505af1158015610ceb573d6000803e3d6000fd5b505050505b600754600480546001600160a01b0390921691633825d828919086908110610d1457fe5b60009182526020822060029091020154604080516001600160e01b031960e086901b1681526001600160a01b03909216600483015260248201879052516044808301939282900301818387803b158015610d6d57600080fd5b505af1158015610d81573d6000803e3d6000fd5b50506040805186815290517f30932cbd98f47dcd146d81a1e02f9c7117856d02ae0d4e3262315fe89f88adc29350908190036020019150a1505050565b610dc661157e565b6001600160a01b0316610dd7610e6a565b6001600160a01b031614610e20576040805162461bcd60e51b815260206004820181905260248201526000805160206120d3833981519152604482015290519081900360640190fd5b600080546040516001600160a01b03909116907f8be0079c531659141344cd1fd0a4f28419497f9722a3daafe3b4186f6b6457e0908390a3600080546001600160a01b0319169055565b6000546001600160a01b031690565b6007546001600160a01b03163314610ec25760405162461bcd60e51b81526004018080602001828103825260318152602001806120326031913960400191505060405180910390fd5b610eca611be9565b565b60066020908152600092835260408084209091529082529020805460019091015482565b6002805460408051602060018416156101000260001901909316849004601f810184900484028201840190925281815292918301828280156104cd5780601f106104a2576101008083540402835291602001916104cd565b60008060048481548110610f5857fe5b600091825260208083208784526006825260408085206001600160a01b0389811687529084528186206002959095029092016001810154815483516370a0823160e01b815230600482015293519298509596909590949316926370a082319260248082019391829003018186803b158015610fd257600080fd5b505afa158015610fe6573d6000803e3d6000fd5b505050506040513d6020811015610ffc57600080fd5b505160075485546040805163121b947d60e21b81523060048201526001600160a01b0392831660248201528151949550600094929093169263486e51f49260448083019392829003018186803b15801561105557600080fd5b505afa158015611069573d6000803e3d6000fd5b505050506040513d604081101561107f57600080fd5b50602001519050438110801561109457508115155b1561116057600754855460408051636b09169560e01b81523060048201526001600160a01b03928316602482015290516000939290921691636b09169591604480820192602092909190829003018186803b1580156110f257600080fd5b505afa158015611106573d6000803e3d6000fd5b505050506040513d602081101561111c57600080fd5b505190506000811561114657611141846109de8464e8d4a5100063ffffffff61189d16565b611149565b60005b905061115b858263ffffffff611c0c16565b945050505b61118884600101546109ea64e8d4a510006109de87896000015461189d90919063ffffffff16565b955050505050505b92915050565b60056020526000908152604090205460ff1681565b60045482106111eb5760405162461bcd60e51b8152600401808060200182810382526027815260200180611f956027913960400191505060405180910390fd5b6000600483815481106111fa57fe5b6000918252602080832086845260068252604080852033865290925292206002909102909101915061122b84611582565b8054156112c957600061126082600101546109ea64e8d4a510006109de8760010154876000015461189d90919063ffffffff16565b825460018085015490860154604080518a8152602081019490945283810192909252606083015260808201839052519192507fa090a78bd52431eff8976d43dbaf5ca89cc10077de4ff104d3669cccb2dfc6b6919081900360a00190a16112c733826119c1565b505b80546112db908463ffffffff611c0c16565b80825560018301546112fe9164e8d4a51000916109de919063ffffffff61189d16565b60018201558215611326578154611326906001600160a01b031633308663ffffffff611c6616565b604080518481529051859133917f90890809c654f11d6e72a28fa60149770a0d11ec6c92319d6ceb2bb0a4ea1a159181900360200190a350505050565b6007546001600160a01b031681565b61137a61157e565b6001600160a01b031661138b610e6a565b6001600160a01b0316146113d4576040805162461bcd60e51b815260206004820181905260248201526000805160206120d3833981519152604482015290519081900360640190fd5b6001600160a01b0381166114195760405162461bcd60e51b8152600401808060200182810382526026815260200180611fe66026913960400191505060405180910390fd5b600080546040516001600160a01b03808516939216917f8be0079c531659141344cd1fd0a4f28419497f9722a3daafe3b4186f6b6457e091a3600080546001600160a01b0319166001600160a01b0392909216919091179055565b6003546001600160a01b031681565b61148b61157e565b6001600160a01b031661149c610e6a565b6001600160a01b0316146114e5576040805162461bcd60e51b815260206004820181905260248201526000805160206120d3833981519152604482015290519081900360640190fd5b6001600160a01b03811661152a5760405162461bcd60e51b81526004018080602001828103825260238152602001806120b06023913960400191505060405180910390fd5b600780546001600160a01b0383166001600160a01b0319909116811790915560408051918252517fcec52196e972044edde8689a1b608e459c5946b7f3e5c8cd3d6d8e126d422e1c9181900360200190a150565b3390565b60045481106115c25760405162461bcd60e51b8152600401808060200182810382526027815260200180611f956027913960400191505060405180910390fd5b6000600482815481106115d157fe5b60009182526020822060075460029092020180546040805163121b947d60e21b81523060048201526001600160a01b0392831660248201528151939650919093169263486e51f492604480840193829003018186803b15801561163357600080fd5b505afa158015611647573d6000803e3d6000fd5b505050506040513d604081101561165d57600080fd5b5060200151905043811061167257505061189a565b8154604080516370a0823160e01b815230600482015290516000926001600160a01b0316916370a08231916024808301926020929190829003018186803b1580156116bc57600080fd5b505afa1580156116d0573d6000803e3d6000fd5b505050506040513d60208110156116e657600080fd5b505190508061179f576007548354604080516363238b2160e01b81526001600160a01b039283166004820152905191909216916363238b2191602480830192600092919082900301818387803b15801561173f57600080fd5b505af1158015611753573d6000803e3d6000fd5b50506040805187815260208101869052438183015290517fa999845d95de9d56580065fc2fea22f287787fabaaa900fb9d10a97e5884aaab9350908190036060019150a150505061189a565b6007548354604080516335313c2160e11b81526001600160a01b03928316600482015290516000939290921691636a6278429160248082019260209290919082900301818787803b1580156117f357600080fd5b505af1158015611807573d6000803e3d6000fd5b505050506040513d602081101561181d57600080fd5b5051905061184e61183d836109de8464e8d4a5100063ffffffff61189d16565b60018601549063ffffffff611c0c16565b60018501819055604080518781526020810192909252818101839052517ff5d2d72d9b25d6853afd7d0554a113b705234b6a68bb36b7f1436629946324119181900360600190a1505050505b50565b6000826118ac57506000611190565b828202828482816118b957fe5b04146118f65760405162461bcd60e51b81526004018080602001828103825260218152602001806120636021913960400191505060405180910390fd5b9392505050565b6000808211611953576040805162461bcd60e51b815260206004820152601a60248201527f536166654d6174683a206469766973696f6e206279207a65726f000000000000604482015290519081900360640190fd5b81838161195c57fe5b049392505050565b6000828211156119bb576040805162461bcd60e51b815260206004820152601e60248201527f536166654d6174683a207375627472616374696f6e206f766572666c6f770000604482015290519081900360640190fd5b50900390565b6001600160a01b038216611a065760405162461bcd60e51b81526004018080602001828103825260238152602001806120b06023913960400191505060405180910390fd5b600354604080516370a0823160e01b815230600482015290516000926001600160a01b0316916370a08231916024808301926020929190829003018186803b158015611a5157600080fd5b505afa158015611a65573d6000803e3d6000fd5b505050506040513d6020811015611a7b57600080fd5b5051905080821115611b0f576003546040805163a9059cbb60e01b81526001600160a01b038681166004830152602482018590529151919092169163a9059cbb9160448083019260209291908290030181600087803b158015611add57600080fd5b505af1158015611af1573d6000803e3d6000fd5b505050506040513d6020811015611b0757600080fd5b50611b929050565b6003546040805163a9059cbb60e01b81526001600160a01b038681166004830152602482018690529151919092169163a9059cbb9160448083019260209291908290030181600087803b158015611b6557600080fd5b505af1158015611b79573d6000803e3d6000fd5b505050506040513d6020811015611b8f57600080fd5b50505b505050565b604080516001600160a01b038416602482015260448082018490528251808303909101815260649091019091526020810180516001600160e01b031663a9059cbb60e01b179052611b92908490611cc6565b60045460005b81811015611c0857611c0081611582565b600101611bef565b5050565b6000828201838110156118f6576040805162461bcd60e51b815260206004820152601b60248201527f536166654d6174683a206164646974696f6e206f766572666c6f770000000000604482015290519081900360640190fd5b604080516001600160a01b0380861660248301528416604482015260648082018490528251808303909101815260849091019091526020810180516001600160e01b03166323b872dd60e01b179052611cc0908590611cc6565b50505050565b6060611d1b826040518060400160405280602081526020017f5361666542455032303a206c6f772d6c6576656c2063616c6c206661696c6564815250856001600160a01b0316611d779092919063ffffffff16565b805190915015611b9257808060200190516020811015611d3a57600080fd5b5051611b925760405162461bcd60e51b815260040180806020018281038252602a815260200180611fbc602a913960400191505060405180910390fd5b6060611d868484600085611d8e565b949350505050565b606082471015611dcf5760405162461bcd60e51b815260040180806020018281038252602681526020018061200c6026913960400191505060405180910390fd5b611dd885611eea565b611e29576040805162461bcd60e51b815260206004820152601d60248201527f416464726573733a2063616c6c20746f206e6f6e2d636f6e7472616374000000604482015290519081900360640190fd5b60006060866001600160a01b031685876040518082805190602001908083835b60208310611e685780518252601f199092019160209182019101611e49565b6001836020036101000a03801982511681845116808217855250505050505090500191505060006040518083038185875af1925050503d8060008114611eca576040519150601f19603f3d011682016040523d82523d6000602084013e611ecf565b606091505b5091509150611edf828286611ef0565b979650505050505050565b3b151590565b60608315611eff5750816118f6565b825115611f0f5782518084602001fd5b8160405162461bcd60e51b81526004018080602001828103825283818151815260200191508051906020019080838360005b83811015611f59578181015183820152602001611f41565b50505050905090810190601f168015611f865780820380516001836020036101000a031916815260200191505b509250505060405180910390fdfe4c697175646974794661726d696e6750726f78793a20706964206f7574206f662072616e67652e5361666542455032303a204245503230206f7065726174696f6e20646964206e6f7420737563636565644f776e61626c653a206e6577206f776e657220697320746865207a65726f2061646472657373416464726573733a20696e73756666696369656e742062616c616e636520666f722063616c6c4c697175646974794661726d696e6750726f78793a2063616c6c6572206973206e6f7420746865206273744d696e746572536166654d6174683a206d756c7469706c69636174696f6e206f766572666c6f774c697175646974794661726d696e6750726f78793a205f6c70546f6b656e20616c72656164792065786973744c69717569646974794661726d696e6750726f78793a206e6f203020616464726573734f776e61626c653a2063616c6c6572206973206e6f7420746865206f776e6572a2646970667358221220a9e0033a9c3f44b4801c086536f334da19ada5c0d979f83bd6b41f3846e25cee64736f6c634300060600334f776e61626c653a206e6577206f776e657220697320746865207a65726f20616464726573734c69717569646974794661726d696e6750726f78793a206e6f203020616464726573738be0079c531659141344cd1fd0a4f28419497f9722a3daafe3b4186f6b6457e0",
  "immutableReferences": {},
  "source": "// SPDX-License-Identifier: MIT\n\npragma solidity ^0.6.0;\n\nimport \"./interfaces/IBEP20.sol\";\nimport \"./interfaces/IBStablePool.sol\";\nimport \"./interfaces/IBSTMinter.sol\";\nimport \"./interfaces/IBSTToken.sol\";\nimport \"./interfaces/IBSTFarmingProxy.sol\";\nimport \"./lib/SafeBEP20.sol\";\nimport \"@openzeppelin/contracts/math/SafeMath.sol\";\nimport \"@openzeppelin/contracts/access/Ownable.sol\";\n\n/// @title Implement liquitidy farming.\ncontract LiquidityFarmingProxy is Ownable, IBSTFarmingProxy {\n    using SafeMath for uint256;\n    using SafeBEP20 for IBEP20;\n    struct UserInfo {\n        uint256 amount; /// @dev How many LP tokens the user has provided.\n        uint256 rewardDebt; /// @dev Reward debt. See explanation below.\n    }\n    /// @notice Info of each pool.\n    struct PoolInfo {\n        IBEP20 lpToken; /// @dev Address of LP token contract.\n        uint256 accTokenPerShare; /// @dev Accumulated BSTs per share, times 1e12. See below.\n    }\n    string public name = \"BStable Liquidity Farming Proxy\";\n    string public symbol = \"BLFP-V1\";\n    IBSTToken public token;\n    /// @notice Info of each pool.\n    PoolInfo[] public poolInfo;\n    /// @notice Save lp tokens whether exists.\n    mapping(address => bool) public lpTokens;\n    /// @notice Info of each user that stakes LP tokens.\n    mapping(uint256 => mapping(address => UserInfo)) public userInfo;\n    /// @notice For mint BST\n    IBSTMinter public bstMinter;\n\n    modifier onlyMinter() {\n        require(\n            address(bstMinter) == msg.sender,\n            \"LiqudityFarmingProxy: caller is not the bstMinter\"\n        );\n        _;\n    }\n    event Deposit(address indexed user, uint256 indexed pid, uint256 amount);\n    event Withdraw(address indexed user, uint256 indexed pid, uint256 amount);\n    event EmergencyWithdraw(\n        address indexed user,\n        uint256 indexed pid,\n        uint256 amount\n    );\n    event SetMinter(address _minter);\n    event AddPool(address _poolAddress);\n    event SetPool(uint256 _pid);\n    event UpdatePool(\n        uint256 _pid,\n        uint256 accTokenPerShare,\n        uint256 _tokenReward\n    );\n    event CalculatePending(\n        uint256 _pid,\n        uint256 _amount,\n        uint256 rewardDebt,\n        uint256 accTokenPerShare,\n        uint256 pending\n    );\n    event SetToken(address _token);\n    event ZeroLPStaking(\n        uint256 _pid,\n        uint256 _lastRewardBlock,\n        uint256 blockNumber\n    );\n\n    constructor(address ownerAddress) public {\n        require(\n            ownerAddress != address(0),\n            \"LiquidityFarmingProxy: no 0 address\"\n        );\n        transferOwnership(ownerAddress);\n    }\n\n    function setMinter(IBSTMinter _minter) public onlyOwner {\n        require(\n            address(_minter) != address(0),\n            \"LiquidityFarmingProxy: no 0 address\"\n        );\n        bstMinter = _minter;\n        emit SetMinter(address(_minter));\n    }\n\n    function poolLength() external view returns (uint256) {\n        return poolInfo.length;\n    }\n\n    /// @notice Add a new lp to the pool. Can only be called by the owner.\n    function add(\n        IBEP20 _lpToken,\n        uint256 _allocPoint,\n        bool _withUpdate\n    ) external onlyOwner {\n        require(\n            address(_lpToken) != address(0),\n            \"LiquidityFarmingProxy: no 0 address\"\n        );\n        require(\n            !lpTokens[address(_lpToken)],\n            \"LiqudityFarmingProxy: _lpToken already exist\"\n        );\n        lpTokens[address(_lpToken)] = true;\n        if (_withUpdate) {\n            bstMinter.massUpdateProxy();\n        }\n        bstMinter.add(_allocPoint, address(_lpToken));\n        poolInfo.push(PoolInfo({lpToken: _lpToken, accTokenPerShare: 0}));\n        emit AddPool(address(_lpToken));\n    }\n\n    /// @notice Update the given pool's BST allocation point. Can only be called by the owner.\n    function set(\n        uint256 _pid,\n        uint256 _allocPoint,\n        bool _withUpdate\n    ) external onlyOwner {\n        require(\n            _pid < poolInfo.length,\n            \"LiqudityFarmingProxy: pid out of range.\"\n        );\n        if (_withUpdate) {\n            bstMinter.massUpdateProxy();\n        }\n        bstMinter.set(address(poolInfo[_pid].lpToken), _allocPoint);\n        emit SetPool(_pid);\n    }\n\n    /// @notice View function to see pending BSTs on frontend.\n    function pendingReward(uint256 _pid, address _user)\n        external\n        view\n        returns (uint256)\n    {\n        PoolInfo storage pool = poolInfo[_pid];\n        UserInfo storage user = userInfo[_pid][_user];\n        uint256 accTokenPerShare = pool.accTokenPerShare;\n        uint256 lpSupply = pool.lpToken.balanceOf(address(this));\n        (, uint256 _lastRewardBlock) =\n            bstMinter.getPoolInfo(address(this), address(pool.lpToken));\n        if (block.number > _lastRewardBlock && lpSupply != 0) {\n            uint256 tokenReward =\n                bstMinter.getReward(address(this), address(pool.lpToken));\n            uint256 nAccTokenPerShare =\n                tokenReward == 0 ? 0 : tokenReward.mul(1e12).div(lpSupply);\n            accTokenPerShare = accTokenPerShare.add(nAccTokenPerShare);\n        }\n        return user.amount.mul(accTokenPerShare).div(1e12).sub(user.rewardDebt);\n    }\n\n    /// @dev Mass update pools. Only caller is BSTMinter's massUpdateProxy.\n    function massUpdate() public override onlyMinter {\n        _massUpdatePools();\n    }\n\n    /// @notice Update reward vairables for all pools. Be careful of gas spending!\n    function _massUpdatePools() internal {\n        uint256 length = poolInfo.length;\n        for (uint256 pid = 0; pid < length; ++pid) {\n            _updatePool(pid);\n        }\n    }\n\n    /// @notice Update reward variables of the given pool to be up-to-date.\n    /// @param _pid pool's index.\n    function _updatePool(uint256 _pid) internal {\n        require(\n            _pid < poolInfo.length,\n            \"LiqudityFarmingProxy: pid out of range.\"\n        );\n        PoolInfo storage pool = poolInfo[_pid];\n        (, uint256 _lastRewardBlock) =\n            bstMinter.getPoolInfo(address(this), address(pool.lpToken));\n        if (block.number <= _lastRewardBlock) {\n            return;\n        }\n        uint256 lpSupply = pool.lpToken.balanceOf(address(this));\n        if (lpSupply == 0) {\n            bstMinter.updateLastRewardBlock(address(pool.lpToken));\n            emit ZeroLPStaking(_pid, _lastRewardBlock, block.number);\n            return;\n        }\n        uint256 tokenReward = bstMinter.mint(address(pool.lpToken));\n        pool.accTokenPerShare = pool.accTokenPerShare.add(\n            tokenReward.mul(1e12).div(lpSupply)\n        );\n        emit UpdatePool(_pid, pool.accTokenPerShare, tokenReward);\n    }\n\n    /// @notice Deposit LP tokens to BStableProxyV2 for BST allocation.\n    function deposit(uint256 _pid, uint256 _amount) public {\n        require(\n            _pid < poolInfo.length,\n            \"LiqudityFarmingProxy: pid out of range.\"\n        );\n        PoolInfo storage pool = poolInfo[_pid];\n        UserInfo storage user = userInfo[_pid][msg.sender];\n        _updatePool(_pid);\n        if (user.amount > 0) {\n            uint256 pending =\n                user.amount.mul(pool.accTokenPerShare).div(1e12).sub(\n                    user.rewardDebt\n                );\n            emit CalculatePending(\n                _pid,\n                user.amount,\n                user.rewardDebt,\n                pool.accTokenPerShare,\n                pending\n            );\n            safeTokenTransfer(msg.sender, pending);\n        }\n        user.amount = user.amount.add(_amount);\n        user.rewardDebt = user.amount.mul(pool.accTokenPerShare).div(1e12);\n        if (_amount > 0) {\n            pool.lpToken.safeTransferFrom(\n                address(msg.sender),\n                address(this),\n                _amount\n            );\n        }\n        emit Deposit(msg.sender, _pid, _amount);\n    }\n\n    /// @notice Withdraw LP tokens .\n    function withdraw(uint256 _pid, uint256 _amount) public {\n        require(\n            _pid < poolInfo.length,\n            \"LiqudityFarmingProxy: pid out of range.\"\n        );\n        PoolInfo storage pool = poolInfo[_pid];\n        UserInfo storage user = userInfo[_pid][msg.sender];\n        require(user.amount >= _amount, \"withdraw: not good\");\n        _updatePool(_pid);\n        uint256 pending =\n            user.amount.mul(pool.accTokenPerShare).div(1e12).sub(\n                user.rewardDebt\n            );\n        emit CalculatePending(\n            _pid,\n            user.amount,\n            user.rewardDebt,\n            pool.accTokenPerShare,\n            pending\n        );\n        if (pending > 0) {\n            safeTokenTransfer(msg.sender, pending);\n        }\n        user.amount = user.amount.sub(_amount);\n        user.rewardDebt = user.amount.mul(pool.accTokenPerShare).div(1e12);\n        if (_amount > 0) {\n            pool.lpToken.safeTransfer(address(msg.sender), _amount);\n        }\n        emit Withdraw(msg.sender, _pid, _amount);\n    }\n\n    /// @notice Withdraw without caring about rewards. EMERGENCY ONLY.\n    function emergencyWithdraw(uint256 _pid) public {\n        require(\n            _pid < poolInfo.length,\n            \"LiqudityFarmingProxy: pid out of range.\"\n        );\n        PoolInfo storage pool = poolInfo[_pid];\n        UserInfo storage user = userInfo[_pid][msg.sender];\n        uint256 amount_ = user.amount;\n        user.amount = 0;\n        user.rewardDebt = 0;\n        pool.lpToken.safeTransfer(address(msg.sender), amount_);\n        emit EmergencyWithdraw(msg.sender, _pid, amount_);\n    }\n\n    /// @notice Safe token transfer function, just in case if rounding error causes pool to not have enough BSTs.\n    function safeTokenTransfer(address _to, uint256 _amount) internal {\n        require(_to != address(0), \"LiquidityFarmingProxy: no 0 address\");\n        uint256 tokenBal = token.balanceOf(address(this));\n        if (_amount > tokenBal) {\n            token.transfer(_to, tokenBal);\n        } else {\n            token.transfer(_to, _amount);\n        }\n    }\n\n    function setToken(IBSTToken _token) external onlyOwner {\n        require(\n            address(_token) != address(0),\n            \"LiquidityFarmingProxy: no 0 address\"\n        );\n        token = _token;\n        emit SetToken(address(_token));\n    }\n\n    function getTokenAddress() external view returns (address) {\n        return address(token);\n    }\n}\n",
  "sourcePath": "/Users/zhangleping/github.com/0xa8c81519/contracts-210510/contracts/LiquidityFarmingProxy.sol",
  "compiler": {
    "name": "solc",
    "version": "0.6.6+commit.6c089d02.Emscripten.clang"
  },
  "schemaVersion": "3.4.1",
  "updatedAt": "2021-06-29T07:09:51.543Z",
  "networkType": "ethereum",
  "devdoc": {
    "methods": {
      "massUpdate()": {
        "details": "Mass update pools. Only caller is BSTMinter's massUpdateProxy."
      },
      "owner()": {
        "details": "Returns the address of the current owner."
      },
      "renounceOwnership()": {
        "details": "Leaves the contract without owner. It will not be possible to call `onlyOwner` functions anymore. Can only be called by the current owner.     * NOTE: Renouncing ownership will leave the contract without an owner, thereby removing any functionality that is only available to the owner."
      },
      "transferOwnership(address)": {
        "details": "Transfers ownership of the contract to a new account (`newOwner`). Can only be called by the current owner."
      }
    },
    "title": "Implement liquitidy farming."
  },
  "userdoc": {
    "methods": {
      "add(address,uint256,bool)": {
        "notice": "Add a new lp to the pool. Can only be called by the owner."
      },
      "deposit(uint256,uint256)": {
        "notice": "Deposit LP tokens to BStableProxyV2 for BST allocation."
      },
      "emergencyWithdraw(uint256)": {
        "notice": "Withdraw without caring about rewards. EMERGENCY ONLY."
      },
      "pendingReward(uint256,address)": {
        "notice": "View function to see pending BSTs on frontend."
      },
      "set(uint256,uint256,bool)": {
        "notice": "Update the given pool's BST allocation point. Can only be called by the owner."
      },
      "withdraw(uint256,uint256)": {
        "notice": "Withdraw LP tokens ."
      }
    }
  }
}