{
  "contractName": "LiquidityFarmingProxy",
  "abi": [
    {
      "inputs": [
        {
          "internalType": "address",
          "name": "ownerAddress",
          "type": "address"
        }
      ],
      "stateMutability": "nonpayable",
      "type": "constructor"
    },
    {
      "anonymous": false,
      "inputs": [
        {
          "indexed": false,
          "internalType": "address",
          "name": "_poolAddress",
          "type": "address"
        }
      ],
      "name": "AddPool",
      "type": "event"
    },
    {
      "anonymous": false,
      "inputs": [
        {
          "indexed": false,
          "internalType": "uint256",
          "name": "_pid",
          "type": "uint256"
        },
        {
          "indexed": false,
          "internalType": "uint256",
          "name": "_amount",
          "type": "uint256"
        },
        {
          "indexed": false,
          "internalType": "uint256",
          "name": "rewardDebt",
          "type": "uint256"
        },
        {
          "indexed": false,
          "internalType": "uint256",
          "name": "accTokenPerShare",
          "type": "uint256"
        },
        {
          "indexed": false,
          "internalType": "uint256",
          "name": "pending",
          "type": "uint256"
        }
      ],
      "name": "CalculatePending",
      "type": "event"
    },
    {
      "anonymous": false,
      "inputs": [
        {
          "indexed": true,
          "internalType": "address",
          "name": "user",
          "type": "address"
        },
        {
          "indexed": true,
          "internalType": "uint256",
          "name": "pid",
          "type": "uint256"
        },
        {
          "indexed": false,
          "internalType": "uint256",
          "name": "amount",
          "type": "uint256"
        }
      ],
      "name": "Deposit",
      "type": "event"
    },
    {
      "anonymous": false,
      "inputs": [
        {
          "indexed": true,
          "internalType": "address",
          "name": "user",
          "type": "address"
        },
        {
          "indexed": true,
          "internalType": "uint256",
          "name": "pid",
          "type": "uint256"
        },
        {
          "indexed": false,
          "internalType": "uint256",
          "name": "amount",
          "type": "uint256"
        }
      ],
      "name": "EmergencyWithdraw",
      "type": "event"
    },
    {
      "anonymous": false,
      "inputs": [
        {
          "indexed": true,
          "internalType": "address",
          "name": "previousOwner",
          "type": "address"
        },
        {
          "indexed": true,
          "internalType": "address",
          "name": "newOwner",
          "type": "address"
        }
      ],
      "name": "OwnershipTransferred",
      "type": "event"
    },
    {
      "anonymous": false,
      "inputs": [
        {
          "indexed": false,
          "internalType": "address",
          "name": "_minter",
          "type": "address"
        }
      ],
      "name": "SetMinter",
      "type": "event"
    },
    {
      "anonymous": false,
      "inputs": [
        {
          "indexed": false,
          "internalType": "uint256",
          "name": "_pid",
          "type": "uint256"
        }
      ],
      "name": "SetPool",
      "type": "event"
    },
    {
      "anonymous": false,
      "inputs": [
        {
          "indexed": false,
          "internalType": "address",
          "name": "_token",
          "type": "address"
        }
      ],
      "name": "SetToken",
      "type": "event"
    },
    {
      "anonymous": false,
      "inputs": [
        {
          "indexed": false,
          "internalType": "uint256",
          "name": "_pid",
          "type": "uint256"
        },
        {
          "indexed": false,
          "internalType": "uint256",
          "name": "accTokenPerShare",
          "type": "uint256"
        },
        {
          "indexed": false,
          "internalType": "uint256",
          "name": "_tokenReward",
          "type": "uint256"
        }
      ],
      "name": "UpdatePool",
      "type": "event"
    },
    {
      "anonymous": false,
      "inputs": [
        {
          "indexed": true,
          "internalType": "address",
          "name": "user",
          "type": "address"
        },
        {
          "indexed": true,
          "internalType": "uint256",
          "name": "pid",
          "type": "uint256"
        },
        {
          "indexed": false,
          "internalType": "uint256",
          "name": "amount",
          "type": "uint256"
        }
      ],
      "name": "Withdraw",
      "type": "event"
    },
    {
      "anonymous": false,
      "inputs": [
        {
          "indexed": false,
          "internalType": "uint256",
          "name": "_pid",
          "type": "uint256"
        },
        {
          "indexed": false,
          "internalType": "uint256",
          "name": "_lastRewardBlock",
          "type": "uint256"
        },
        {
          "indexed": false,
          "internalType": "uint256",
          "name": "blockNumber",
          "type": "uint256"
        }
      ],
      "name": "ZeroLPStaking",
      "type": "event"
    },
    {
      "inputs": [],
      "name": "bstMinter",
      "outputs": [
        {
          "internalType": "contract IBSTMinter",
          "name": "",
          "type": "address"
        }
      ],
      "stateMutability": "view",
      "type": "function",
      "constant": true
    },
    {
      "inputs": [
        {
          "internalType": "address",
          "name": "",
          "type": "address"
        }
      ],
      "name": "lpTokens",
      "outputs": [
        {
          "internalType": "bool",
          "name": "",
          "type": "bool"
        }
      ],
      "stateMutability": "view",
      "type": "function",
      "constant": true
    },
    {
      "inputs": [],
      "name": "name",
      "outputs": [
        {
          "internalType": "string",
          "name": "",
          "type": "string"
        }
      ],
      "stateMutability": "view",
      "type": "function",
      "constant": true
    },
    {
      "inputs": [],
      "name": "owner",
      "outputs": [
        {
          "internalType": "address",
          "name": "",
          "type": "address"
        }
      ],
      "stateMutability": "view",
      "type": "function",
      "constant": true
    },
    {
      "inputs": [
        {
          "internalType": "uint256",
          "name": "",
          "type": "uint256"
        }
      ],
      "name": "poolInfo",
      "outputs": [
        {
          "internalType": "contract IBEP20",
          "name": "lpToken",
          "type": "address"
        },
        {
          "internalType": "uint256",
          "name": "accTokenPerShare",
          "type": "uint256"
        }
      ],
      "stateMutability": "view",
      "type": "function",
      "constant": true
    },
    {
      "inputs": [],
      "name": "renounceOwnership",
      "outputs": [],
      "stateMutability": "nonpayable",
      "type": "function"
    },
    {
      "inputs": [],
      "name": "symbol",
      "outputs": [
        {
          "internalType": "string",
          "name": "",
          "type": "string"
        }
      ],
      "stateMutability": "view",
      "type": "function",
      "constant": true
    },
    {
      "inputs": [],
      "name": "token",
      "outputs": [
        {
          "internalType": "contract IBSTToken",
          "name": "",
          "type": "address"
        }
      ],
      "stateMutability": "view",
      "type": "function",
      "constant": true
    },
    {
      "inputs": [
        {
          "internalType": "address",
          "name": "newOwner",
          "type": "address"
        }
      ],
      "name": "transferOwnership",
      "outputs": [],
      "stateMutability": "nonpayable",
      "type": "function"
    },
    {
      "inputs": [
        {
          "internalType": "uint256",
          "name": "",
          "type": "uint256"
        },
        {
          "internalType": "address",
          "name": "",
          "type": "address"
        }
      ],
      "name": "userInfo",
      "outputs": [
        {
          "internalType": "uint256",
          "name": "amount",
          "type": "uint256"
        },
        {
          "internalType": "uint256",
          "name": "rewardDebt",
          "type": "uint256"
        }
      ],
      "stateMutability": "view",
      "type": "function",
      "constant": true
    },
    {
      "inputs": [
        {
          "internalType": "contract IBSTMinter",
          "name": "_minter",
          "type": "address"
        }
      ],
      "name": "setMinter",
      "outputs": [],
      "stateMutability": "nonpayable",
      "type": "function"
    },
    {
      "inputs": [],
      "name": "poolLength",
      "outputs": [
        {
          "internalType": "uint256",
          "name": "",
          "type": "uint256"
        }
      ],
      "stateMutability": "view",
      "type": "function",
      "constant": true
    },
    {
      "inputs": [
        {
          "internalType": "contract IBEP20",
          "name": "_lpToken",
          "type": "address"
        },
        {
          "internalType": "bool",
          "name": "_withUpdate",
          "type": "bool"
        }
      ],
      "name": "add",
      "outputs": [],
      "stateMutability": "nonpayable",
      "type": "function"
    },
    {
      "inputs": [
        {
          "internalType": "uint256",
          "name": "_pid",
          "type": "uint256"
        },
        {
          "internalType": "bool",
          "name": "_withUpdate",
          "type": "bool"
        }
      ],
      "name": "set",
      "outputs": [],
      "stateMutability": "nonpayable",
      "type": "function"
    },
    {
      "inputs": [
        {
          "internalType": "uint256",
          "name": "_pid",
          "type": "uint256"
        },
        {
          "internalType": "address",
          "name": "_user",
          "type": "address"
        }
      ],
      "name": "pendingReward",
      "outputs": [
        {
          "internalType": "uint256",
          "name": "",
          "type": "uint256"
        }
      ],
      "stateMutability": "view",
      "type": "function",
      "constant": true
    },
    {
      "inputs": [],
      "name": "massUpdatePools",
      "outputs": [],
      "stateMutability": "nonpayable",
      "type": "function"
    },
    {
      "inputs": [
        {
          "internalType": "uint256",
          "name": "_pid",
          "type": "uint256"
        }
      ],
      "name": "updatePool",
      "outputs": [],
      "stateMutability": "nonpayable",
      "type": "function"
    },
    {
      "inputs": [
        {
          "internalType": "uint256",
          "name": "_pid",
          "type": "uint256"
        },
        {
          "internalType": "uint256",
          "name": "_amount",
          "type": "uint256"
        }
      ],
      "name": "deposit",
      "outputs": [],
      "stateMutability": "nonpayable",
      "type": "function"
    },
    {
      "inputs": [
        {
          "internalType": "uint256",
          "name": "_pid",
          "type": "uint256"
        },
        {
          "internalType": "uint256",
          "name": "_amount",
          "type": "uint256"
        }
      ],
      "name": "withdraw",
      "outputs": [],
      "stateMutability": "nonpayable",
      "type": "function"
    },
    {
      "inputs": [
        {
          "internalType": "uint256",
          "name": "_pid",
          "type": "uint256"
        }
      ],
      "name": "emergencyWithdraw",
      "outputs": [],
      "stateMutability": "nonpayable",
      "type": "function"
    },
    {
      "inputs": [
        {
          "internalType": "contract IBSTToken",
          "name": "_token",
          "type": "address"
        }
      ],
      "name": "setToken",
      "outputs": [],
      "stateMutability": "nonpayable",
      "type": "function"
    },
    {
      "inputs": [],
      "name": "getTokenAddress",
      "outputs": [
        {
          "internalType": "address",
          "name": "",
          "type": "address"
        }
      ],
      "stateMutability": "view",
      "type": "function",
      "constant": true
    }
  ],
  "bytecode": "0x60c0604052601f60808190527f42537461626c65204c6971756964697479204661726d696e672050726f78790060a090815262000040916001919062000287565b5060408051808201909152600780825266424c46502d563160c81b6020909201918252620000719160029162000287565b503480156200007f57600080fd5b506040516200220d3803806200220d83398181016040526020811015620000a557600080fd5b50516000620000bc6001600160e01b036200015716565b600080546001600160a01b0319166001600160a01b038316908117825560405192935091600080516020620021ed833981519152908290a3506001600160a01b0381166200013c5760405162461bcd60e51b8152600401808060200182810382526023815260200180620021ca6023913960400191505060405180910390fd5b62000150816001600160e01b036200015c16565b5062000329565b335b90565b6200016f6001600160e01b036200015716565b6001600160a01b03166200018b6001600160e01b036200027816565b6001600160a01b031614620001e7576040805162461bcd60e51b815260206004820181905260248201527f4f776e61626c653a2063616c6c6572206973206e6f7420746865206f776e6572604482015290519081900360640190fd5b6001600160a01b0381166200022e5760405162461bcd60e51b8152600401808060200182810382526026815260200180620021a46026913960400191505060405180910390fd5b600080546040516001600160a01b0380851693921691600080516020620021ed83398151915291a3600080546001600160a01b0319166001600160a01b0392909216919091179055565b6000546001600160a01b031690565b828054600181600116156101000203166002900490600052602060002090601f016020900481019282601f10620002ca57805160ff1916838001178555620002fa565b82800160010185558215620002fa579182015b82811115620002fa578251825591602001919060010190620002dd565b50620003089291506200030c565b5090565b6200015991905b8082111562000308576000815560010162000313565b611e6b80620003396000396000f3fe608060405234801561001057600080fd5b50600436106101425760003560e01c8063715018a6116100b8578063b17b658d1161007c578063b17b658d146103ab578063e2bbb158146103e5578063e51b390a14610408578063f2fde38b14610410578063fc0c546a14610436578063fca3b5aa1461043e57610142565b8063715018a6146103225780638da5cb5b1461032a57806393f1a40b1461033257806395d89b411461037757806398969e821461037f57610142565b8063441a3e701161010a578063441a3e701461026a57806351eb05a61461028d5780635312ea8e146102aa57806362f46d56146102c7578063630b5ba1146102ec5780636e983466146102f457610142565b806306fdde0314610147578063081e3eda146101c457806310fe9ae8146101de578063144fa6d7146102025780631526fe271461022a575b600080fd5b61014f610464565b6040805160208082528351818301528351919283929083019185019080838360005b83811015610189578181015183820152602001610171565b50505050905090810190601f1680156101b65780820380516001836020036101000a031916815260200191505b509250505060405180910390f35b6101cc6104f1565b60408051918252519081900360200190f35b6101e66104f7565b604080516001600160a01b039092168252519081900360200190f35b6102286004803603602081101561021857600080fd5b50356001600160a01b0316610506565b005b6102476004803603602081101561024057600080fd5b5035610601565b604080516001600160a01b03909316835260208301919091528051918290030190f35b6102286004803603604081101561028057600080fd5b5080359060200135610636565b610228600480360360208110156102a357600080fd5b503561080e565b610228600480360360208110156102c057600080fd5b503561087c565b610228600480360360408110156102dd57600080fd5b5080359060200135151561091e565b6102286109c5565b6102286004803603604081101561030a57600080fd5b506001600160a01b0381351690602001351515610a31565b610228610c2d565b6101e6610cd9565b61035e6004803603604081101561034857600080fd5b50803590602001356001600160a01b0316610ce8565b6040805192835260208301919091528051918290030190f35b61014f610d0c565b6101cc6004803603604081101561039557600080fd5b50803590602001356001600160a01b0316610d64565b6103d1600480360360208110156103c157600080fd5b50356001600160a01b0316610fb2565b604080519115158252519081900360200190f35b610228600480360360408110156103fb57600080fd5b5080359060200135610fc7565b6101e661113f565b6102286004803603602081101561042657600080fd5b50356001600160a01b031661114e565b6101e6611250565b6102286004803603602081101561045457600080fd5b50356001600160a01b031661125f565b60018054604080516020600284861615610100026000190190941693909304601f810184900484028201840190925281815292918301828280156104e95780601f106104be576101008083540402835291602001916104e9565b820191906000526020600020905b8154815290600101906020018083116104cc57829003601f168201915b505050505081565b60045490565b6003546001600160a01b031690565b61050e61135a565b6001600160a01b031661051f610cd9565b6001600160a01b031614610568576040805162461bcd60e51b81526020600482018190526024820152600080516020611e16833981519152604482015290519081900360640190fd5b6001600160a01b0381166105ad5760405162461bcd60e51b8152600401808060200182810382526023815260200180611df36023913960400191505060405180910390fd5b600380546001600160a01b0383166001600160a01b0319909116811790915560408051918252517fefc1fd16ea80a922086ee4e995739d59b025c1bcea6d1f67855747480c83214b9181900360200190a150565b6004818154811061060e57fe5b6000918252602090912060029091020180546001909101546001600160a01b03909116915082565b60006004838154811061064557fe5b6000918252602080832086845260068252604080852033865290925292208054600290920290920192508311156106b8576040805162461bcd60e51b81526020600482015260126024820152711dda5d1a191c985dce881b9bdd0819dbdbd960721b604482015290519081900360640190fd5b6106c18461135e565b600061070782600101546106fb64e8d4a510006106ef8760010154876000015461163890919063ffffffff16565b9063ffffffff61169816565b9063ffffffff6116ff16565b825460018085015490860154604080518a8152602081019490945283810192909252606083015260808201839052519192507fa090a78bd52431eff8976d43dbaf5ca89cc10077de4ff104d3669cccb2dfc6b6919081900360a00190a1801561077457610774338261175c565b8154610786908563ffffffff6116ff16565b80835560018401546107a99164e8d4a51000916106ef919063ffffffff61163816565b600183015583156107d05782546107d0906001600160a01b0316338663ffffffff61193216565b604080518581529051869133917ff279e6a1f5e320cca91135676d9cb6e44ca8a08c0b88342bcdb1144f6511b5689181900360200190a35050505050565b61081661135a565b6001600160a01b0316610827610cd9565b6001600160a01b031614610870576040805162461bcd60e51b81526020600482018190526024820152600080516020611e16833981519152604482015290519081900360640190fd5b6108798161135e565b50565b60006004828154811061088b57fe5b6000918252602080832085845260068252604080852033808752935284208054858255600182019590955560029093020180549094509192916108e1916001600160a01b0391909116908363ffffffff61193216565b604080518281529051859133917fbb757047c2b5f3974fe26b7c10f732e7bce710b0952a71082702781e62ae05959181900360200190a350505050565b61092661135a565b6001600160a01b0316610937610cd9565b6001600160a01b031614610980576040805162461bcd60e51b81526020600482018190526024820152600080516020611e16833981519152604482015290519081900360640190fd5b801561098e5761098e611984565b6040805183815290517f30932cbd98f47dcd146d81a1e02f9c7117856d02ae0d4e3262315fe89f88adc29181900360200190a15050565b6109cd61135a565b6001600160a01b03166109de610cd9565b6001600160a01b031614610a27576040805162461bcd60e51b81526020600482018190526024820152600080516020611e16833981519152604482015290519081900360640190fd5b610a2f611984565b565b610a3961135a565b6001600160a01b0316610a4a610cd9565b6001600160a01b031614610a93576040805162461bcd60e51b81526020600482018190526024820152600080516020611e16833981519152604482015290519081900360640190fd5b6001600160a01b038216610ad85760405162461bcd60e51b8152600401808060200182810382526023815260200180611df36023913960400191505060405180910390fd5b6001600160a01b03821660009081526005602052604090205460ff1615610b305760405162461bcd60e51b815260040180806020018281038252602c815260200180611dc7602c913960400191505060405180910390fd5b6001600160a01b0382166000908152600560205260409020805460ff191660011790558015610b6157610b61611984565b6040805180820182526001600160a01b038481168083526000602080850182815260048054600181018255935294517f8a35acfbc15ff81a39ae7d344fd709f28e8600b4aa8c65c6b64bfe7fe36bd19b600290930292830180546001600160a01b031916919095161790935592517f8a35acfbc15ff81a39ae7d344fd709f28e8600b4aa8c65c6b64bfe7fe36bd19c90930192909255825191825291517f8c82d670bc9247c2cfb6964089bc9cff0255f9caade6fbc74a13368083e55466929181900390910190a15050565b610c3561135a565b6001600160a01b0316610c46610cd9565b6001600160a01b031614610c8f576040805162461bcd60e51b81526020600482018190526024820152600080516020611e16833981519152604482015290519081900360640190fd5b600080546040516001600160a01b03909116907f8be0079c531659141344cd1fd0a4f28419497f9722a3daafe3b4186f6b6457e0908390a3600080546001600160a01b0319169055565b6000546001600160a01b031690565b60066020908152600092835260408084209091529082529020805460019091015482565b6002805460408051602060018416156101000260001901909316849004601f810184900484028201840190925281815292918301828280156104e95780601f106104be576101008083540402835291602001916104e9565b60008060048481548110610d7457fe5b600091825260208083208784526006825260408085206001600160a01b0389811687529084528186206002959095029092016001810154815483516370a0823160e01b815230600482015293519298509596909590949316926370a082319260248082019391829003018186803b158015610dee57600080fd5b505afa158015610e02573d6000803e3d6000fd5b505050506040513d6020811015610e1857600080fd5b505160075485546040805163121b947d60e21b81523060048201526001600160a01b0392831660248201528151949550600094929093169263486e51f49260448083019392829003018186803b158015610e7157600080fd5b505afa158015610e85573d6000803e3d6000fd5b505050506040513d6040811015610e9b57600080fd5b506020015190504381108015610eb057508115155b15610f7c57600754855460408051636b09169560e01b81523060048201526001600160a01b03928316602482015290516000939290921691636b09169591604480820192602092909190829003018186803b158015610f0e57600080fd5b505afa158015610f22573d6000803e3d6000fd5b505050506040513d6020811015610f3857600080fd5b5051905060008115610f6257610f5d846106ef8464e8d4a5100063ffffffff61163816565b610f65565b60005b9050610f77858263ffffffff6119a716565b945050505b610fa484600101546106fb64e8d4a510006106ef87896000015461163890919063ffffffff16565b955050505050505b92915050565b60056020526000908152604090205460ff1681565b600060048381548110610fd657fe5b600091825260208083208684526006825260408085203386529092529220600290910290910191506110078461135e565b8054156110a557600061103c82600101546106fb64e8d4a510006106ef8760010154876000015461163890919063ffffffff16565b825460018085015490860154604080518a8152602081019490945283810192909252606083015260808201839052519192507fa090a78bd52431eff8976d43dbaf5ca89cc10077de4ff104d3669cccb2dfc6b6919081900360a00190a16110a3338261175c565b505b80546110b7908463ffffffff6119a716565b80825560018301546110da9164e8d4a51000916106ef919063ffffffff61163816565b60018201558215611102578154611102906001600160a01b031633308663ffffffff611a0116565b604080518481529051859133917f90890809c654f11d6e72a28fa60149770a0d11ec6c92319d6ceb2bb0a4ea1a159181900360200190a350505050565b6007546001600160a01b031681565b61115661135a565b6001600160a01b0316611167610cd9565b6001600160a01b0316146111b0576040805162461bcd60e51b81526020600482018190526024820152600080516020611e16833981519152604482015290519081900360640190fd5b6001600160a01b0381166111f55760405162461bcd60e51b8152600401808060200182810382526026815260200180611d5a6026913960400191505060405180910390fd5b600080546040516001600160a01b03808516939216917f8be0079c531659141344cd1fd0a4f28419497f9722a3daafe3b4186f6b6457e091a3600080546001600160a01b0319166001600160a01b0392909216919091179055565b6003546001600160a01b031681565b61126761135a565b6001600160a01b0316611278610cd9565b6001600160a01b0316146112c1576040805162461bcd60e51b81526020600482018190526024820152600080516020611e16833981519152604482015290519081900360640190fd5b6001600160a01b0381166113065760405162461bcd60e51b8152600401808060200182810382526023815260200180611df36023913960400191505060405180910390fd5b600780546001600160a01b0383166001600160a01b0319909116811790915560408051918252517fcec52196e972044edde8689a1b608e459c5946b7f3e5c8cd3d6d8e126d422e1c9181900360200190a150565b3390565b60006004828154811061136d57fe5b60009182526020822060075460029092020180546040805163121b947d60e21b81523060048201526001600160a01b0392831660248201528151939650919093169263486e51f492604480840193829003018186803b1580156113cf57600080fd5b505afa1580156113e3573d6000803e3d6000fd5b505050506040513d60408110156113f957600080fd5b5060200151905043811061140e575050610879565b8154604080516370a0823160e01b815230600482015290516000926001600160a01b0316916370a08231916024808301926020929190829003018186803b15801561145857600080fd5b505afa15801561146c573d6000803e3d6000fd5b505050506040513d602081101561148257600080fd5b505190508061153b576007548354604080516363238b2160e01b81526001600160a01b039283166004820152905191909216916363238b2191602480830192600092919082900301818387803b1580156114db57600080fd5b505af11580156114ef573d6000803e3d6000fd5b50506040805187815260208101869052438183015290517fa999845d95de9d56580065fc2fea22f287787fabaaa900fb9d10a97e5884aaab9350908190036060019150a1505050610879565b6007548354604080516335313c2160e11b81526001600160a01b03928316600482015290516000939290921691636a6278429160248082019260209290919082900301818787803b15801561158f57600080fd5b505af11580156115a3573d6000803e3d6000fd5b505050506040513d60208110156115b957600080fd5b505190506115ea6115d9836106ef8464e8d4a5100063ffffffff61163816565b60018601549063ffffffff6119a716565b60018501819055604080518781526020810192909252818101839052517ff5d2d72d9b25d6853afd7d0554a113b705234b6a68bb36b7f1436629946324119181900360600190a15050505050565b60008261164757506000610fac565b8282028284828161165457fe5b04146116915760405162461bcd60e51b8152600401808060200182810382526021815260200180611da66021913960400191505060405180910390fd5b9392505050565b60008082116116ee576040805162461bcd60e51b815260206004820152601a60248201527f536166654d6174683a206469766973696f6e206279207a65726f000000000000604482015290519081900360640190fd5b8183816116f757fe5b049392505050565b600082821115611756576040805162461bcd60e51b815260206004820152601e60248201527f536166654d6174683a207375627472616374696f6e206f766572666c6f770000604482015290519081900360640190fd5b50900390565b6001600160a01b0382166117a15760405162461bcd60e51b8152600401808060200182810382526023815260200180611df36023913960400191505060405180910390fd5b600354604080516370a0823160e01b815230600482015290516000926001600160a01b0316916370a08231916024808301926020929190829003018186803b1580156117ec57600080fd5b505afa158015611800573d6000803e3d6000fd5b505050506040513d602081101561181657600080fd5b50519050808211156118aa576003546040805163a9059cbb60e01b81526001600160a01b038681166004830152602482018590529151919092169163a9059cbb9160448083019260209291908290030181600087803b15801561187857600080fd5b505af115801561188c573d6000803e3d6000fd5b505050506040513d60208110156118a257600080fd5b5061192d9050565b6003546040805163a9059cbb60e01b81526001600160a01b038681166004830152602482018690529151919092169163a9059cbb9160448083019260209291908290030181600087803b15801561190057600080fd5b505af1158015611914573d6000803e3d6000fd5b505050506040513d602081101561192a57600080fd5b50505b505050565b604080516001600160a01b038416602482015260448082018490528251808303909101815260649091019091526020810180516001600160e01b031663a9059cbb60e01b17905261192d908490611a61565b60045460005b818110156119a35761199b8161135e565b60010161198a565b5050565b600082820183811015611691576040805162461bcd60e51b815260206004820152601b60248201527f536166654d6174683a206164646974696f6e206f766572666c6f770000000000604482015290519081900360640190fd5b604080516001600160a01b0380861660248301528416604482015260648082018490528251808303909101815260849091019091526020810180516001600160e01b03166323b872dd60e01b179052611a5b908590611a61565b50505050565b6060611ab6826040518060400160405280602081526020017f5361666542455032303a206c6f772d6c6576656c2063616c6c206661696c6564815250856001600160a01b0316611b129092919063ffffffff16565b80519091501561192d57808060200190516020811015611ad557600080fd5b505161192d5760405162461bcd60e51b815260040180806020018281038252602a815260200180611d30602a913960400191505060405180910390fd5b6060611b218484600085611b29565b949350505050565b606082471015611b6a5760405162461bcd60e51b8152600401808060200182810382526026815260200180611d806026913960400191505060405180910390fd5b611b7385611c85565b611bc4576040805162461bcd60e51b815260206004820152601d60248201527f416464726573733a2063616c6c20746f206e6f6e2d636f6e7472616374000000604482015290519081900360640190fd5b60006060866001600160a01b031685876040518082805190602001908083835b60208310611c035780518252601f199092019160209182019101611be4565b6001836020036101000a03801982511681845116808217855250505050505090500191505060006040518083038185875af1925050503d8060008114611c65576040519150601f19603f3d011682016040523d82523d6000602084013e611c6a565b606091505b5091509150611c7a828286611c8b565b979650505050505050565b3b151590565b60608315611c9a575081611691565b825115611caa5782518084602001fd5b8160405162461bcd60e51b81526004018080602001828103825283818151815260200191508051906020019080838360005b83811015611cf4578181015183820152602001611cdc565b50505050905090810190601f168015611d215780820380516001836020036101000a031916815260200191505b509250505060405180910390fdfe5361666542455032303a204245503230206f7065726174696f6e20646964206e6f7420737563636565644f776e61626c653a206e6577206f776e657220697320746865207a65726f2061646472657373416464726573733a20696e73756666696369656e742062616c616e636520666f722063616c6c536166654d6174683a206d756c7469706c69636174696f6e206f766572666c6f774c697175646974794661726d696e6750726f78793a205f6c70546f6b656e20616c72656164792065786973744c69717569646974794661726d696e6750726f78793a206e6f203020616464726573734f776e61626c653a2063616c6c6572206973206e6f7420746865206f776e6572a2646970667358221220ccf4da7ee9ca40522317c2e1d142320b96fe3437f5d74508ddab4d99eb8005ef64736f6c634300060600334f776e61626c653a206e6577206f776e657220697320746865207a65726f20616464726573734c69717569646974794661726d696e6750726f78793a206e6f203020616464726573738be0079c531659141344cd1fd0a4f28419497f9722a3daafe3b4186f6b6457e0",
  "immutableReferences": {},
  "source": "// SPDX-License-Identifier: MIT\n\npragma solidity ^0.6.0;\n\nimport \"./interfaces/IBEP20.sol\";\nimport \"./interfaces/IBStablePool.sol\";\nimport \"./interfaces/IBSTMinter.sol\";\nimport \"./interfaces/IBSTToken.sol\";\nimport \"./lib/SafeBEP20.sol\";\nimport \"@openzeppelin/contracts/math/SafeMath.sol\";\nimport \"@openzeppelin/contracts/access/Ownable.sol\";\n\n/// @title Implement liquitidy farming.\ncontract LiquidityFarmingProxy is Ownable {\n    using SafeMath for uint256;\n    using SafeBEP20 for IBEP20;\n    struct UserInfo {\n        uint256 amount; /// @dev How many LP tokens the user has provided.\n        uint256 rewardDebt; /// @dev Reward debt. See explanation below.\n    }\n    /// @notice Info of each pool.\n    struct PoolInfo {\n        IBEP20 lpToken; /// @dev Address of LP token contract.\n        uint256 accTokenPerShare; /// @dev Accumulated BSTs per share, times 1e12. See below.\n    }\n    string public name = \"BStable Liquidity Farming Proxy\";\n    string public symbol = \"BLFP-V1\";\n    IBSTToken public token;\n    /// @notice Info of each pool.\n    PoolInfo[] public poolInfo;\n    /// @notice Save lp tokens whether exists.\n    mapping(address => bool) public lpTokens;\n    /// @notice Info of each user that stakes LP tokens.\n    mapping(uint256 => mapping(address => UserInfo)) public userInfo;\n    /// @notice For mint BST\n    IBSTMinter public bstMinter;\n\n    event Deposit(address indexed user, uint256 indexed pid, uint256 amount);\n    event Withdraw(address indexed user, uint256 indexed pid, uint256 amount);\n    event EmergencyWithdraw(\n        address indexed user,\n        uint256 indexed pid,\n        uint256 amount\n    );\n    event SetMinter(address _minter);\n    event AddPool(address _poolAddress);\n    event SetPool(uint256 _pid);\n    event UpdatePool(\n        uint256 _pid,\n        uint256 accTokenPerShare,\n        uint256 _tokenReward\n    );\n    event CalculatePending(\n        uint256 _pid,\n        uint256 _amount,\n        uint256 rewardDebt,\n        uint256 accTokenPerShare,\n        uint256 pending\n    );\n    event SetToken(address _token);\n    event ZeroLPStaking(\n        uint256 _pid,\n        uint256 _lastRewardBlock,\n        uint256 blockNumber\n    );\n\n    constructor(address ownerAddress) public {\n        require(\n            ownerAddress != address(0),\n            \"LiquidityFarmingProxy: no 0 address\"\n        );\n        transferOwnership(ownerAddress);\n    }\n\n    function setMinter(IBSTMinter _minter) public onlyOwner {\n        require(\n            address(_minter) != address(0),\n            \"LiquidityFarmingProxy: no 0 address\"\n        );\n        bstMinter = _minter;\n        emit SetMinter(address(_minter));\n    }\n\n    function poolLength() external view returns (uint256) {\n        return poolInfo.length;\n    }\n\n    /// @notice Add a new lp to the pool. Can only be called by the owner.\n    function add(IBEP20 _lpToken, bool _withUpdate) public onlyOwner {\n        require(\n            address(_lpToken) != address(0),\n            \"LiquidityFarmingProxy: no 0 address\"\n        );\n        require(\n            !lpTokens[address(_lpToken)],\n            \"LiqudityFarmingProxy: _lpToken already exist\"\n        );\n        lpTokens[address(_lpToken)] = true;\n        if (_withUpdate) {\n            _massUpdatePools();\n        }\n        poolInfo.push(PoolInfo({lpToken: _lpToken, accTokenPerShare: 0}));\n        emit AddPool(address(_lpToken));\n    }\n\n    /// @notice Update the given pool's BST allocation point. Can only be called by the owner.\n    function set(uint256 _pid, bool _withUpdate) public onlyOwner {\n        if (_withUpdate) {\n            _massUpdatePools();\n        }\n        emit SetPool(_pid);\n    }\n\n    /// @notice View function to see pending BSTs on frontend.\n    function pendingReward(uint256 _pid, address _user)\n        external\n        view\n        returns (uint256)\n    {\n        PoolInfo storage pool = poolInfo[_pid];\n        UserInfo storage user = userInfo[_pid][_user];\n        uint256 accTokenPerShare = pool.accTokenPerShare;\n        uint256 lpSupply = pool.lpToken.balanceOf(address(this));\n        (, uint256 _lastRewardBlock) =\n            bstMinter.getPoolInfo(address(this), address(pool.lpToken));\n        if (block.number > _lastRewardBlock && lpSupply != 0) {\n            uint256 tokenReward =\n                bstMinter.getReward(address(this), address(pool.lpToken));\n            uint256 nAccTokenPerShare =\n                tokenReward == 0 ? 0 : tokenReward.mul(1e12).div(lpSupply);\n            accTokenPerShare = accTokenPerShare.add(nAccTokenPerShare);\n        }\n        return user.amount.mul(accTokenPerShare).div(1e12).sub(user.rewardDebt);\n    }\n\n    /// @dev Mass update pools.\n    function massUpdatePools() public onlyOwner {\n        _massUpdatePools();\n    }\n\n    /// @notice Update reward vairables for all pools. Be careful of gas spending!\n    function _massUpdatePools() internal {\n        uint256 length = poolInfo.length;\n        for (uint256 pid = 0; pid < length; ++pid) {\n            _updatePool(pid);\n        }\n    }\n\n    /// @dev Mass update pools.\n    /// @param _pid pool's index.\n    function updatePool(uint256 _pid) public onlyOwner {\n        _updatePool(_pid);\n    }\n\n    /// @notice Update reward variables of the given pool to be up-to-date.\n    /// @param _pid pool's index.\n    function _updatePool(uint256 _pid) internal {\n        PoolInfo storage pool = poolInfo[_pid];\n        (, uint256 _lastRewardBlock) =\n            bstMinter.getPoolInfo(address(this), address(pool.lpToken));\n        if (block.number <= _lastRewardBlock) {\n            return;\n        }\n        uint256 lpSupply = pool.lpToken.balanceOf(address(this));\n        if (lpSupply == 0) {\n            bstMinter.updateLastRewardBlock(address(pool.lpToken));\n            emit ZeroLPStaking(_pid, _lastRewardBlock, block.number);\n            return;\n        }\n        uint256 tokenReward = bstMinter.mint(address(pool.lpToken));\n        pool.accTokenPerShare = pool.accTokenPerShare.add(\n            tokenReward.mul(1e12).div(lpSupply)\n        );\n        emit UpdatePool(_pid, pool.accTokenPerShare, tokenReward);\n    }\n\n    /// @notice Deposit LP tokens to BStableProxyV2 for BST allocation.\n    function deposit(uint256 _pid, uint256 _amount) public {\n        PoolInfo storage pool = poolInfo[_pid];\n        UserInfo storage user = userInfo[_pid][msg.sender];\n        _updatePool(_pid);\n        if (user.amount > 0) {\n            uint256 pending =\n                user.amount.mul(pool.accTokenPerShare).div(1e12).sub(\n                    user.rewardDebt\n                );\n            emit CalculatePending(\n                _pid,\n                user.amount,\n                user.rewardDebt,\n                pool.accTokenPerShare,\n                pending\n            );\n            safeTokenTransfer(msg.sender, pending);\n        }\n        user.amount = user.amount.add(_amount);\n        user.rewardDebt = user.amount.mul(pool.accTokenPerShare).div(1e12);\n        if (_amount > 0) {\n            pool.lpToken.safeTransferFrom(\n                address(msg.sender),\n                address(this),\n                _amount\n            );\n        }\n        emit Deposit(msg.sender, _pid, _amount);\n    }\n\n    /// @notice Withdraw LP tokens .\n    function withdraw(uint256 _pid, uint256 _amount) public {\n        PoolInfo storage pool = poolInfo[_pid];\n        UserInfo storage user = userInfo[_pid][msg.sender];\n        require(user.amount >= _amount, \"withdraw: not good\");\n        _updatePool(_pid);\n        uint256 pending =\n            user.amount.mul(pool.accTokenPerShare).div(1e12).sub(\n                user.rewardDebt\n            );\n        emit CalculatePending(\n            _pid,\n            user.amount,\n            user.rewardDebt,\n            pool.accTokenPerShare,\n            pending\n        );\n        if (pending > 0) {\n            safeTokenTransfer(msg.sender, pending);\n        }\n        user.amount = user.amount.sub(_amount);\n        user.rewardDebt = user.amount.mul(pool.accTokenPerShare).div(1e12);\n        if (_amount > 0) {\n            pool.lpToken.safeTransfer(address(msg.sender), _amount);\n        }\n        emit Withdraw(msg.sender, _pid, _amount);\n    }\n\n    /// @notice Withdraw without caring about rewards. EMERGENCY ONLY.\n    function emergencyWithdraw(uint256 _pid) public {\n        PoolInfo storage pool = poolInfo[_pid];\n        UserInfo storage user = userInfo[_pid][msg.sender];\n        uint256 amount_ = user.amount;\n        user.amount = 0;\n        user.rewardDebt = 0;\n        pool.lpToken.safeTransfer(address(msg.sender), amount_);\n        emit EmergencyWithdraw(msg.sender, _pid, amount_);\n    }\n\n    /// @notice Safe token transfer function, just in case if rounding error causes pool to not have enough BSTs.\n    function safeTokenTransfer(address _to, uint256 _amount) internal {\n        require(_to != address(0), \"LiquidityFarmingProxy: no 0 address\");\n        uint256 tokenBal = token.balanceOf(address(this));\n        if (_amount > tokenBal) {\n            token.transfer(_to, tokenBal);\n        } else {\n            token.transfer(_to, _amount);\n        }\n    }\n\n    function setToken(IBSTToken _token) external onlyOwner {\n        require(\n            address(_token) != address(0),\n            \"LiquidityFarmingProxy: no 0 address\"\n        );\n        token = _token;\n        emit SetToken(address(_token));\n    }\n\n    function getTokenAddress() external view returns (address) {\n        return address(token);\n    }\n}\n",
  "sourcePath": "/Users/zhangleping/github.com/0xa8c81519/contracts-210510/contracts/LiquidityFarmingProxy.sol",
  "compiler": {
    "name": "solc",
    "version": "0.6.6+commit.6c089d02.Emscripten.clang"
  },
  "schemaVersion": "3.4.1",
  "updatedAt": "2021-06-12T09:01:58.782Z",
  "networkType": "ethereum",
  "devdoc": {
    "methods": {
      "massUpdatePools()": {
        "details": "Mass update pools."
      },
      "owner()": {
        "details": "Returns the address of the current owner."
      },
      "renounceOwnership()": {
        "details": "Leaves the contract without owner. It will not be possible to call `onlyOwner` functions anymore. Can only be called by the current owner.     * NOTE: Renouncing ownership will leave the contract without an owner, thereby removing any functionality that is only available to the owner."
      },
      "transferOwnership(address)": {
        "details": "Transfers ownership of the contract to a new account (`newOwner`). Can only be called by the current owner."
      },
      "updatePool(uint256)": {
        "details": "Mass update pools.",
        "params": {
          "_pid": "pool's index."
        }
      }
    },
    "title": "Implement liquitidy farming."
  },
  "userdoc": {
    "methods": {
      "add(address,bool)": {
        "notice": "Add a new lp to the pool. Can only be called by the owner."
      },
      "deposit(uint256,uint256)": {
        "notice": "Deposit LP tokens to BStableProxyV2 for BST allocation."
      },
      "emergencyWithdraw(uint256)": {
        "notice": "Withdraw without caring about rewards. EMERGENCY ONLY."
      },
      "pendingReward(uint256,address)": {
        "notice": "View function to see pending BSTs on frontend."
      },
      "set(uint256,bool)": {
        "notice": "Update the given pool's BST allocation point. Can only be called by the owner."
      },
      "withdraw(uint256,uint256)": {
        "notice": "Withdraw LP tokens ."
      }
    }
  }
}