{
  "contractName": "PaymentFarmingProxy",
  "abi": [
    {
      "inputs": [
        {
          "internalType": "string",
          "name": "_name",
          "type": "string"
        },
        {
          "internalType": "string",
          "name": "_symbol",
          "type": "string"
        },
        {
          "internalType": "address",
          "name": "_owner",
          "type": "address"
        },
        {
          "internalType": "address",
          "name": "_dev",
          "type": "address"
        }
      ],
      "stateMutability": "nonpayable",
      "type": "constructor"
    },
    {
      "anonymous": false,
      "inputs": [
        {
          "indexed": false,
          "internalType": "address",
          "name": "_coin",
          "type": "address"
        },
        {
          "indexed": false,
          "internalType": "uint32",
          "name": "index",
          "type": "uint32"
        }
      ],
      "name": "AddCoins",
      "type": "event"
    },
    {
      "anonymous": false,
      "inputs": [
        {
          "indexed": true,
          "internalType": "address",
          "name": "owner",
          "type": "address"
        },
        {
          "indexed": true,
          "internalType": "address",
          "name": "spender",
          "type": "address"
        },
        {
          "indexed": false,
          "internalType": "uint256",
          "name": "value",
          "type": "uint256"
        }
      ],
      "name": "Approval",
      "type": "event"
    },
    {
      "anonymous": false,
      "inputs": [
        {
          "indexed": true,
          "internalType": "address",
          "name": "previousOwner",
          "type": "address"
        },
        {
          "indexed": true,
          "internalType": "address",
          "name": "newOwner",
          "type": "address"
        }
      ],
      "name": "OwnershipTransferred",
      "type": "event"
    },
    {
      "anonymous": false,
      "inputs": [
        {
          "indexed": false,
          "internalType": "address",
          "name": "payToken",
          "type": "address"
        },
        {
          "indexed": false,
          "internalType": "address",
          "name": "receiptToken",
          "type": "address"
        },
        {
          "indexed": false,
          "internalType": "address",
          "name": "payer",
          "type": "address"
        },
        {
          "indexed": false,
          "internalType": "address",
          "name": "recipt",
          "type": "address"
        }
      ],
      "name": "Pay",
      "type": "event"
    },
    {
      "anonymous": false,
      "inputs": [
        {
          "indexed": false,
          "internalType": "address",
          "name": "_coin",
          "type": "address"
        }
      ],
      "name": "RemoveCoins",
      "type": "event"
    },
    {
      "anonymous": false,
      "inputs": [
        {
          "indexed": false,
          "internalType": "address",
          "name": "_dev",
          "type": "address"
        }
      ],
      "name": "SetDev",
      "type": "event"
    },
    {
      "anonymous": false,
      "inputs": [
        {
          "indexed": false,
          "internalType": "contract IBSTMinter",
          "name": "_minter",
          "type": "address"
        }
      ],
      "name": "SetMinter",
      "type": "event"
    },
    {
      "anonymous": false,
      "inputs": [
        {
          "indexed": false,
          "internalType": "uint256",
          "name": "_fee",
          "type": "uint256"
        }
      ],
      "name": "SetPaymentFee",
      "type": "event"
    },
    {
      "anonymous": false,
      "inputs": [
        {
          "indexed": false,
          "internalType": "contract IBStablePool",
          "name": "_pool",
          "type": "address"
        }
      ],
      "name": "SetPool",
      "type": "event"
    },
    {
      "anonymous": false,
      "inputs": [
        {
          "indexed": false,
          "internalType": "contract IBSTToken",
          "name": "_token",
          "type": "address"
        }
      ],
      "name": "SetToken",
      "type": "event"
    },
    {
      "anonymous": false,
      "inputs": [
        {
          "indexed": true,
          "internalType": "address",
          "name": "from",
          "type": "address"
        },
        {
          "indexed": true,
          "internalType": "address",
          "name": "to",
          "type": "address"
        },
        {
          "indexed": false,
          "internalType": "uint256",
          "name": "value",
          "type": "uint256"
        }
      ],
      "name": "Transfer",
      "type": "event"
    },
    {
      "anonymous": false,
      "inputs": [
        {
          "indexed": false,
          "internalType": "uint256",
          "name": "_quantity",
          "type": "uint256"
        },
        {
          "indexed": false,
          "internalType": "uint256",
          "name": "_totalQuantity",
          "type": "uint256"
        },
        {
          "indexed": false,
          "internalType": "uint256",
          "name": "_userReward",
          "type": "uint256"
        }
      ],
      "name": "WithdrawReward",
      "type": "event"
    },
    {
      "inputs": [
        {
          "internalType": "address",
          "name": "owner",
          "type": "address"
        },
        {
          "internalType": "address",
          "name": "spender",
          "type": "address"
        }
      ],
      "name": "allowance",
      "outputs": [
        {
          "internalType": "uint256",
          "name": "",
          "type": "uint256"
        }
      ],
      "stateMutability": "view",
      "type": "function",
      "constant": true
    },
    {
      "inputs": [
        {
          "internalType": "address",
          "name": "spender",
          "type": "address"
        },
        {
          "internalType": "uint256",
          "name": "amount",
          "type": "uint256"
        }
      ],
      "name": "approve",
      "outputs": [
        {
          "internalType": "bool",
          "name": "",
          "type": "bool"
        }
      ],
      "stateMutability": "nonpayable",
      "type": "function"
    },
    {
      "inputs": [
        {
          "internalType": "address",
          "name": "account",
          "type": "address"
        }
      ],
      "name": "balanceOf",
      "outputs": [
        {
          "internalType": "uint256",
          "name": "",
          "type": "uint256"
        }
      ],
      "stateMutability": "view",
      "type": "function",
      "constant": true
    },
    {
      "inputs": [],
      "name": "bstMinter",
      "outputs": [
        {
          "internalType": "contract IBSTMinter",
          "name": "",
          "type": "address"
        }
      ],
      "stateMutability": "view",
      "type": "function",
      "constant": true
    },
    {
      "inputs": [
        {
          "internalType": "address",
          "name": "",
          "type": "address"
        }
      ],
      "name": "coins",
      "outputs": [
        {
          "internalType": "uint256",
          "name": "index",
          "type": "uint256"
        },
        {
          "internalType": "bool",
          "name": "available",
          "type": "bool"
        }
      ],
      "stateMutability": "view",
      "type": "function",
      "constant": true
    },
    {
      "inputs": [],
      "name": "decimals",
      "outputs": [
        {
          "internalType": "uint8",
          "name": "",
          "type": "uint8"
        }
      ],
      "stateMutability": "view",
      "type": "function",
      "constant": true
    },
    {
      "inputs": [
        {
          "internalType": "address",
          "name": "spender",
          "type": "address"
        },
        {
          "internalType": "uint256",
          "name": "subtractedValue",
          "type": "uint256"
        }
      ],
      "name": "decreaseAllowance",
      "outputs": [
        {
          "internalType": "bool",
          "name": "",
          "type": "bool"
        }
      ],
      "stateMutability": "nonpayable",
      "type": "function"
    },
    {
      "inputs": [],
      "name": "devAddress",
      "outputs": [
        {
          "internalType": "address",
          "name": "",
          "type": "address"
        }
      ],
      "stateMutability": "view",
      "type": "function",
      "constant": true
    },
    {
      "inputs": [
        {
          "internalType": "address",
          "name": "spender",
          "type": "address"
        },
        {
          "internalType": "uint256",
          "name": "addedValue",
          "type": "uint256"
        }
      ],
      "name": "increaseAllowance",
      "outputs": [
        {
          "internalType": "bool",
          "name": "",
          "type": "bool"
        }
      ],
      "stateMutability": "nonpayable",
      "type": "function"
    },
    {
      "inputs": [],
      "name": "name",
      "outputs": [
        {
          "internalType": "string",
          "name": "",
          "type": "string"
        }
      ],
      "stateMutability": "view",
      "type": "function",
      "constant": true
    },
    {
      "inputs": [],
      "name": "owner",
      "outputs": [
        {
          "internalType": "address",
          "name": "",
          "type": "address"
        }
      ],
      "stateMutability": "view",
      "type": "function",
      "constant": true
    },
    {
      "inputs": [],
      "name": "paymentFee",
      "outputs": [
        {
          "internalType": "uint256",
          "name": "",
          "type": "uint256"
        }
      ],
      "stateMutability": "view",
      "type": "function",
      "constant": true
    },
    {
      "inputs": [],
      "name": "pool",
      "outputs": [
        {
          "internalType": "contract IBStablePool",
          "name": "",
          "type": "address"
        }
      ],
      "stateMutability": "view",
      "type": "function",
      "constant": true
    },
    {
      "inputs": [],
      "name": "renounceOwnership",
      "outputs": [],
      "stateMutability": "nonpayable",
      "type": "function"
    },
    {
      "inputs": [],
      "name": "symbol",
      "outputs": [
        {
          "internalType": "string",
          "name": "",
          "type": "string"
        }
      ],
      "stateMutability": "view",
      "type": "function",
      "constant": true
    },
    {
      "inputs": [],
      "name": "token",
      "outputs": [
        {
          "internalType": "contract IBSTToken",
          "name": "",
          "type": "address"
        }
      ],
      "stateMutability": "view",
      "type": "function",
      "constant": true
    },
    {
      "inputs": [],
      "name": "totalQuantity",
      "outputs": [
        {
          "internalType": "uint256",
          "name": "",
          "type": "uint256"
        }
      ],
      "stateMutability": "view",
      "type": "function",
      "constant": true
    },
    {
      "inputs": [],
      "name": "totalSupply",
      "outputs": [
        {
          "internalType": "uint256",
          "name": "",
          "type": "uint256"
        }
      ],
      "stateMutability": "view",
      "type": "function",
      "constant": true
    },
    {
      "inputs": [
        {
          "internalType": "address",
          "name": "recipient",
          "type": "address"
        },
        {
          "internalType": "uint256",
          "name": "amount",
          "type": "uint256"
        }
      ],
      "name": "transfer",
      "outputs": [
        {
          "internalType": "bool",
          "name": "",
          "type": "bool"
        }
      ],
      "stateMutability": "nonpayable",
      "type": "function"
    },
    {
      "inputs": [
        {
          "internalType": "address",
          "name": "sender",
          "type": "address"
        },
        {
          "internalType": "address",
          "name": "recipient",
          "type": "address"
        },
        {
          "internalType": "uint256",
          "name": "amount",
          "type": "uint256"
        }
      ],
      "name": "transferFrom",
      "outputs": [
        {
          "internalType": "bool",
          "name": "",
          "type": "bool"
        }
      ],
      "stateMutability": "nonpayable",
      "type": "function"
    },
    {
      "inputs": [
        {
          "internalType": "address",
          "name": "newOwner",
          "type": "address"
        }
      ],
      "name": "transferOwnership",
      "outputs": [],
      "stateMutability": "nonpayable",
      "type": "function"
    },
    {
      "inputs": [
        {
          "internalType": "address",
          "name": "",
          "type": "address"
        }
      ],
      "name": "userInfo",
      "outputs": [
        {
          "internalType": "uint256",
          "name": "quantity",
          "type": "uint256"
        },
        {
          "internalType": "uint256",
          "name": "blockNumber",
          "type": "uint256"
        }
      ],
      "stateMutability": "view",
      "type": "function",
      "constant": true
    },
    {
      "inputs": [
        {
          "internalType": "uint256",
          "name": "_fee",
          "type": "uint256"
        }
      ],
      "name": "setPaymentFee",
      "outputs": [],
      "stateMutability": "nonpayable",
      "type": "function"
    },
    {
      "inputs": [
        {
          "internalType": "contract IBSTMinter",
          "name": "_minter",
          "type": "address"
        }
      ],
      "name": "setMinter",
      "outputs": [],
      "stateMutability": "nonpayable",
      "type": "function"
    },
    {
      "inputs": [
        {
          "internalType": "uint256",
          "name": "_allocPoint",
          "type": "uint256"
        }
      ],
      "name": "add",
      "outputs": [],
      "stateMutability": "nonpayable",
      "type": "function"
    },
    {
      "inputs": [
        {
          "internalType": "uint256",
          "name": "_allocPoint",
          "type": "uint256"
        }
      ],
      "name": "set",
      "outputs": [],
      "stateMutability": "nonpayable",
      "type": "function"
    },
    {
      "inputs": [],
      "name": "massUpdate",
      "outputs": [],
      "stateMutability": "nonpayable",
      "type": "function"
    },
    {
      "inputs": [
        {
          "internalType": "address",
          "name": "_dev",
          "type": "address"
        }
      ],
      "name": "setDev",
      "outputs": [],
      "stateMutability": "nonpayable",
      "type": "function"
    },
    {
      "inputs": [
        {
          "internalType": "contract IBSTToken",
          "name": "_token",
          "type": "address"
        }
      ],
      "name": "setToken",
      "outputs": [],
      "stateMutability": "nonpayable",
      "type": "function"
    },
    {
      "inputs": [
        {
          "internalType": "address",
          "name": "_coin",
          "type": "address"
        },
        {
          "internalType": "uint32",
          "name": "index",
          "type": "uint32"
        }
      ],
      "name": "addCoins",
      "outputs": [],
      "stateMutability": "nonpayable",
      "type": "function"
    },
    {
      "inputs": [
        {
          "internalType": "address",
          "name": "_coin",
          "type": "address"
        }
      ],
      "name": "removeCoins",
      "outputs": [],
      "stateMutability": "nonpayable",
      "type": "function"
    },
    {
      "inputs": [
        {
          "internalType": "contract IBStablePool",
          "name": "_pool",
          "type": "address"
        }
      ],
      "name": "setPool",
      "outputs": [],
      "stateMutability": "nonpayable",
      "type": "function"
    },
    {
      "inputs": [
        {
          "internalType": "address",
          "name": "receiptToken",
          "type": "address"
        },
        {
          "internalType": "address",
          "name": "receipt",
          "type": "address"
        },
        {
          "internalType": "uint256",
          "name": "amt",
          "type": "uint256"
        }
      ],
      "name": "pay",
      "outputs": [],
      "stateMutability": "nonpayable",
      "type": "function"
    },
    {
      "inputs": [
        {
          "internalType": "address",
          "name": "payToken",
          "type": "address"
        },
        {
          "internalType": "address",
          "name": "receiptToken",
          "type": "address"
        },
        {
          "internalType": "uint256",
          "name": "payAmt",
          "type": "uint256"
        },
        {
          "internalType": "uint256",
          "name": "receiptAmt",
          "type": "uint256"
        },
        {
          "internalType": "address",
          "name": "receipt",
          "type": "address"
        }
      ],
      "name": "payWithSwap",
      "outputs": [],
      "stateMutability": "nonpayable",
      "type": "function"
    },
    {
      "inputs": [],
      "name": "withdrawReward",
      "outputs": [],
      "stateMutability": "nonpayable",
      "type": "function"
    },
    {
      "inputs": [
        {
          "internalType": "address",
          "name": "_user",
          "type": "address"
        }
      ],
      "name": "getUserReward",
      "outputs": [
        {
          "internalType": "uint256",
          "name": "",
          "type": "uint256"
        }
      ],
      "stateMutability": "view",
      "type": "function",
      "constant": true
    }
  ],
  "bytecode": "0x6080604052660aa87bee5380006007553480156200001c57600080fd5b5060405162002f2f38038062002f2f833981810160405260808110156200004257600080fd5b81019080805160405193929190846401000000008211156200006357600080fd5b9083019060208201858111156200007957600080fd5b82516401000000008111828201881017156200009457600080fd5b82525081516020918201929091019080838360005b83811015620000c3578181015183820152602001620000a9565b50505050905090810190601f168015620000f15780820380516001836020036101000a031916815260200191505b50604052602001805160405193929190846401000000008211156200011557600080fd5b9083019060208201858111156200012b57600080fd5b82516401000000008111828201881017156200014657600080fd5b82525081516020918201929091019080838360005b83811015620001755781810151838201526020016200015b565b50505050905090810190601f168015620001a35780820380516001836020036101000a031916815260200191505b50604090815260208281015192909101518651929450925085918591620001d09160039185019062000416565b508051620001e690600490602084019062000416565b50506005805460ff191660121790555060006200020b6001600160e01b03620002d516565b60058054610100600160a81b0319166101006001600160a01b038416908102919091179091556040519192509060009060008051602062002f0f833981519152908290a3506001600160a01b038116620002975760405162461bcd60e51b815260040180806020018281038252602c81526020018062002ebd602c913960400191505060405180910390fd5b620002ab826001600160e01b03620002da16565b600980546001600160a01b0319166001600160a01b039290921691909117905550620004b8915050565b335b90565b620002ed6001600160e01b03620002d516565b6001600160a01b0316620003096001600160e01b036200040216565b6001600160a01b03161462000365576040805162461bcd60e51b815260206004820181905260248201527f4f776e61626c653a2063616c6c6572206973206e6f7420746865206f776e6572604482015290519081900360640190fd5b6001600160a01b038116620003ac5760405162461bcd60e51b815260040180806020018281038252602681526020018062002ee96026913960400191505060405180910390fd5b6005546040516001600160a01b03808416926101009004169060008051602062002f0f83398151915290600090a3600580546001600160a01b0390921661010002610100600160a81b0319909216919091179055565b60055461010090046001600160a01b031690565b828054600181600116156101000203166002900490600052602060002090601f016020900481019282601f106200045957805160ff191683800117855562000489565b8280016001018555821562000489579182015b82811115620004895782518255916020019190600101906200046c565b50620004979291506200049b565b5090565b620002d791905b80821115620004975760008155600101620004a2565b6129f580620004c86000396000f3fe608060405234801561001057600080fd5b506004361061021c5760003560e01c80637d0f7a8811610125578063c885bc58116100ad578063e3bce7181161007c578063e3bce718146106a3578063e51b390a146106c9578063f2fde38b146106d1578063fc0c546a146106f7578063fca3b5aa146106ff5761021c565b8063c885bc581461062a578063d477f05f14610632578063dd62ed3e14610658578063dee7b7b5146106865761021c565b8063a457c2d7116100f4578063a457c2d71461056e578063a9059cbb1461059a578063b3d76188146105c6578063c616f412146105fc578063c75ebb82146106045761021c565b80637d0f7a88146105175780638da5cb5b146105565780639254803a1461055e57806395d89b41146105665761021c565b8063313ce567116101a857806360fe47b11161017757806360fe47b1146104925780636ef06a08146104af57806370a08231146104b7578063715018a6146104dd5780637c775dd8146104e55761021c565b8063313ce5671461041a57806339509351146104385780633ad10ef6146104645780634437152a1461046c5761021c565b8063144fa6d7116101ef578063144fa6d71461034157806316f0115b1461036757806318160ddd1461038b5780631959a002146103a557806323b872dd146103e45761021c565b806306fdde031461022157806307d3b6a21461029e578063095ea7b3146102e45780631003e2d214610324575b600080fd5b610229610725565b6040805160208082528351818301528351919283929083019185019080838360005b8381101561026357818101518382015260200161024b565b50505050905090810190601f1680156102905780820380516001836020036101000a031916815260200191505b509250505060405180910390f35b6102e2600480360360a08110156102b457600080fd5b506001600160a01b0381358116916020810135821691604082013591606081013591608090910135166107bb565b005b610310600480360360408110156102fa57600080fd5b506001600160a01b038135169060200135610b91565b604080519115158252519081900360200190f35b6102e26004803603602081101561033a57600080fd5b5035610baf565b6102e26004803603602081101561035757600080fd5b50356001600160a01b0316610c7f565b61036f610d7a565b604080516001600160a01b039092168252519081900360200190f35b610393610d89565b60408051918252519081900360200190f35b6103cb600480360360208110156103bb57600080fd5b50356001600160a01b0316610d8f565b6040805192835260208301919091528051918290030190f35b610310600480360360608110156103fa57600080fd5b506001600160a01b03813581169160208101359091169060400135610da8565b610422610e35565b6040805160ff9092168252519081900360200190f35b6103106004803603604081101561044e57600080fd5b506001600160a01b038135169060200135610e3e565b61036f610e92565b6102e26004803603602081101561048257600080fd5b50356001600160a01b0316610ea1565b6102e2600480360360208110156104a857600080fd5b5035610f9c565b6103936110b9565b610393600480360360208110156104cd57600080fd5b50356001600160a01b03166110bf565b6102e26110da565b6102e2600480360360408110156104fb57600080fd5b5080356001600160a01b0316906020013563ffffffff1661118c565b61053d6004803603602081101561052d57600080fd5b50356001600160a01b031661132b565b6040805192835290151560208301528051918290030190f35b61036f611347565b6102e261135b565b61022961141f565b6103106004803603604081101561058457600080fd5b506001600160a01b038135169060200135611480565b610310600480360360408110156105b057600080fd5b506001600160a01b0381351690602001356114ee565b6102e2600480360360608110156105dc57600080fd5b506001600160a01b03813581169160208101359091169060400135611502565b61039361176d565b6103936004803603602081101561061a57600080fd5b50356001600160a01b0316611773565b6102e2611833565b6102e26004803603602081101561064857600080fd5b50356001600160a01b03166119ec565b6103936004803603604081101561066e57600080fd5b506001600160a01b0381358116916020013516611ae7565b6102e26004803603602081101561069c57600080fd5b5035611b12565b6102e2600480360360208110156106b957600080fd5b50356001600160a01b0316611baf565b61036f611d21565b6102e2600480360360208110156106e757600080fd5b50356001600160a01b0316611d30565b61036f611e3e565b6102e26004803603602081101561071557600080fd5b50356001600160a01b0316611e4d565b60038054604080516020601f60026000196101006001881615020190951694909404938401819004810282018101909252828152606093909290918301828280156107b15780601f10610786576101008083540402835291602001916107b1565b820191906000526020600020905b81548152906001019060200180831161079457829003601f168201915b5050505050905090565b836001600160a01b0316856001600160a01b03161415610822576040805162461bcd60e51b815260206004820152601860248201527f5061796d656e743a207468652073616d6520746f6b656e2e0000000000000000604482015290519081900360640190fd5b600854604080516335313c2160e11b815230600482015290516001600160a01b0390921691636a627842916024808201926020929091908290030181600087803b15801561086f57600080fd5b505af1158015610883573d6000803e3d6000fd5b505050506040513d602081101561089957600080fd5b50506001600160a01b038086166000908152600d60205260408082205492871682529020546108ca87333088611f48565b6006546108e29088906001600160a01b0316876120a5565b604080516370a0823160e01b815230600482015290516000916001600160a01b038916916370a0823191602480820192602092909190829003018186803b15801561092c57600080fd5b505afa158015610940573d6000803e3d6000fd5b505050506040513d602081101561095657600080fd5b505160065460408051630b68372160e31b81526004810187905260248101869052604481018a90526064810189905290519293506001600160a01b0390911691635b41b9089160848082019260009290919082900301818387803b1580156109bd57600080fd5b505af11580156109d1573d6000803e3d6000fd5b505050506000610a6982896001600160a01b03166370a08231306040518263ffffffff1660e01b815260040180826001600160a01b03166001600160a01b0316815260200191505060206040518083038186803b158015610a3157600080fd5b505afa158015610a45573d6000803e3d6000fd5b505050506040513d6020811015610a5b57600080fd5b50519063ffffffff61220816565b905085811015610ac0576040805162461bcd60e51b815260206004820152601f60248201527f5061796d656e743a207377617020616d7420696e73756666696369656e742e00604482015290519081900360640190fd5b336000908152600a602052604090208054610ae1908863ffffffff61226516565b8155336000908152600a6020526040902043600190910155600b54610b0c908863ffffffff61226516565b600b55610b1a8987896122c6565b610b348933610b2f858b63ffffffff61220816565b6122c6565b604080516001600160a01b03808d168252808c16602083015233828401528816606082015290517f8049bd343471d985a0a44482e4f7e94d9180cc4c4731c410980f5dd5704899889181900360800190a150505050505050505050565b6000610ba5610b9e612429565b848461242d565b5060015b92915050565b610bb7612429565b6001600160a01b0316610bc8611347565b6001600160a01b031614610c11576040805162461bcd60e51b81526020600482018190526024820152600080516020612895833981519152604482015290519081900360640190fd5b60085460408051630571777d60e31b81526004810184905230602482015290516001600160a01b0390921691632b8bbbe89160448082019260009290919082900301818387803b158015610c6457600080fd5b505af1158015610c78573d6000803e3d6000fd5b5050505050565b610c87612429565b6001600160a01b0316610c98611347565b6001600160a01b031614610ce1576040805162461bcd60e51b81526020600482018190526024820152600080516020612895833981519152604482015290519081900360640190fd5b6001600160a01b038116610d265760405162461bcd60e51b81526004018080602001828103825260278152602001806129996027913960400191505060405180910390fd5b600c80546001600160a01b0383166001600160a01b0319909116811790915560408051918252517fefc1fd16ea80a922086ee4e995739d59b025c1bcea6d1f67855747480c83214b9181900360200190a150565b6006546001600160a01b031681565b60025490565b600a602052600090815260409020805460019091015482565b6000610db5848484612519565b610e2b84610dc1612429565b610e268560405180606001604052806028815260200161284c602891396001600160a01b038a16600090815260016020526040812090610dff612429565b6001600160a01b03168152602081019190915260400160002054919063ffffffff61268016565b61242d565b5060019392505050565b60055460ff1690565b6000610ba5610e4b612429565b84610e268560016000610e5c612429565b6001600160a01b03908116825260208083019390935260409182016000908120918c16815292529020549063ffffffff61226516565b6009546001600160a01b031681565b610ea9612429565b6001600160a01b0316610eba611347565b6001600160a01b031614610f03576040805162461bcd60e51b81526020600482018190526024820152600080516020612895833981519152604482015290519081900360640190fd5b6001600160a01b038116610f485760405162461bcd60e51b81526004018080602001828103825260278152602001806129996027913960400191505060405180910390fd5b600680546001600160a01b0383166001600160a01b0319909116811790915560408051918252517f67816c9262630d6052ccaada1732fda377aa9e9abb3bc91cfd887a016a18a43a9181900360200190a150565b610fa4612429565b6001600160a01b0316610fb5611347565b6001600160a01b031614610ffe576040805162461bcd60e51b81526020600482018190526024820152600080516020612895833981519152604482015290519081900360640190fd5b600860009054906101000a90046001600160a01b03166001600160a01b0316635f386b906040518163ffffffff1660e01b8152600401600060405180830381600087803b15801561104e57600080fd5b505af1158015611062573d6000803e3d6000fd5b505060085460408051630704bb0560e31b81523060048201526024810186905290516001600160a01b039092169350633825d828925060448082019260009290919082900301818387803b158015610c6457600080fd5b60075481565b6001600160a01b031660009081526020819052604090205490565b6110e2612429565b6001600160a01b03166110f3611347565b6001600160a01b03161461113c576040805162461bcd60e51b81526020600482018190526024820152600080516020612895833981519152604482015290519081900360640190fd5b60055460405160009161010090046001600160a01b0316907f8be0079c531659141344cd1fd0a4f28419497f9722a3daafe3b4186f6b6457e0908390a360058054610100600160a81b0319169055565b611194612429565b6001600160a01b03166111a5611347565b6001600160a01b0316146111ee576040805162461bcd60e51b81526020600482018190526024820152600080516020612895833981519152604482015290519081900360640190fd5b6001600160a01b0382166112335760405162461bcd60e51b81526004018080602001828103825260278152602001806129996027913960400191505060405180910390fd5b6001600160a01b0382166000908152600d602052604090206001015460ff16156112a4576040805162461bcd60e51b815260206004820152601b60248201527f5061796d656e743a20636f696e732064756d706c6963617465642e0000000000604482015290519081900360640190fd5b60408051808201825263ffffffff8316808252600160208084018281526001600160a01b0388166000818152600d845287902095518655905194909201805460ff19169415159490941790935583519081529182015281517f105ebf94dd0a850e02b95d0c48754fe267309ebb490ee3949d49f1090dc989f2929181900390910190a15050565b600d602052600090815260409020805460019091015460ff1682565b60055461010090046001600160a01b031690565b6008546001600160a01b031633146113a45760405162461bcd60e51b81526004018080602001828103825260308152602001806129236030913960400191505060405180910390fd5b600854604080516335313c2160e11b815230600482015290516001600160a01b0390921691636a627842916024808201926020929091908290030181600087803b1580156113f157600080fd5b505af1158015611405573d6000803e3d6000fd5b505050506040513d602081101561141b57600080fd5b5050565b60048054604080516020601f60026000196101006001881615020190951694909404938401819004810282018101909252828152606093909290918301828280156107b15780601f10610786576101008083540402835291602001916107b1565b6000610ba561148d612429565b84610e26856040518060600160405280602581526020016128fe60259139600160006114b7612429565b6001600160a01b03908116825260208083019390935260409182016000908120918d1681529252902054919063ffffffff61268016565b6000610ba56114fb612429565b8484612519565b604080516370a0823160e01b815233600482015290516001600160a01b038516916370a08231916024808301926020929190829003018186803b15801561154857600080fd5b505afa15801561155c573d6000803e3d6000fd5b505050506040513d602081101561157257600080fd5b50518111156115c8576040805162461bcd60e51b815260206004820152601e60248201527f5061796d656e743a20696e73756666696369656e742062616c616e63652e0000604482015290519081900360640190fd5b600854604080516335313c2160e11b815230600482015290516001600160a01b0390921691636a627842916024808201926020929091908290030181600087803b15801561161557600080fd5b505af1158015611629573d6000803e3d6000fd5b505050506040513d602081101561163f57600080fd5b505060075460009061167290670de0b6b3a76400009061166690859063ffffffff61271716565b9063ffffffff61277016565b336000908152600a602052604090209091506116a5611697848463ffffffff61220816565b82549063ffffffff61226516565b8155336000908152600a60205260409020436001909101556116df6116d0848463ffffffff61220816565b600b549063ffffffff61226516565b600b556009546116fc90869033906001600160a01b031685611f48565b611717853386611712878763ffffffff61220816565b611f48565b604080516001600160a01b03808816808352602083015233828401528616606082015290517f8049bd343471d985a0a44482e4f7e94d9180cc4c4731c410980f5dd5704899889181900360800190a15050505050565b600b5481565b6001600160a01b0381166000908152600a602052604081208054600b5483901561182b57600b54600c54604080516370a0823160e01b8152306004820152905161182893926116669287926001600160a01b03909216916370a0823191602480820192602092909190829003018186803b1580156117f057600080fd5b505afa158015611804573d6000803e3d6000fd5b505050506040513d602081101561181a57600080fd5b50519063ffffffff61271716565b90505b949350505050565b336000908152600a602052604090208054600b5481611899576040805162461bcd60e51b815260206004820152601d60248201527f5061796d656e743a206e6f207061796d656e74207175616e746974792e000000604482015290519081900360640190fd5b600854604080516335313c2160e11b815230600482015290516001600160a01b0390921691636a627842916024808201926020929091908290030181600087803b1580156118e657600080fd5b505af11580156118fa573d6000803e3d6000fd5b505050506040513d602081101561191057600080fd5b5050600c54604080516370a0823160e01b8152306004820152905160009261196c9285926116669288926001600160a01b03909116916370a0823191602480820192602092909190829003018186803b1580156117f057600080fd5b60008555436001860155600b5490915061198c908463ffffffff61220816565b600b55600c546119a6906001600160a01b031633836122c6565b604080518481526020810184905280820183905290517fd3fb528e913f4bbf4dce5c74bea05df6ad20573463aceba438f2747fdc8d1ab69181900360600190a150505050565b6119f4612429565b6001600160a01b0316611a05611347565b6001600160a01b031614611a4e576040805162461bcd60e51b81526020600482018190526024820152600080516020612895833981519152604482015290519081900360640190fd5b6001600160a01b038116611a935760405162461bcd60e51b81526004018080602001828103825260278152602001806129996027913960400191505060405180910390fd5b600980546001600160a01b0383166001600160a01b0319909116811790915560408051918252517f8daa6bb00de042a7d51816fcee4a3d5c1e91a2128fd64fa1a9a38afa0d26beb59181900360200190a150565b6001600160a01b03918216600090815260016020908152604080832093909416825291909152205490565b611b1a612429565b6001600160a01b0316611b2b611347565b6001600160a01b031614611b74576040805162461bcd60e51b81526020600482018190526024820152600080516020612895833981519152604482015290519081900360640190fd5b60078190556040805182815290517f0ba1a395bffa0247eabada1d9f74ddd223a25b0f285cf799bd37d9306a27c4029181900360200190a150565b611bb7612429565b6001600160a01b0316611bc8611347565b6001600160a01b031614611c11576040805162461bcd60e51b81526020600482018190526024820152600080516020612895833981519152604482015290519081900360640190fd5b6001600160a01b038116611c565760405162461bcd60e51b81526004018080602001828103825260278152602001806129996027913960400191505060405180910390fd5b6001600160a01b0381166000908152600d602052604090206001015460ff16611cc6576040805162461bcd60e51b815260206004820152601860248201527f5061796d656e743a20636f696e206e6f206578697374732e0000000000000000604482015290519081900360640190fd5b6001600160a01b0381166000818152600d6020908152604091829020600101805460ff19169055815192835290517fc0d90ee5f61611fa06580819f6c6b6a0edad1297b422e279dc926d3249d891a19281900390910190a150565b6008546001600160a01b031681565b611d38612429565b6001600160a01b0316611d49611347565b6001600160a01b031614611d92576040805162461bcd60e51b81526020600482018190526024820152600080516020612895833981519152604482015290519081900360640190fd5b6001600160a01b038116611dd75760405162461bcd60e51b81526004018080602001828103825260268152602001806128266026913960400191505060405180910390fd5b6005546040516001600160a01b0380841692610100900416907f8be0079c531659141344cd1fd0a4f28419497f9722a3daafe3b4186f6b6457e090600090a3600580546001600160a01b0390921661010002610100600160a81b0319909216919091179055565b600c546001600160a01b031681565b611e55612429565b6001600160a01b0316611e66611347565b6001600160a01b031614611eaf576040805162461bcd60e51b81526020600482018190526024820152600080516020612895833981519152604482015290519081900360640190fd5b6001600160a01b038116611ef45760405162461bcd60e51b81526004018080602001828103825260278152602001806129996027913960400191505060405180910390fd5b600880546001600160a01b0383166001600160a01b0319909116811790915560408051918252517fcec52196e972044edde8689a1b608e459c5946b7f3e5c8cd3d6d8e126d422e1c9181900360200190a150565b604080516001600160a01b0385811660248301528481166044830152606480830185905283518084039091018152608490920183526020820180516001600160e01b03166323b872dd60e01b17815292518251600094606094938a169392918291908083835b60208310611fcd5780518252601f199092019160209182019101611fae565b6001836020036101000a0380198251168184511680821785525050505050509050019150506000604051808303816000865af19150503d806000811461202f576040519150601f19603f3d011682016040523d82523d6000602084013e612034565b606091505b5091509150818015612062575080511580612062575080806020019051602081101561205f57600080fd5b50515b61209d5760405162461bcd60e51b81526004018080602001828103825260248152602001806129536024913960400191505060405180910390fd5b505050505050565b604080516001600160a01b038481166024830152604480830185905283518084039091018152606490920183526020820180516001600160e01b031663095ea7b360e01b178152925182516000946060949389169392918291908083835b602083106121225780518252601f199092019160209182019101612103565b6001836020036101000a0380198251168184511680821785525050505050509050019150506000604051808303816000865af19150503d8060008114612184576040519150601f19603f3d011682016040523d82523d6000602084013e612189565b606091505b50915091508180156121b75750805115806121b757508080602001905160208110156121b457600080fd5b50515b610c78576040805162461bcd60e51b815260206004820152601e60248201527f5472616e7366657248656c7065723a20415050524f56455f4641494c45440000604482015290519081900360640190fd5b60008282111561225f576040805162461bcd60e51b815260206004820152601e60248201527f536166654d6174683a207375627472616374696f6e206f766572666c6f770000604482015290519081900360640190fd5b50900390565b6000828201838110156122bf576040805162461bcd60e51b815260206004820152601b60248201527f536166654d6174683a206164646974696f6e206f766572666c6f770000000000604482015290519081900360640190fd5b9392505050565b604080516001600160a01b038481166024830152604480830185905283518084039091018152606490920183526020820180516001600160e01b031663a9059cbb60e01b178152925182516000946060949389169392918291908083835b602083106123435780518252601f199092019160209182019101612324565b6001836020036101000a0380198251168184511680821785525050505050509050019150506000604051808303816000865af19150503d80600081146123a5576040519150601f19603f3d011682016040523d82523d6000602084013e6123aa565b606091505b50915091508180156123d85750805115806123d857508080602001905160208110156123d557600080fd5b50515b610c78576040805162461bcd60e51b815260206004820152601f60248201527f5472616e7366657248656c7065723a205452414e534645525f4641494c454400604482015290519081900360640190fd5b3390565b6001600160a01b0383166124725760405162461bcd60e51b81526004018080602001828103825260248152602001806128026024913960400191505060405180910390fd5b6001600160a01b0382166124b75760405162461bcd60e51b81526004018080602001828103825260228152602001806129776022913960400191505060405180910390fd5b6001600160a01b03808416600081815260016020908152604080832094871680845294825291829020859055815185815291517f8c5be1e5ebec7d5bd14f71427d1e84f3dd0314c0f7b2291e5b200ac8c7c3b9259281900390910190a3505050565b6001600160a01b03831661255e5760405162461bcd60e51b81526004018080602001828103825260258152602001806127dd6025913960400191505060405180910390fd5b6001600160a01b0382166125a35760405162461bcd60e51b81526004018080602001828103825260238152602001806128db6023913960400191505060405180910390fd5b6125ae8383836127d7565b6125f1816040518060600160405280602681526020016128b5602691396001600160a01b038616600090815260208190526040902054919063ffffffff61268016565b6001600160a01b038085166000908152602081905260408082209390935590841681522054612626908263ffffffff61226516565b6001600160a01b038084166000818152602081815260409182902094909455805185815290519193928716927fddf252ad1be2c89b69c2b068fc378daa952ba7f163c4a11628f55a4df523b3ef92918290030190a3505050565b6000818484111561270f5760405162461bcd60e51b81526004018080602001828103825283818151815260200191508051906020019080838360005b838110156126d45781810151838201526020016126bc565b50505050905090810190601f1680156127015780820380516001836020036101000a031916815260200191505b509250505060405180910390fd5b505050900390565b60008261272657506000610ba9565b8282028284828161273357fe5b04146122bf5760405162461bcd60e51b81526004018080602001828103825260218152602001806128746021913960400191505060405180910390fd5b60008082116127c6576040805162461bcd60e51b815260206004820152601a60248201527f536166654d6174683a206469766973696f6e206279207a65726f000000000000604482015290519081900360640190fd5b8183816127cf57fe5b049392505050565b50505056fe42455032303a207472616e736665722066726f6d20746865207a65726f206164647265737342455032303a20617070726f76652066726f6d20746865207a65726f20616464726573734f776e61626c653a206e6577206f776e657220697320746865207a65726f206164647265737342455032303a207472616e7366657220616d6f756e74206578636565647320616c6c6f77616e6365536166654d6174683a206d756c7469706c69636174696f6e206f766572666c6f774f776e61626c653a2063616c6c6572206973206e6f7420746865206f776e657242455032303a207472616e7366657220616d6f756e7420657863656564732062616c616e636542455032303a207472616e7366657220746f20746865207a65726f206164647265737342455032303a2064656372656173656420616c6c6f77616e63652062656c6f77207a65726f5061796d656e744661726d696e6750726f78793a2063616c6c6572206973206e6f7420746865206273744d696e7465725472616e7366657248656c7065723a205452414e534645525f46524f4d5f4641494c454442455032303a20617070726f766520746f20746865207a65726f20616464726573735061796d656e744661726d696e6750726f78793a2063616e277420626520302061646472657373a264697066735822122099ec2685fd69d07a59cc4ee6eaa7f937a844b7167ee1fc429c3f8759fde2068c64736f6c634300060600335061796d656e744661726d696e6750726f78793a205f6465762063616e2774206265203020616464726573734f776e61626c653a206e6577206f776e657220697320746865207a65726f20616464726573738be0079c531659141344cd1fd0a4f28419497f9722a3daafe3b4186f6b6457e0",
  "immutableReferences": {},
  "source": "// SPDX-License-Identifier: MIT\n\npragma solidity ^0.6.0;\n\nimport \"./interfaces/IBEP20.sol\";\nimport \"./interfaces/IBSTMinter.sol\";\nimport \"./interfaces/IBStablePool.sol\";\nimport \"./interfaces/IBSTToken.sol\";\nimport \"./interfaces/IBSTFarmingProxy.sol\";\nimport \"@openzeppelin/contracts/math/SafeMath.sol\";\nimport \"@openzeppelin/contracts/access/Ownable.sol\";\nimport \"./BEP20.sol\";\nimport \"./lib/TransferHelper.sol\";\n\n/// @title Implement Payment and payment farming.\ncontract PaymentFarmingProxy is BEP20, Ownable, IBSTFarmingProxy {\n    using SafeMath for uint256;\n\n    IBStablePool public pool;\n\n    uint256 public paymentFee = 3_000_000_000_000_000;\n\n    IBSTMinter public bstMinter;\n\n    address public devAddress;\n\n    struct UserInfo {\n        uint256 quantity; // user's volume\n        uint256 blockNumber; // Last transaction block\n    }\n\n    mapping(address => UserInfo) public userInfo;\n\n    uint256 public totalQuantity;\n\n    IBSTToken public token;\n\n    struct CoinInfo {\n        uint256 index;\n        bool available;\n    }\n    mapping(address => CoinInfo) public coins;\n\n    modifier onlyMinter() {\n        require(\n            address(bstMinter) == msg.sender,\n            \"PaymentFarmingProxy: caller is not the bstMinter\"\n        );\n        _;\n    }\n\n    event SetPaymentFee(uint256 _fee);\n    event SetMinter(IBSTMinter _minter);\n    event SetDev(address _dev);\n    event SetToken(IBSTToken _token);\n    event AddCoins(address _coin, uint32 index);\n    event RemoveCoins(address _coin);\n    event SetPool(IBStablePool _pool);\n    event Pay(\n        address payToken,\n        address receiptToken,\n        address payer,\n        address recipt\n    );\n\n    event WithdrawReward(\n        uint256 _quantity,\n        uint256 _totalQuantity,\n        uint256 _userReward\n    );\n\n    constructor(\n        string memory _name,\n        string memory _symbol,\n        address _owner,\n        address _dev\n    ) public BEP20(_name, _symbol) {\n        require(\n            _dev != address(0),\n            \"PaymentFarmingProxy: _dev can't be 0 address\"\n        );\n        transferOwnership(_owner);\n        devAddress = _dev;\n    }\n\n    function setPaymentFee(uint256 _fee) public onlyOwner {\n        paymentFee = _fee;\n        emit SetPaymentFee(_fee);\n    }\n\n    function setMinter(IBSTMinter _minter) public onlyOwner {\n        require(\n            address(_minter) != address(0),\n            \"PaymentFarmingProxy: can't be 0 address\"\n        );\n        bstMinter = _minter;\n        emit SetMinter(_minter);\n    }\n\n    function add(uint256 _allocPoint) public onlyOwner {\n        bstMinter.add(_allocPoint, address(this));\n    }\n\n    function set(uint256 _allocPoint) public onlyOwner {\n        bstMinter.massUpdateProxy();\n        bstMinter.set(address(this), _allocPoint);\n    }\n\n    /// @dev Mass update pools. Only caller is BSTMinter's massUpdateProxy.\n    function massUpdate() public override onlyMinter {\n        bstMinter.mint(address(this));\n    }\n\n    function setDev(address _dev) public onlyOwner {\n        require(_dev != address(0), \"PaymentFarmingProxy: can't be 0 address\");\n        devAddress = _dev;\n        emit SetDev(_dev);\n    }\n\n    function setToken(IBSTToken _token) public onlyOwner {\n        require(\n            address(_token) != address(0),\n            \"PaymentFarmingProxy: can't be 0 address\"\n        );\n        token = _token;\n        emit SetToken(_token);\n    }\n\n    /// @notice Add coins supported.\n    function addCoins(address _coin, uint32 index) public onlyOwner {\n        require(_coin != address(0), \"PaymentFarmingProxy: can't be 0 address\");\n        require(!coins[_coin].available, \"Payment: coins dumplicated.\");\n        coins[_coin] = CoinInfo({index: index, available: true});\n        emit AddCoins(_coin, index);\n    }\n\n    /// @notice Remove coins from supported.\n    function removeCoins(address _coin) public onlyOwner {\n        require(_coin != address(0), \"PaymentFarmingProxy: can't be 0 address\");\n        require(coins[_coin].available, \"Payment: coin no exists.\");\n        coins[_coin].available = false;\n        emit RemoveCoins(_coin);\n    }\n\n    function setPool(IBStablePool _pool) public onlyOwner {\n        require(\n            address(_pool) != address(0),\n            \"PaymentFarmingProxy: can't be 0 address\"\n        );\n        pool = _pool;\n        emit SetPool(_pool);\n    }\n\n    /// @notice Only pay, no need swap.\n    function pay(\n        address receiptToken,\n        address receipt,\n        uint256 amt\n    ) external {\n        require(\n            amt <= IBEP20(receiptToken).balanceOf(msg.sender),\n            \"Payment: insufficient balance.\"\n        );\n        bstMinter.mint(address(this));\n        uint256 fee = amt.mul(paymentFee).div(10**18);\n        UserInfo storage user = userInfo[msg.sender];\n        user.quantity = user.quantity.add(amt.sub(fee));\n        userInfo[msg.sender].blockNumber = block.number;\n        totalQuantity = totalQuantity.add(amt.sub(fee));\n        TransferHelper.safeTransferFrom(\n            receiptToken,\n            msg.sender,\n            devAddress,\n            fee\n        );\n        TransferHelper.safeTransferFrom(\n            receiptToken,\n            msg.sender,\n            receipt,\n            amt.sub(fee)\n        );\n        emit Pay(receiptToken, receiptToken, msg.sender, receipt);\n    }\n\n    /// @notice Pay, and use swap.\n    function payWithSwap(\n        address payToken,\n        address receiptToken,\n        uint256 payAmt,\n        uint256 receiptAmt,\n        address receipt\n    ) external {\n        require(payToken != receiptToken, \"Payment: the same token.\");\n        bstMinter.mint(address(this));\n        uint256 i = coins[payToken].index;\n        uint256 j = coins[receiptToken].index;\n        TransferHelper.safeTransferFrom(\n            payToken,\n            msg.sender,\n            address(this),\n            payAmt\n        );\n        TransferHelper.safeApprove(payToken, address(pool), payAmt);\n        uint256 _originalBalance =\n            IBEP20(receiptToken).balanceOf(address(this));\n        pool.exchange(i, j, payAmt, receiptAmt);\n        uint256 returnAmt =\n            IBEP20(receiptToken).balanceOf(address(this)).sub(_originalBalance);\n        require(returnAmt >= receiptAmt, \"Payment: swap amt insufficient.\");\n        UserInfo storage user = userInfo[msg.sender];\n        user.quantity = user.quantity.add(receiptAmt);\n        userInfo[msg.sender].blockNumber = block.number;\n        totalQuantity = totalQuantity.add(receiptAmt);\n        TransferHelper.safeTransfer(receiptToken, receipt, receiptAmt);\n        TransferHelper.safeTransfer(\n            receiptToken,\n            msg.sender,\n            returnAmt.sub(receiptAmt)\n        );\n        emit Pay(payToken, receiptToken, msg.sender, receipt);\n    }\n\n    /// @notice The user withdraws all the payment rewards\n    function withdrawReward() public {\n        UserInfo storage user = userInfo[msg.sender];\n        uint256 _quantity = user.quantity;\n        uint256 _totalQuantity = totalQuantity;\n        require(user.quantity > 0, \"Payment: no payment quantity.\");\n        bstMinter.mint(address(this));\n        uint256 userReward =\n            token.balanceOf(address(this)).mul(_quantity).div(_totalQuantity);\n        user.quantity = 0;\n        user.blockNumber = block.number;\n        totalQuantity = totalQuantity.sub(_quantity);\n        TransferHelper.safeTransfer(address(token), msg.sender, userReward);\n        emit WithdrawReward(_quantity, _totalQuantity, userReward);\n    }\n\n    /// @notice Get rewards from users in the current pool\n    function getUserReward(address _user) public view returns (uint256) {\n        UserInfo storage user = userInfo[_user];\n        uint256 _quantity = user.quantity;\n        uint256 userReward = 0;\n        if (totalQuantity > 0) {\n            userReward = token.balanceOf(address(this)).mul(_quantity).div(\n                totalQuantity\n            );\n        }\n        return userReward;\n    }\n}\n",
  "sourcePath": "/Users/zhangleping/github.com/0xa8c81519/contracts-210510/contracts/PaymentFarmingProxy.sol",
  "compiler": {
    "name": "solc",
    "version": "0.6.6+commit.6c089d02.Emscripten.clang"
  },
  "schemaVersion": "3.4.1",
  "updatedAt": "2021-06-29T07:09:27.697Z",
  "networkType": "ethereum",
  "devdoc": {
    "methods": {
      "allowance(address,address)": {
        "details": "See {IBEP20-allowance}."
      },
      "approve(address,uint256)": {
        "details": "See {IBEP20-approve}.     * Requirements:     * - `spender` cannot be the zero address."
      },
      "balanceOf(address)": {
        "details": "See {IBEP20-balanceOf}."
      },
      "decimals()": {
        "details": "Returns the number of decimals used to get its user representation. For example, if `decimals` equals `2`, a balance of `505` tokens should be displayed to a user as `5,05` (`505 / 10 ** 2`).     * Tokens usually opt for a value of 18, imitating the relationship between Ether and Wei. This is the value {BEP20} uses, unless {_setupDecimals} is called.     * NOTE: This information is only used for _display_ purposes: it in no way affects any of the arithmetic of the contract, including {IBEP20-balanceOf} and {IBEP20-transfer}."
      },
      "decreaseAllowance(address,uint256)": {
        "details": "Atomically decreases the allowance granted to `spender` by the caller.     * This is an alternative to {approve} that can be used as a mitigation for problems described in {IBEP20-approve}.     * Emits an {Approval} event indicating the updated allowance.     * Requirements:     * - `spender` cannot be the zero address. - `spender` must have allowance for the caller of at least `subtractedValue`."
      },
      "increaseAllowance(address,uint256)": {
        "details": "Atomically increases the allowance granted to `spender` by the caller.     * This is an alternative to {approve} that can be used as a mitigation for problems described in {IBEP20-approve}.     * Emits an {Approval} event indicating the updated allowance.     * Requirements:     * - `spender` cannot be the zero address."
      },
      "massUpdate()": {
        "details": "Mass update pools. Only caller is BSTMinter's massUpdateProxy."
      },
      "name()": {
        "details": "Returns the name of the token."
      },
      "owner()": {
        "details": "Returns the address of the current owner."
      },
      "renounceOwnership()": {
        "details": "Leaves the contract without owner. It will not be possible to call `onlyOwner` functions anymore. Can only be called by the current owner.     * NOTE: Renouncing ownership will leave the contract without an owner, thereby removing any functionality that is only available to the owner."
      },
      "symbol()": {
        "details": "Returns the symbol of the token, usually a shorter version of the name."
      },
      "totalSupply()": {
        "details": "See {IBEP20-totalSupply}."
      },
      "transfer(address,uint256)": {
        "details": "See {IBEP20-transfer}.     * Requirements:     * - `recipient` cannot be the zero address. - the caller must have a balance of at least `amount`."
      },
      "transferFrom(address,address,uint256)": {
        "details": "See {IBEP20-transferFrom}.     * Emits an {Approval} event indicating the updated allowance. This is not required by the EIP. See the note at the beginning of {BEP20};     * Requirements: - `sender` and `recipient` cannot be the zero address. - `sender` must have a balance of at least `amount`. - the caller must have allowance for ``sender``'s tokens of at least `amount`."
      },
      "transferOwnership(address)": {
        "details": "Transfers ownership of the contract to a new account (`newOwner`). Can only be called by the current owner."
      }
    },
    "title": "Implement Payment and payment farming."
  },
  "userdoc": {
    "methods": {
      "addCoins(address,uint32)": {
        "notice": "Add coins supported."
      },
      "getUserReward(address)": {
        "notice": "Get rewards from users in the current pool"
      },
      "pay(address,address,uint256)": {
        "notice": "Only pay, no need swap."
      },
      "payWithSwap(address,address,uint256,uint256,address)": {
        "notice": "Pay, and use swap."
      },
      "removeCoins(address)": {
        "notice": "Remove coins from supported."
      },
      "withdrawReward()": {
        "notice": "The user withdraws all the payment rewards"
      }
    }
  }
}