{
  "contractName": "PaymentFarmingProxy",
  "abi": [
    {
      "inputs": [
        {
          "internalType": "string",
          "name": "_name",
          "type": "string"
        },
        {
          "internalType": "string",
          "name": "_symbol",
          "type": "string"
        },
        {
          "internalType": "address",
          "name": "_owner",
          "type": "address"
        },
        {
          "internalType": "address",
          "name": "_dev",
          "type": "address"
        }
      ],
      "stateMutability": "nonpayable",
      "type": "constructor"
    },
    {
      "anonymous": false,
      "inputs": [
        {
          "indexed": false,
          "internalType": "address",
          "name": "_coin",
          "type": "address"
        },
        {
          "indexed": false,
          "internalType": "uint32",
          "name": "index",
          "type": "uint32"
        }
      ],
      "name": "AddCoins",
      "type": "event"
    },
    {
      "anonymous": false,
      "inputs": [
        {
          "indexed": true,
          "internalType": "address",
          "name": "owner",
          "type": "address"
        },
        {
          "indexed": true,
          "internalType": "address",
          "name": "spender",
          "type": "address"
        },
        {
          "indexed": false,
          "internalType": "uint256",
          "name": "value",
          "type": "uint256"
        }
      ],
      "name": "Approval",
      "type": "event"
    },
    {
      "anonymous": false,
      "inputs": [
        {
          "indexed": true,
          "internalType": "address",
          "name": "previousOwner",
          "type": "address"
        },
        {
          "indexed": true,
          "internalType": "address",
          "name": "newOwner",
          "type": "address"
        }
      ],
      "name": "OwnershipTransferred",
      "type": "event"
    },
    {
      "anonymous": false,
      "inputs": [
        {
          "indexed": false,
          "internalType": "address",
          "name": "payToken",
          "type": "address"
        },
        {
          "indexed": false,
          "internalType": "address",
          "name": "receiptToken",
          "type": "address"
        },
        {
          "indexed": false,
          "internalType": "address",
          "name": "payer",
          "type": "address"
        },
        {
          "indexed": false,
          "internalType": "address",
          "name": "recipt",
          "type": "address"
        }
      ],
      "name": "Pay",
      "type": "event"
    },
    {
      "anonymous": false,
      "inputs": [
        {
          "indexed": false,
          "internalType": "address",
          "name": "_coin",
          "type": "address"
        }
      ],
      "name": "RemoveCoins",
      "type": "event"
    },
    {
      "anonymous": false,
      "inputs": [
        {
          "indexed": false,
          "internalType": "address",
          "name": "_dev",
          "type": "address"
        }
      ],
      "name": "SetDev",
      "type": "event"
    },
    {
      "anonymous": false,
      "inputs": [
        {
          "indexed": false,
          "internalType": "contract IBSTMinter",
          "name": "_minter",
          "type": "address"
        }
      ],
      "name": "SetMinter",
      "type": "event"
    },
    {
      "anonymous": false,
      "inputs": [
        {
          "indexed": false,
          "internalType": "uint256",
          "name": "_fee",
          "type": "uint256"
        }
      ],
      "name": "SetPaymentFee",
      "type": "event"
    },
    {
      "anonymous": false,
      "inputs": [
        {
          "indexed": false,
          "internalType": "contract IBStablePool",
          "name": "_pool",
          "type": "address"
        }
      ],
      "name": "SetPool",
      "type": "event"
    },
    {
      "anonymous": false,
      "inputs": [
        {
          "indexed": false,
          "internalType": "contract IBSTToken",
          "name": "_token",
          "type": "address"
        }
      ],
      "name": "SetToken",
      "type": "event"
    },
    {
      "anonymous": false,
      "inputs": [
        {
          "indexed": true,
          "internalType": "address",
          "name": "from",
          "type": "address"
        },
        {
          "indexed": true,
          "internalType": "address",
          "name": "to",
          "type": "address"
        },
        {
          "indexed": false,
          "internalType": "uint256",
          "name": "value",
          "type": "uint256"
        }
      ],
      "name": "Transfer",
      "type": "event"
    },
    {
      "anonymous": false,
      "inputs": [
        {
          "indexed": false,
          "internalType": "uint256",
          "name": "_quantity",
          "type": "uint256"
        },
        {
          "indexed": false,
          "internalType": "uint256",
          "name": "_totalQuantity",
          "type": "uint256"
        },
        {
          "indexed": false,
          "internalType": "uint256",
          "name": "_userReward",
          "type": "uint256"
        }
      ],
      "name": "WithdrawReward",
      "type": "event"
    },
    {
      "inputs": [
        {
          "internalType": "address",
          "name": "owner",
          "type": "address"
        },
        {
          "internalType": "address",
          "name": "spender",
          "type": "address"
        }
      ],
      "name": "allowance",
      "outputs": [
        {
          "internalType": "uint256",
          "name": "",
          "type": "uint256"
        }
      ],
      "stateMutability": "view",
      "type": "function",
      "constant": true
    },
    {
      "inputs": [
        {
          "internalType": "address",
          "name": "spender",
          "type": "address"
        },
        {
          "internalType": "uint256",
          "name": "amount",
          "type": "uint256"
        }
      ],
      "name": "approve",
      "outputs": [
        {
          "internalType": "bool",
          "name": "",
          "type": "bool"
        }
      ],
      "stateMutability": "nonpayable",
      "type": "function"
    },
    {
      "inputs": [
        {
          "internalType": "address",
          "name": "account",
          "type": "address"
        }
      ],
      "name": "balanceOf",
      "outputs": [
        {
          "internalType": "uint256",
          "name": "",
          "type": "uint256"
        }
      ],
      "stateMutability": "view",
      "type": "function",
      "constant": true
    },
    {
      "inputs": [],
      "name": "bstMinter",
      "outputs": [
        {
          "internalType": "contract IBSTMinter",
          "name": "",
          "type": "address"
        }
      ],
      "stateMutability": "view",
      "type": "function",
      "constant": true
    },
    {
      "inputs": [
        {
          "internalType": "address",
          "name": "",
          "type": "address"
        }
      ],
      "name": "coins",
      "outputs": [
        {
          "internalType": "uint256",
          "name": "index",
          "type": "uint256"
        },
        {
          "internalType": "bool",
          "name": "available",
          "type": "bool"
        }
      ],
      "stateMutability": "view",
      "type": "function",
      "constant": true
    },
    {
      "inputs": [],
      "name": "decimals",
      "outputs": [
        {
          "internalType": "uint8",
          "name": "",
          "type": "uint8"
        }
      ],
      "stateMutability": "view",
      "type": "function",
      "constant": true
    },
    {
      "inputs": [
        {
          "internalType": "address",
          "name": "spender",
          "type": "address"
        },
        {
          "internalType": "uint256",
          "name": "subtractedValue",
          "type": "uint256"
        }
      ],
      "name": "decreaseAllowance",
      "outputs": [
        {
          "internalType": "bool",
          "name": "",
          "type": "bool"
        }
      ],
      "stateMutability": "nonpayable",
      "type": "function"
    },
    {
      "inputs": [],
      "name": "devAddress",
      "outputs": [
        {
          "internalType": "address",
          "name": "",
          "type": "address"
        }
      ],
      "stateMutability": "view",
      "type": "function",
      "constant": true
    },
    {
      "inputs": [
        {
          "internalType": "address",
          "name": "spender",
          "type": "address"
        },
        {
          "internalType": "uint256",
          "name": "addedValue",
          "type": "uint256"
        }
      ],
      "name": "increaseAllowance",
      "outputs": [
        {
          "internalType": "bool",
          "name": "",
          "type": "bool"
        }
      ],
      "stateMutability": "nonpayable",
      "type": "function"
    },
    {
      "inputs": [],
      "name": "name",
      "outputs": [
        {
          "internalType": "string",
          "name": "",
          "type": "string"
        }
      ],
      "stateMutability": "view",
      "type": "function",
      "constant": true
    },
    {
      "inputs": [],
      "name": "owner",
      "outputs": [
        {
          "internalType": "address",
          "name": "",
          "type": "address"
        }
      ],
      "stateMutability": "view",
      "type": "function",
      "constant": true
    },
    {
      "inputs": [],
      "name": "paymentFee",
      "outputs": [
        {
          "internalType": "uint256",
          "name": "",
          "type": "uint256"
        }
      ],
      "stateMutability": "view",
      "type": "function",
      "constant": true
    },
    {
      "inputs": [],
      "name": "pool",
      "outputs": [
        {
          "internalType": "contract IBStablePool",
          "name": "",
          "type": "address"
        }
      ],
      "stateMutability": "view",
      "type": "function",
      "constant": true
    },
    {
      "inputs": [],
      "name": "renounceOwnership",
      "outputs": [],
      "stateMutability": "nonpayable",
      "type": "function"
    },
    {
      "inputs": [],
      "name": "symbol",
      "outputs": [
        {
          "internalType": "string",
          "name": "",
          "type": "string"
        }
      ],
      "stateMutability": "view",
      "type": "function",
      "constant": true
    },
    {
      "inputs": [],
      "name": "token",
      "outputs": [
        {
          "internalType": "contract IBSTToken",
          "name": "",
          "type": "address"
        }
      ],
      "stateMutability": "view",
      "type": "function",
      "constant": true
    },
    {
      "inputs": [],
      "name": "totalQuantity",
      "outputs": [
        {
          "internalType": "uint256",
          "name": "",
          "type": "uint256"
        }
      ],
      "stateMutability": "view",
      "type": "function",
      "constant": true
    },
    {
      "inputs": [],
      "name": "totalSupply",
      "outputs": [
        {
          "internalType": "uint256",
          "name": "",
          "type": "uint256"
        }
      ],
      "stateMutability": "view",
      "type": "function",
      "constant": true
    },
    {
      "inputs": [
        {
          "internalType": "address",
          "name": "recipient",
          "type": "address"
        },
        {
          "internalType": "uint256",
          "name": "amount",
          "type": "uint256"
        }
      ],
      "name": "transfer",
      "outputs": [
        {
          "internalType": "bool",
          "name": "",
          "type": "bool"
        }
      ],
      "stateMutability": "nonpayable",
      "type": "function"
    },
    {
      "inputs": [
        {
          "internalType": "address",
          "name": "sender",
          "type": "address"
        },
        {
          "internalType": "address",
          "name": "recipient",
          "type": "address"
        },
        {
          "internalType": "uint256",
          "name": "amount",
          "type": "uint256"
        }
      ],
      "name": "transferFrom",
      "outputs": [
        {
          "internalType": "bool",
          "name": "",
          "type": "bool"
        }
      ],
      "stateMutability": "nonpayable",
      "type": "function"
    },
    {
      "inputs": [
        {
          "internalType": "address",
          "name": "newOwner",
          "type": "address"
        }
      ],
      "name": "transferOwnership",
      "outputs": [],
      "stateMutability": "nonpayable",
      "type": "function"
    },
    {
      "inputs": [
        {
          "internalType": "address",
          "name": "",
          "type": "address"
        }
      ],
      "name": "userInfo",
      "outputs": [
        {
          "internalType": "uint256",
          "name": "quantity",
          "type": "uint256"
        },
        {
          "internalType": "uint256",
          "name": "blockNumber",
          "type": "uint256"
        }
      ],
      "stateMutability": "view",
      "type": "function",
      "constant": true
    },
    {
      "inputs": [
        {
          "internalType": "uint256",
          "name": "_fee",
          "type": "uint256"
        }
      ],
      "name": "setPaymentFee",
      "outputs": [],
      "stateMutability": "nonpayable",
      "type": "function"
    },
    {
      "inputs": [
        {
          "internalType": "contract IBSTMinter",
          "name": "_minter",
          "type": "address"
        }
      ],
      "name": "setMinter",
      "outputs": [],
      "stateMutability": "nonpayable",
      "type": "function"
    },
    {
      "inputs": [
        {
          "internalType": "uint256",
          "name": "_allocPoint",
          "type": "uint256"
        }
      ],
      "name": "add",
      "outputs": [],
      "stateMutability": "nonpayable",
      "type": "function"
    },
    {
      "inputs": [
        {
          "internalType": "uint256",
          "name": "_allocPoint",
          "type": "uint256"
        }
      ],
      "name": "set",
      "outputs": [],
      "stateMutability": "nonpayable",
      "type": "function"
    },
    {
      "inputs": [
        {
          "internalType": "address",
          "name": "_dev",
          "type": "address"
        }
      ],
      "name": "setDev",
      "outputs": [],
      "stateMutability": "nonpayable",
      "type": "function"
    },
    {
      "inputs": [
        {
          "internalType": "contract IBSTToken",
          "name": "_token",
          "type": "address"
        }
      ],
      "name": "setToken",
      "outputs": [],
      "stateMutability": "nonpayable",
      "type": "function"
    },
    {
      "inputs": [
        {
          "internalType": "address",
          "name": "_coin",
          "type": "address"
        },
        {
          "internalType": "uint32",
          "name": "index",
          "type": "uint32"
        }
      ],
      "name": "addCoins",
      "outputs": [],
      "stateMutability": "nonpayable",
      "type": "function"
    },
    {
      "inputs": [
        {
          "internalType": "address",
          "name": "_coin",
          "type": "address"
        }
      ],
      "name": "removeCoins",
      "outputs": [],
      "stateMutability": "nonpayable",
      "type": "function"
    },
    {
      "inputs": [
        {
          "internalType": "contract IBStablePool",
          "name": "_pool",
          "type": "address"
        }
      ],
      "name": "setPool",
      "outputs": [],
      "stateMutability": "nonpayable",
      "type": "function"
    },
    {
      "inputs": [
        {
          "internalType": "address",
          "name": "receiptToken",
          "type": "address"
        },
        {
          "internalType": "address",
          "name": "receipt",
          "type": "address"
        },
        {
          "internalType": "uint256",
          "name": "amt",
          "type": "uint256"
        }
      ],
      "name": "pay",
      "outputs": [],
      "stateMutability": "nonpayable",
      "type": "function"
    },
    {
      "inputs": [
        {
          "internalType": "address",
          "name": "payToken",
          "type": "address"
        },
        {
          "internalType": "address",
          "name": "receiptToken",
          "type": "address"
        },
        {
          "internalType": "uint256",
          "name": "payAmt",
          "type": "uint256"
        },
        {
          "internalType": "uint256",
          "name": "receiptAmt",
          "type": "uint256"
        },
        {
          "internalType": "address",
          "name": "receipt",
          "type": "address"
        }
      ],
      "name": "payWithSwap",
      "outputs": [],
      "stateMutability": "nonpayable",
      "type": "function"
    },
    {
      "inputs": [],
      "name": "withdrawReward",
      "outputs": [],
      "stateMutability": "nonpayable",
      "type": "function"
    },
    {
      "inputs": [
        {
          "internalType": "address",
          "name": "_user",
          "type": "address"
        }
      ],
      "name": "getUserReward",
      "outputs": [
        {
          "internalType": "uint256",
          "name": "",
          "type": "uint256"
        }
      ],
      "stateMutability": "view",
      "type": "function",
      "constant": true
    }
  ],
  "bytecode": "0x6080604052660aa87bee5380006007553480156200001c57600080fd5b5060405162002e3938038062002e39833981810160405260808110156200004257600080fd5b81019080805160405193929190846401000000008211156200006357600080fd5b9083019060208201858111156200007957600080fd5b82516401000000008111828201881017156200009457600080fd5b82525081516020918201929091019080838360005b83811015620000c3578181015183820152602001620000a9565b50505050905090810190601f168015620000f15780820380516001836020036101000a031916815260200191505b50604052602001805160405193929190846401000000008211156200011557600080fd5b9083019060208201858111156200012b57600080fd5b82516401000000008111828201881017156200014657600080fd5b82525081516020918201929091019080838360005b83811015620001755781810151838201526020016200015b565b50505050905090810190601f168015620001a35780820380516001836020036101000a031916815260200191505b50604090815260208281015192909101518651929450925085918591620001d09160039185019062000416565b508051620001e690600490602084019062000416565b50506005805460ff191660121790555060006200020b6001600160e01b03620002d516565b60058054610100600160a81b0319166101006001600160a01b038416908102919091179091556040519192509060009060008051602062002e19833981519152908290a3506001600160a01b038116620002975760405162461bcd60e51b815260040180806020018281038252602c81526020018062002dc7602c913960400191505060405180910390fd5b620002ab826001600160e01b03620002da16565b600980546001600160a01b0319166001600160a01b039290921691909117905550620004b8915050565b335b90565b620002ed6001600160e01b03620002d516565b6001600160a01b0316620003096001600160e01b036200040216565b6001600160a01b03161462000365576040805162461bcd60e51b815260206004820181905260248201527f4f776e61626c653a2063616c6c6572206973206e6f7420746865206f776e6572604482015290519081900360640190fd5b6001600160a01b038116620003ac5760405162461bcd60e51b815260040180806020018281038252602681526020018062002df36026913960400191505060405180910390fd5b6005546040516001600160a01b03808416926101009004169060008051602062002e1983398151915290600090a3600580546001600160a01b0390921661010002610100600160a81b0319909216919091179055565b60055461010090046001600160a01b031690565b828054600181600116156101000203166002900490600052602060002090601f016020900481019282601f106200045957805160ff191683800117855562000489565b8280016001018555821562000489579182015b82811115620004895782518255916020019190600101906200046c565b50620004979291506200049b565b5090565b620002d791905b80821115620004975760008155600101620004a2565b6128ff80620004c86000396000f3fe608060405234801561001057600080fd5b50600436106102115760003560e01c80637c775dd811610125578063c885bc58116100ad578063e3bce7181161007c578063e3bce71814610690578063e51b390a146106b6578063f2fde38b146106be578063fc0c546a146106e4578063fca3b5aa146106ec57610211565b8063c885bc5814610617578063d477f05f1461061f578063dd62ed3e14610645578063dee7b7b51461067357610211565b8063a457c2d7116100f4578063a457c2d71461055b578063a9059cbb14610587578063b3d76188146105b3578063c616f412146105e9578063c75ebb82146105f157610211565b80637c775dd8146104da5780637d0f7a881461050c5780638da5cb5b1461054b57806395d89b411461055357610211565b806323b872dd116101a85780634437152a116101775780634437152a1461046157806360fe47b1146104875780636ef06a08146104a457806370a08231146104ac578063715018a6146104d257610211565b806323b872dd146103d9578063313ce5671461040f578063395093511461042d5780633ad10ef61461045957610211565b8063144fa6d7116101e4578063144fa6d71461033657806316f0115b1461035c57806318160ddd146103805780631959a0021461039a57610211565b806306fdde031461021657806307d3b6a214610293578063095ea7b3146102d95780631003e2d214610319575b600080fd5b61021e610712565b6040805160208082528351818301528351919283929083019185019080838360005b83811015610258578181015183820152602001610240565b50505050905090810190601f1680156102855780820380516001836020036101000a031916815260200191505b509250505060405180910390f35b6102d7600480360360a08110156102a957600080fd5b506001600160a01b0381358116916020810135821691604082013591606081013591608090910135166107a8565b005b610305600480360360408110156102ef57600080fd5b506001600160a01b038135169060200135610b7e565b604080519115158252519081900360200190f35b6102d76004803603602081101561032f57600080fd5b5035610b9c565b6102d76004803603602081101561034c57600080fd5b50356001600160a01b0316610c6c565b610364610d67565b604080516001600160a01b039092168252519081900360200190f35b610388610d76565b60408051918252519081900360200190f35b6103c0600480360360208110156103b057600080fd5b50356001600160a01b0316610d7c565b6040805192835260208301919091528051918290030190f35b610305600480360360608110156103ef57600080fd5b506001600160a01b03813581169160208101359091169060400135610d95565b610417610e22565b6040805160ff9092168252519081900360200190f35b6103056004803603604081101561044357600080fd5b506001600160a01b038135169060200135610e2b565b610364610e7f565b6102d76004803603602081101561047757600080fd5b50356001600160a01b0316610e8e565b6102d76004803603602081101561049d57600080fd5b5035610f89565b6103886110b7565b610388600480360360208110156104c257600080fd5b50356001600160a01b03166110bd565b6102d76110d8565b6102d7600480360360408110156104f057600080fd5b5080356001600160a01b0316906020013563ffffffff1661118a565b6105326004803603602081101561052257600080fd5b50356001600160a01b0316611329565b6040805192835290151560208301528051918290030190f35b610364611345565b61021e611359565b6103056004803603604081101561057157600080fd5b506001600160a01b0381351690602001356113ba565b6103056004803603604081101561059d57600080fd5b506001600160a01b038135169060200135611428565b6102d7600480360360608110156105c957600080fd5b506001600160a01b0381358116916020810135909116906040013561143c565b6103886116a7565b6103886004803603602081101561060757600080fd5b50356001600160a01b03166116ad565b6102d761176d565b6102d76004803603602081101561063557600080fd5b50356001600160a01b0316611926565b6103886004803603604081101561065b57600080fd5b506001600160a01b0381358116916020013516611a21565b6102d76004803603602081101561068957600080fd5b5035611a4c565b6102d7600480360360208110156106a657600080fd5b50356001600160a01b0316611ae9565b610364611c5b565b6102d7600480360360208110156106d457600080fd5b50356001600160a01b0316611c6a565b610364611d78565b6102d76004803603602081101561070257600080fd5b50356001600160a01b0316611d87565b60038054604080516020601f600260001961010060018816150201909516949094049384018190048102820181019092528281526060939092909183018282801561079e5780601f106107735761010080835404028352916020019161079e565b820191906000526020600020905b81548152906001019060200180831161078157829003601f168201915b5050505050905090565b836001600160a01b0316856001600160a01b0316141561080f576040805162461bcd60e51b815260206004820152601860248201527f5061796d656e743a207468652073616d6520746f6b656e2e0000000000000000604482015290519081900360640190fd5b600854604080516335313c2160e11b815230600482015290516001600160a01b0390921691636a627842916024808201926020929091908290030181600087803b15801561085c57600080fd5b505af1158015610870573d6000803e3d6000fd5b505050506040513d602081101561088657600080fd5b50506001600160a01b038086166000908152600d60205260408082205492871682529020546108b787333088611e82565b6006546108cf9088906001600160a01b031687611fdf565b604080516370a0823160e01b815230600482015290516000916001600160a01b038916916370a0823191602480820192602092909190829003018186803b15801561091957600080fd5b505afa15801561092d573d6000803e3d6000fd5b505050506040513d602081101561094357600080fd5b505160065460408051630b68372160e31b81526004810187905260248101869052604481018a90526064810189905290519293506001600160a01b0390911691635b41b9089160848082019260009290919082900301818387803b1580156109aa57600080fd5b505af11580156109be573d6000803e3d6000fd5b505050506000610a5682896001600160a01b03166370a08231306040518263ffffffff1660e01b815260040180826001600160a01b03166001600160a01b0316815260200191505060206040518083038186803b158015610a1e57600080fd5b505afa158015610a32573d6000803e3d6000fd5b505050506040513d6020811015610a4857600080fd5b50519063ffffffff61214216565b905085811015610aad576040805162461bcd60e51b815260206004820152601f60248201527f5061796d656e743a207377617020616d7420696e73756666696369656e742e00604482015290519081900360640190fd5b336000908152600a602052604090208054610ace908863ffffffff61219f16565b8155336000908152600a6020526040902043600190910155600b54610af9908863ffffffff61219f16565b600b55610b07898789612200565b610b218933610b1c858b63ffffffff61214216565b612200565b604080516001600160a01b03808d168252808c16602083015233828401528816606082015290517f8049bd343471d985a0a44482e4f7e94d9180cc4c4731c410980f5dd5704899889181900360800190a150505050505050505050565b6000610b92610b8b612363565b8484612367565b5060015b92915050565b610ba4612363565b6001600160a01b0316610bb5611345565b6001600160a01b031614610bfe576040805162461bcd60e51b815260206004820181905260248201526000805160206127cf833981519152604482015290519081900360640190fd5b60085460408051630571777d60e31b81526004810184905230602482015290516001600160a01b0390921691632b8bbbe89160448082019260009290919082900301818387803b158015610c5157600080fd5b505af1158015610c65573d6000803e3d6000fd5b5050505050565b610c74612363565b6001600160a01b0316610c85611345565b6001600160a01b031614610cce576040805162461bcd60e51b815260206004820181905260248201526000805160206127cf833981519152604482015290519081900360640190fd5b6001600160a01b038116610d135760405162461bcd60e51b81526004018080602001828103825260278152602001806128a36027913960400191505060405180910390fd5b600c80546001600160a01b0383166001600160a01b0319909116811790915560408051918252517fefc1fd16ea80a922086ee4e995739d59b025c1bcea6d1f67855747480c83214b9181900360200190a150565b6006546001600160a01b031681565b60025490565b600a602052600090815260409020805460019091015482565b6000610da2848484612453565b610e1884610dae612363565b610e1385604051806060016040528060288152602001612786602891396001600160a01b038a16600090815260016020526040812090610dec612363565b6001600160a01b03168152602081019190915260400160002054919063ffffffff6125ba16565b612367565b5060019392505050565b60055460ff1690565b6000610b92610e38612363565b84610e138560016000610e49612363565b6001600160a01b03908116825260208083019390935260409182016000908120918c16815292529020549063ffffffff61219f16565b6009546001600160a01b031681565b610e96612363565b6001600160a01b0316610ea7611345565b6001600160a01b031614610ef0576040805162461bcd60e51b815260206004820181905260248201526000805160206127cf833981519152604482015290519081900360640190fd5b6001600160a01b038116610f355760405162461bcd60e51b81526004018080602001828103825260278152602001806128a36027913960400191505060405180910390fd5b600680546001600160a01b0383166001600160a01b0319909116811790915560408051918252517f67816c9262630d6052ccaada1732fda377aa9e9abb3bc91cfd887a016a18a43a9181900360200190a150565b610f91612363565b6001600160a01b0316610fa2611345565b6001600160a01b031614610feb576040805162461bcd60e51b815260206004820181905260248201526000805160206127cf833981519152604482015290519081900360640190fd5b600854604080516335313c2160e11b815230600482015290516001600160a01b0390921691636a627842916024808201926020929091908290030181600087803b15801561103857600080fd5b505af115801561104c573d6000803e3d6000fd5b505050506040513d602081101561106257600080fd5b505060085460408051630704bb0560e31b81523060048201526024810184905290516001600160a01b0390921691633825d8289160448082019260009290919082900301818387803b158015610c5157600080fd5b60075481565b6001600160a01b031660009081526020819052604090205490565b6110e0612363565b6001600160a01b03166110f1611345565b6001600160a01b03161461113a576040805162461bcd60e51b815260206004820181905260248201526000805160206127cf833981519152604482015290519081900360640190fd5b60055460405160009161010090046001600160a01b0316907f8be0079c531659141344cd1fd0a4f28419497f9722a3daafe3b4186f6b6457e0908390a360058054610100600160a81b0319169055565b611192612363565b6001600160a01b03166111a3611345565b6001600160a01b0316146111ec576040805162461bcd60e51b815260206004820181905260248201526000805160206127cf833981519152604482015290519081900360640190fd5b6001600160a01b0382166112315760405162461bcd60e51b81526004018080602001828103825260278152602001806128a36027913960400191505060405180910390fd5b6001600160a01b0382166000908152600d602052604090206001015460ff16156112a2576040805162461bcd60e51b815260206004820152601b60248201527f5061796d656e743a20636f696e732064756d706c6963617465642e0000000000604482015290519081900360640190fd5b60408051808201825263ffffffff8316808252600160208084018281526001600160a01b0388166000818152600d845287902095518655905194909201805460ff19169415159490941790935583519081529182015281517f105ebf94dd0a850e02b95d0c48754fe267309ebb490ee3949d49f1090dc989f2929181900390910190a15050565b600d602052600090815260409020805460019091015460ff1682565b60055461010090046001600160a01b031690565b60048054604080516020601f600260001961010060018816150201909516949094049384018190048102820181019092528281526060939092909183018282801561079e5780601f106107735761010080835404028352916020019161079e565b6000610b926113c7612363565b84610e138560405180606001604052806025815260200161283860259139600160006113f1612363565b6001600160a01b03908116825260208083019390935260409182016000908120918d1681529252902054919063ffffffff6125ba16565b6000610b92611435612363565b8484612453565b604080516370a0823160e01b815233600482015290516001600160a01b038516916370a08231916024808301926020929190829003018186803b15801561148257600080fd5b505afa158015611496573d6000803e3d6000fd5b505050506040513d60208110156114ac57600080fd5b5051811115611502576040805162461bcd60e51b815260206004820152601e60248201527f5061796d656e743a20696e73756666696369656e742062616c616e63652e0000604482015290519081900360640190fd5b600854604080516335313c2160e11b815230600482015290516001600160a01b0390921691636a627842916024808201926020929091908290030181600087803b15801561154f57600080fd5b505af1158015611563573d6000803e3d6000fd5b505050506040513d602081101561157957600080fd5b50506007546000906115ac90670de0b6b3a7640000906115a090859063ffffffff61265116565b9063ffffffff6126aa16565b336000908152600a602052604090209091506115df6115d1848463ffffffff61214216565b82549063ffffffff61219f16565b8155336000908152600a602052604090204360019091015561161961160a848463ffffffff61214216565b600b549063ffffffff61219f16565b600b5560095461163690869033906001600160a01b031685611e82565b61165185338661164c878763ffffffff61214216565b611e82565b604080516001600160a01b03808816808352602083015233828401528616606082015290517f8049bd343471d985a0a44482e4f7e94d9180cc4c4731c410980f5dd5704899889181900360800190a15050505050565b600b5481565b6001600160a01b0381166000908152600a602052604081208054600b5483901561176557600b54600c54604080516370a0823160e01b8152306004820152905161176293926115a09287926001600160a01b03909216916370a0823191602480820192602092909190829003018186803b15801561172a57600080fd5b505afa15801561173e573d6000803e3d6000fd5b505050506040513d602081101561175457600080fd5b50519063ffffffff61265116565b90505b949350505050565b336000908152600a602052604090208054600b54816117d3576040805162461bcd60e51b815260206004820152601d60248201527f5061796d656e743a206e6f207061796d656e74207175616e746974792e000000604482015290519081900360640190fd5b600854604080516335313c2160e11b815230600482015290516001600160a01b0390921691636a627842916024808201926020929091908290030181600087803b15801561182057600080fd5b505af1158015611834573d6000803e3d6000fd5b505050506040513d602081101561184a57600080fd5b5050600c54604080516370a0823160e01b815230600482015290516000926118a69285926115a09288926001600160a01b03909116916370a0823191602480820192602092909190829003018186803b15801561172a57600080fd5b60008555436001860155600b549091506118c6908463ffffffff61214216565b600b55600c546118e0906001600160a01b03163383612200565b604080518481526020810184905280820183905290517fd3fb528e913f4bbf4dce5c74bea05df6ad20573463aceba438f2747fdc8d1ab69181900360600190a150505050565b61192e612363565b6001600160a01b031661193f611345565b6001600160a01b031614611988576040805162461bcd60e51b815260206004820181905260248201526000805160206127cf833981519152604482015290519081900360640190fd5b6001600160a01b0381166119cd5760405162461bcd60e51b81526004018080602001828103825260278152602001806128a36027913960400191505060405180910390fd5b600980546001600160a01b0383166001600160a01b0319909116811790915560408051918252517f8daa6bb00de042a7d51816fcee4a3d5c1e91a2128fd64fa1a9a38afa0d26beb59181900360200190a150565b6001600160a01b03918216600090815260016020908152604080832093909416825291909152205490565b611a54612363565b6001600160a01b0316611a65611345565b6001600160a01b031614611aae576040805162461bcd60e51b815260206004820181905260248201526000805160206127cf833981519152604482015290519081900360640190fd5b60078190556040805182815290517f0ba1a395bffa0247eabada1d9f74ddd223a25b0f285cf799bd37d9306a27c4029181900360200190a150565b611af1612363565b6001600160a01b0316611b02611345565b6001600160a01b031614611b4b576040805162461bcd60e51b815260206004820181905260248201526000805160206127cf833981519152604482015290519081900360640190fd5b6001600160a01b038116611b905760405162461bcd60e51b81526004018080602001828103825260278152602001806128a36027913960400191505060405180910390fd5b6001600160a01b0381166000908152600d602052604090206001015460ff16611c00576040805162461bcd60e51b815260206004820152601860248201527f5061796d656e743a20636f696e206e6f206578697374732e0000000000000000604482015290519081900360640190fd5b6001600160a01b0381166000818152600d6020908152604091829020600101805460ff19169055815192835290517fc0d90ee5f61611fa06580819f6c6b6a0edad1297b422e279dc926d3249d891a19281900390910190a150565b6008546001600160a01b031681565b611c72612363565b6001600160a01b0316611c83611345565b6001600160a01b031614611ccc576040805162461bcd60e51b815260206004820181905260248201526000805160206127cf833981519152604482015290519081900360640190fd5b6001600160a01b038116611d115760405162461bcd60e51b81526004018080602001828103825260268152602001806127606026913960400191505060405180910390fd5b6005546040516001600160a01b0380841692610100900416907f8be0079c531659141344cd1fd0a4f28419497f9722a3daafe3b4186f6b6457e090600090a3600580546001600160a01b0390921661010002610100600160a81b0319909216919091179055565b600c546001600160a01b031681565b611d8f612363565b6001600160a01b0316611da0611345565b6001600160a01b031614611de9576040805162461bcd60e51b815260206004820181905260248201526000805160206127cf833981519152604482015290519081900360640190fd5b6001600160a01b038116611e2e5760405162461bcd60e51b81526004018080602001828103825260278152602001806128a36027913960400191505060405180910390fd5b600880546001600160a01b0383166001600160a01b0319909116811790915560408051918252517fcec52196e972044edde8689a1b608e459c5946b7f3e5c8cd3d6d8e126d422e1c9181900360200190a150565b604080516001600160a01b0385811660248301528481166044830152606480830185905283518084039091018152608490920183526020820180516001600160e01b03166323b872dd60e01b17815292518251600094606094938a169392918291908083835b60208310611f075780518252601f199092019160209182019101611ee8565b6001836020036101000a0380198251168184511680821785525050505050509050019150506000604051808303816000865af19150503d8060008114611f69576040519150601f19603f3d011682016040523d82523d6000602084013e611f6e565b606091505b5091509150818015611f9c575080511580611f9c5750808060200190516020811015611f9957600080fd5b50515b611fd75760405162461bcd60e51b815260040180806020018281038252602481526020018061285d6024913960400191505060405180910390fd5b505050505050565b604080516001600160a01b038481166024830152604480830185905283518084039091018152606490920183526020820180516001600160e01b031663095ea7b360e01b178152925182516000946060949389169392918291908083835b6020831061205c5780518252601f19909201916020918201910161203d565b6001836020036101000a0380198251168184511680821785525050505050509050019150506000604051808303816000865af19150503d80600081146120be576040519150601f19603f3d011682016040523d82523d6000602084013e6120c3565b606091505b50915091508180156120f15750805115806120f157508080602001905160208110156120ee57600080fd5b50515b610c65576040805162461bcd60e51b815260206004820152601e60248201527f5472616e7366657248656c7065723a20415050524f56455f4641494c45440000604482015290519081900360640190fd5b600082821115612199576040805162461bcd60e51b815260206004820152601e60248201527f536166654d6174683a207375627472616374696f6e206f766572666c6f770000604482015290519081900360640190fd5b50900390565b6000828201838110156121f9576040805162461bcd60e51b815260206004820152601b60248201527f536166654d6174683a206164646974696f6e206f766572666c6f770000000000604482015290519081900360640190fd5b9392505050565b604080516001600160a01b038481166024830152604480830185905283518084039091018152606490920183526020820180516001600160e01b031663a9059cbb60e01b178152925182516000946060949389169392918291908083835b6020831061227d5780518252601f19909201916020918201910161225e565b6001836020036101000a0380198251168184511680821785525050505050509050019150506000604051808303816000865af19150503d80600081146122df576040519150601f19603f3d011682016040523d82523d6000602084013e6122e4565b606091505b5091509150818015612312575080511580612312575080806020019051602081101561230f57600080fd5b50515b610c65576040805162461bcd60e51b815260206004820152601f60248201527f5472616e7366657248656c7065723a205452414e534645525f4641494c454400604482015290519081900360640190fd5b3390565b6001600160a01b0383166123ac5760405162461bcd60e51b815260040180806020018281038252602481526020018061273c6024913960400191505060405180910390fd5b6001600160a01b0382166123f15760405162461bcd60e51b81526004018080602001828103825260228152602001806128816022913960400191505060405180910390fd5b6001600160a01b03808416600081815260016020908152604080832094871680845294825291829020859055815185815291517f8c5be1e5ebec7d5bd14f71427d1e84f3dd0314c0f7b2291e5b200ac8c7c3b9259281900390910190a3505050565b6001600160a01b0383166124985760405162461bcd60e51b81526004018080602001828103825260258152602001806127176025913960400191505060405180910390fd5b6001600160a01b0382166124dd5760405162461bcd60e51b81526004018080602001828103825260238152602001806128156023913960400191505060405180910390fd5b6124e8838383612711565b61252b816040518060600160405280602681526020016127ef602691396001600160a01b038616600090815260208190526040902054919063ffffffff6125ba16565b6001600160a01b038085166000908152602081905260408082209390935590841681522054612560908263ffffffff61219f16565b6001600160a01b038084166000818152602081815260409182902094909455805185815290519193928716927fddf252ad1be2c89b69c2b068fc378daa952ba7f163c4a11628f55a4df523b3ef92918290030190a3505050565b600081848411156126495760405162461bcd60e51b81526004018080602001828103825283818151815260200191508051906020019080838360005b8381101561260e5781810151838201526020016125f6565b50505050905090810190601f16801561263b5780820380516001836020036101000a031916815260200191505b509250505060405180910390fd5b505050900390565b60008261266057506000610b96565b8282028284828161266d57fe5b04146121f95760405162461bcd60e51b81526004018080602001828103825260218152602001806127ae6021913960400191505060405180910390fd5b6000808211612700576040805162461bcd60e51b815260206004820152601a60248201527f536166654d6174683a206469766973696f6e206279207a65726f000000000000604482015290519081900360640190fd5b81838161270957fe5b049392505050565b50505056fe42455032303a207472616e736665722066726f6d20746865207a65726f206164647265737342455032303a20617070726f76652066726f6d20746865207a65726f20616464726573734f776e61626c653a206e6577206f776e657220697320746865207a65726f206164647265737342455032303a207472616e7366657220616d6f756e74206578636565647320616c6c6f77616e6365536166654d6174683a206d756c7469706c69636174696f6e206f766572666c6f774f776e61626c653a2063616c6c6572206973206e6f7420746865206f776e657242455032303a207472616e7366657220616d6f756e7420657863656564732062616c616e636542455032303a207472616e7366657220746f20746865207a65726f206164647265737342455032303a2064656372656173656420616c6c6f77616e63652062656c6f77207a65726f5472616e7366657248656c7065723a205452414e534645525f46524f4d5f4641494c454442455032303a20617070726f766520746f20746865207a65726f20616464726573735061796d656e744661726d696e6750726f78793a2063616e277420626520302061646472657373a26469706673582212204999bdf8ba6fa5544dd2793acdc7bfcb3caa347ef03ee064c1eb74368c735fa864736f6c634300060600335061796d656e744661726d696e6750726f78793a205f6465762063616e2774206265203020616464726573734f776e61626c653a206e6577206f776e657220697320746865207a65726f20616464726573738be0079c531659141344cd1fd0a4f28419497f9722a3daafe3b4186f6b6457e0",
  "immutableReferences": {},
  "source": "// SPDX-License-Identifier: MIT\n\npragma solidity ^0.6.0;\n\nimport \"./interfaces/IBEP20.sol\";\nimport \"./interfaces/IBSTMinter.sol\";\nimport \"./interfaces/IBStablePool.sol\";\nimport \"./interfaces/IBSTToken.sol\";\nimport \"@openzeppelin/contracts/math/SafeMath.sol\";\nimport \"@openzeppelin/contracts/access/Ownable.sol\";\nimport \"./BEP20.sol\";\nimport \"./lib/TransferHelper.sol\";\n\n/// @title Implement Payment and payment farming.\ncontract PaymentFarmingProxy is BEP20, Ownable {\n    using SafeMath for uint256;\n\n    IBStablePool public pool;\n\n    uint256 public paymentFee = 3_000_000_000_000_000;\n\n    IBSTMinter public bstMinter;\n\n    address public devAddress;\n\n    struct UserInfo {\n        uint256 quantity; // user's volume\n        uint256 blockNumber; // Last transaction block\n    }\n\n    mapping(address => UserInfo) public userInfo;\n\n    uint256 public totalQuantity;\n\n    IBSTToken public token;\n\n    struct CoinInfo {\n        uint256 index;\n        bool available;\n    }\n    mapping(address => CoinInfo) public coins;\n    event SetPaymentFee(uint256 _fee);\n    event SetMinter(IBSTMinter _minter);\n    event SetDev(address _dev);\n    event SetToken(IBSTToken _token);\n    event AddCoins(address _coin, uint32 index);\n    event RemoveCoins(address _coin);\n    event SetPool(IBStablePool _pool);\n    event Pay(\n        address payToken,\n        address receiptToken,\n        address payer,\n        address recipt\n    );\n\n    event WithdrawReward(\n        uint256 _quantity,\n        uint256 _totalQuantity,\n        uint256 _userReward\n    );\n\n    constructor(\n        string memory _name,\n        string memory _symbol,\n        address _owner,\n        address _dev\n    ) public BEP20(_name, _symbol) {\n        require(\n            _dev != address(0),\n            \"PaymentFarmingProxy: _dev can't be 0 address\"\n        );\n        transferOwnership(_owner);\n        devAddress = _dev;\n    }\n\n    function setPaymentFee(uint256 _fee) public onlyOwner {\n        paymentFee = _fee;\n        emit SetPaymentFee(_fee);\n    }\n\n    function setMinter(IBSTMinter _minter) public onlyOwner {\n        require(\n            address(_minter) != address(0),\n            \"PaymentFarmingProxy: can't be 0 address\"\n        );\n        bstMinter = _minter;\n        emit SetMinter(_minter);\n    }\n\n    function add(uint256 _allocPoint) public onlyOwner {\n        bstMinter.add(_allocPoint, address(this));\n    }\n\n    function set(uint256 _allocPoint) public onlyOwner {\n        bstMinter.mint(address(this));\n        bstMinter.set(address(this), _allocPoint);\n    }\n\n    function setDev(address _dev) public onlyOwner {\n        require(_dev != address(0), \"PaymentFarmingProxy: can't be 0 address\");\n        devAddress = _dev;\n        emit SetDev(_dev);\n    }\n\n    function setToken(IBSTToken _token) public onlyOwner {\n        require(\n            address(_token) != address(0),\n            \"PaymentFarmingProxy: can't be 0 address\"\n        );\n        token = _token;\n        emit SetToken(_token);\n    }\n\n    /// @notice Add coins supported.\n    function addCoins(address _coin, uint32 index) public onlyOwner {\n        require(_coin != address(0), \"PaymentFarmingProxy: can't be 0 address\");\n        require(!coins[_coin].available, \"Payment: coins dumplicated.\");\n        coins[_coin] = CoinInfo({index: index, available: true});\n        emit AddCoins(_coin, index);\n    }\n\n    /// @notice Remove coins from supported.\n    function removeCoins(address _coin) public onlyOwner {\n        require(_coin != address(0), \"PaymentFarmingProxy: can't be 0 address\");\n        require(coins[_coin].available, \"Payment: coin no exists.\");\n        coins[_coin].available = false;\n        emit RemoveCoins(_coin);\n    }\n\n    function setPool(IBStablePool _pool) public onlyOwner {\n        require(\n            address(_pool) != address(0),\n            \"PaymentFarmingProxy: can't be 0 address\"\n        );\n        pool = _pool;\n        emit SetPool(_pool);\n    }\n\n    /// @notice Only pay, no need swap.\n    function pay(\n        address receiptToken,\n        address receipt,\n        uint256 amt\n    ) external {\n        require(\n            amt <= IBEP20(receiptToken).balanceOf(msg.sender),\n            \"Payment: insufficient balance.\"\n        );\n        bstMinter.mint(address(this));\n        uint256 fee = amt.mul(paymentFee).div(10**18);\n        UserInfo storage user = userInfo[msg.sender];\n        user.quantity = user.quantity.add(amt.sub(fee));\n        userInfo[msg.sender].blockNumber = block.number;\n        totalQuantity = totalQuantity.add(amt.sub(fee));\n        TransferHelper.safeTransferFrom(\n            receiptToken,\n            msg.sender,\n            devAddress,\n            fee\n        );\n        TransferHelper.safeTransferFrom(\n            receiptToken,\n            msg.sender,\n            receipt,\n            amt.sub(fee)\n        );\n        emit Pay(receiptToken, receiptToken, msg.sender, receipt);\n    }\n\n    /// @notice Pay, and use swap.\n    function payWithSwap(\n        address payToken,\n        address receiptToken,\n        uint256 payAmt,\n        uint256 receiptAmt,\n        address receipt\n    ) external {\n        require(payToken != receiptToken, \"Payment: the same token.\");\n        bstMinter.mint(address(this));\n        uint256 i = coins[payToken].index;\n        uint256 j = coins[receiptToken].index;\n        TransferHelper.safeTransferFrom(\n            payToken,\n            msg.sender,\n            address(this),\n            payAmt\n        );\n        TransferHelper.safeApprove(payToken, address(pool), payAmt);\n        uint256 _originalBalance =\n            IBEP20(receiptToken).balanceOf(address(this));\n        pool.exchange(i, j, payAmt, receiptAmt);\n        uint256 returnAmt =\n            IBEP20(receiptToken).balanceOf(address(this)).sub(_originalBalance);\n        require(returnAmt >= receiptAmt, \"Payment: swap amt insufficient.\");\n        UserInfo storage user = userInfo[msg.sender];\n        user.quantity = user.quantity.add(receiptAmt);\n        userInfo[msg.sender].blockNumber = block.number;\n        totalQuantity = totalQuantity.add(receiptAmt);\n        TransferHelper.safeTransfer(receiptToken, receipt, receiptAmt);\n        TransferHelper.safeTransfer(\n            receiptToken,\n            msg.sender,\n            returnAmt.sub(receiptAmt)\n        );\n        emit Pay(payToken, receiptToken, msg.sender, receipt);\n    }\n\n    /// @notice The user withdraws all the payment rewards\n    function withdrawReward() public {\n        UserInfo storage user = userInfo[msg.sender];\n        uint256 _quantity = user.quantity;\n        uint256 _totalQuantity = totalQuantity;\n        require(user.quantity > 0, \"Payment: no payment quantity.\");\n        bstMinter.mint(address(this));\n        uint256 userReward =\n            token.balanceOf(address(this)).mul(_quantity).div(_totalQuantity);\n        user.quantity = 0;\n        user.blockNumber = block.number;\n        totalQuantity = totalQuantity.sub(_quantity);\n        TransferHelper.safeTransfer(address(token), msg.sender, userReward);\n        emit WithdrawReward(_quantity, _totalQuantity, userReward);\n    }\n\n    /// @notice Get rewards from users in the current pool\n    function getUserReward(address _user) public view returns (uint256) {\n        UserInfo storage user = userInfo[_user];\n        uint256 _quantity = user.quantity;\n        uint256 userReward = 0;\n        if (totalQuantity > 0) {\n            userReward = token.balanceOf(address(this)).mul(_quantity).div(\n                totalQuantity\n            );\n        }\n        return userReward;\n    }\n}\n",
  "sourcePath": "/Users/zhangleping/github.com/0xa8c81519/contracts-210510/contracts/PaymentFarmingProxy.sol",
  "compiler": {
    "name": "solc",
    "version": "0.6.6+commit.6c089d02.Emscripten.clang"
  },
  "schemaVersion": "3.4.1",
  "updatedAt": "2021-06-15T07:06:31.447Z",
  "networkType": "ethereum",
  "devdoc": {
    "methods": {
      "allowance(address,address)": {
        "details": "See {IBEP20-allowance}."
      },
      "approve(address,uint256)": {
        "details": "See {IBEP20-approve}.     * Requirements:     * - `spender` cannot be the zero address."
      },
      "balanceOf(address)": {
        "details": "See {IBEP20-balanceOf}."
      },
      "decimals()": {
        "details": "Returns the number of decimals used to get its user representation. For example, if `decimals` equals `2`, a balance of `505` tokens should be displayed to a user as `5,05` (`505 / 10 ** 2`).     * Tokens usually opt for a value of 18, imitating the relationship between Ether and Wei. This is the value {BEP20} uses, unless {_setupDecimals} is called.     * NOTE: This information is only used for _display_ purposes: it in no way affects any of the arithmetic of the contract, including {IBEP20-balanceOf} and {IBEP20-transfer}."
      },
      "decreaseAllowance(address,uint256)": {
        "details": "Atomically decreases the allowance granted to `spender` by the caller.     * This is an alternative to {approve} that can be used as a mitigation for problems described in {IBEP20-approve}.     * Emits an {Approval} event indicating the updated allowance.     * Requirements:     * - `spender` cannot be the zero address. - `spender` must have allowance for the caller of at least `subtractedValue`."
      },
      "increaseAllowance(address,uint256)": {
        "details": "Atomically increases the allowance granted to `spender` by the caller.     * This is an alternative to {approve} that can be used as a mitigation for problems described in {IBEP20-approve}.     * Emits an {Approval} event indicating the updated allowance.     * Requirements:     * - `spender` cannot be the zero address."
      },
      "name()": {
        "details": "Returns the name of the token."
      },
      "owner()": {
        "details": "Returns the address of the current owner."
      },
      "renounceOwnership()": {
        "details": "Leaves the contract without owner. It will not be possible to call `onlyOwner` functions anymore. Can only be called by the current owner.     * NOTE: Renouncing ownership will leave the contract without an owner, thereby removing any functionality that is only available to the owner."
      },
      "symbol()": {
        "details": "Returns the symbol of the token, usually a shorter version of the name."
      },
      "totalSupply()": {
        "details": "See {IBEP20-totalSupply}."
      },
      "transfer(address,uint256)": {
        "details": "See {IBEP20-transfer}.     * Requirements:     * - `recipient` cannot be the zero address. - the caller must have a balance of at least `amount`."
      },
      "transferFrom(address,address,uint256)": {
        "details": "See {IBEP20-transferFrom}.     * Emits an {Approval} event indicating the updated allowance. This is not required by the EIP. See the note at the beginning of {BEP20};     * Requirements: - `sender` and `recipient` cannot be the zero address. - `sender` must have a balance of at least `amount`. - the caller must have allowance for ``sender``'s tokens of at least `amount`."
      },
      "transferOwnership(address)": {
        "details": "Transfers ownership of the contract to a new account (`newOwner`). Can only be called by the current owner."
      }
    },
    "title": "Implement Payment and payment farming."
  },
  "userdoc": {
    "methods": {
      "addCoins(address,uint32)": {
        "notice": "Add coins supported."
      },
      "getUserReward(address)": {
        "notice": "Get rewards from users in the current pool"
      },
      "pay(address,address,uint256)": {
        "notice": "Only pay, no need swap."
      },
      "payWithSwap(address,address,uint256,uint256,address)": {
        "notice": "Pay, and use swap."
      },
      "removeCoins(address)": {
        "notice": "Remove coins from supported."
      },
      "withdrawReward()": {
        "notice": "The user withdraws all the payment rewards"
      }
    }
  }
}